:020000040800F2
:100000005824002001010008272A0008F1210008D7
:10001000252A0008B9070008B133000800000000D5
:100020000000000000000000000000000D3000088B
:10003000CD07000800000000F52D00080F30000873
:100040001B0100081B0100081B0100081B01000820
:100050001B0100081B0100081B0100081B01000810
:100060001B0100081B010008350D00081B010008DA
:100070001B0100081B0100081B0100081B010008F0
:100080001B0100081B0100081B0100081B010008E0
:100090001B0100081B0100081B0100083B0D0008A4
:1000A0001B0100081B0100081B0100081B010008C0
:1000B0001B0100081B0100081B0100081B010008B0
:1000C0001B0100081B0100081B0100081B010008A0
:1000D0001B01000899330008A53300081B01000824
:1000E0001B0100081B0100081B010008DFF80CD0F1
:1000F00000F004FB00480047293F00085824002076
:100100000648804706480047FEE7FEE7FEE7FEE7B1
:10011000FEE7FEE7FEE7FEE7FEE7FEE777300008D2
:10012000ED000008202A04DB203A21FA02F0002129
:10013000704721FA02F3D040C2F1200291400843F7
:10014000194670470649074A0868504343F2390286
:10015000104408604008704701490860704700007B
:10016000501600206D4EC64140EA01039B0703D0A4
:1001700009E008C9121F08C0042AFAD203E011F8E6
:10018000013B00F8013B521EF9D27047D2B201E0A8
:1001900000F8012B491EFBD270470022F6E710B58C
:1001A00013460A4604461946FFF7F0FF204610BDE5
:1001B000421E12F8013F002BFBD111F8013B02F85F
:1001C000013B002BF9D1704730B505462A460B4656
:1001D00012F8010B13F8014B08B1A042F8D01CB182
:1001E000002802D06D1CF1E7284630BD421C10F8F3
:1001F000011B0029FBD1801A704710B5002200E0D6
:10020000521C835C8C5CA34201D1002BF8D1D8B284
:10021000E1B2401A10BD034611F8012B00F8012B82
:10022000002AF9D1184670470EB540F233410291C9
:100230000021CDE900110A460B4600F058F803B042
:1002400000BD30B50B46014600202022012409E004
:1002500021FA02F59D4205D303FA02F5491B04FA7F
:1002600002F52844151EA2F10102F1DC30BD2DE992
:10027000F05F0546002092469B468846064681462A
:1002800040241BE02846414647462246FFF74AFFE6
:1002900053465A46C01A914110D311461846224679
:1002A00000F03EFA2D1A67EB01084F462246012066
:1002B000002100F035FA17EB00094E41201EA4F191
:1002C0000104DFDC484631462A464346BDE8F09F3C
:1002D00010B5141E73F1000408DA401C41F100014E
:1002E00092185B411A4301D120F0010010BD2DE9A5
:1002F000F04D92469B4611B1B1FA81F202E0B0FA9C
:1003000080F22032904600F00BFA04460F4640EA95
:100310000A0041EA0B0153465A46084313D01146DE
:1003200053EA010019D0C8F140025046FFF7FAFE27
:1003300005460E4650465946424600F0F1F908433C
:1003400005D0012004E020463946BDE8F08D0020AC
:10035000054346EAE0762C4337430A986305E40AEE
:10036000A0EB08000022FD0A44EA47540A3002D5F7
:1003700000200146E9E7010510196941DDE908455A
:1003800000196941BDE8F04DA2E72DE9FE4F804616
:1003900081EA0300C00F0C46009021F0004123F0D9
:1003A0000045B8EB0200A94105D2404621469046DF
:1003B0001C460B46024623F00040104347D0270D51
:1003C000C7F30A00C3F30A510290401A0190402873
:1003D0006BDAC3F3130040F4801B0098924620B1FF
:1003E0000023D2EB030A63EB0B0B01985946C0F1D3
:1003F0004002504600F094F906460D4650465946D4
:10040000019A00F09CF910EB08006141002487EA92
:10041000115284EAE7731A4340D0009A62B3019AFA
:10042000012A4FEA075215DC001B61EB02014FF075
:10043000004202EA0752CDE90042001C41F580115A
:1004400032462B46FFF753FF03B0BDE8F08F40461E
:100450002146F9E7001B61EB0201001C41F5801306
:1004600000185B412018A2F5001747EB030140EA92
:10047000D570B6196D4111E06D084FEA360645EAB0
:10048000C0754FEA0752001B61EB0201001C41F5E9
:10049000801149084FEA30000019514132462B467D
:1004A00003B0BDE8F04FFFF713BF009801224000F2
:1004B0000023D0EB020263EBE073009821464FEA81
:1004C000E074B8EB000061EB0401E9E783F000435E
:1004D0005BE781F0004158E72DE9FE4F81EA030414
:1004E00004F0004421F0004100944FF0000B23F091
:1004F000004350EA01045ED052EA03045BD0C3F328
:100500000A54C1F30A552C44A4F2F3340194A0FB1D
:100510000254C1F3130141F48011C3F3130343F4F4
:10052000801301FB024400FB034E840A970A44EA4D
:10053000815447EA8357A4FB076802958D0A05FB9F
:1005400007854FEA932C04FB0C542705029D4FEAC4
:10055000065847EA1637B5EB08056EEB070C870E11
:10056000920E47EA811742EA8312A7FB0201B6EB1B
:100570000B0164EB00042B0D43EA0C335E1844EBD3
:100580001C50DA465146E7FB0201C5F313044FEA5B
:100590000B3343EA14534FEA0432019C43EA060347
:1005A000A4F10C040294009CCDE900B4FFF79FFE77
:1005B00003B0BDE8F08F00200146F9E72DE9F04DCA
:1005C00081EA030404F0004B21F0004514464FF08B
:1005D000000A23F0004150EA050220D054EA01024B
:1005E0001DD0C5F30A570246C5F31303C1F3130028
:1005F000C1F30A5640F4801543F48013A7EB0608B4
:10060000101BD64608F2FD3873EB050002D308F143
:10061000010801E092185B41B8F1000F03DA0020F5
:100620000146BDE8F08D00204FF480110646844657
:100630000EE0171B73EB050705D3121B63EB0503D5
:1006400006434CEA010C49084FEA300092185B411E
:1006500050EA0107EDD152EA030012D082EA040009
:1006600083EA0501084305D0101BAB4106D20122E5
:10067000002306E000224FF0004302E06FF0010289
:1006800053101AEB06004CEB085110EB0A0041EB3B
:100690000B01BDE8F04DFFF71BBEC1F30A52C1F3D9
:1006A000130140F2FF3341F480119A4202DA002034
:1006B0000146704740F233439A42A2F2334202DCD1
:1006C0005242FFF72FBD00F02BB8000030B5041EDA
:1006D00071F1000404DB4FF00044404264EB01017F
:1006E000141E73F1000405DB1C464FF00043524218
:1006F00063EB0403994208BF904230BD064C074D9E
:1007000006E0E06840F0010394E8070098471034E1
:10071000AC42F6D3FFF7EEFCA0580008C058000822
:10072000202A04DB203A00FA02F1002070479140B1
:10073000C2F1200320FA03F3194390407047202AA6
:1007400006DBCB17203A41FA02F043EAE07306E0F9
:1007500041FA02F3D040C2F1200291400843194609
:10076000704770B58C1810F8015B15F0070301D1C4
:1007700010F8013B2A1106D110F8012B03E010F804
:10078000016B01F8016B5B1EF9D12B0705D4002327
:10079000521E0DD401F8013BFAE710F8013BCB1AC9
:1007A000921C03E013F8015B01F8015B521EF9D5BE
:1007B000A142D8D3002070BDFEE700004FF40051E5
:1007C000014800F056BD00000010014070470000D5
:1007D00010B500F071FA002862D032A002F0EAFDF4
:1007E0003AA142A000F076F9002852D0102346A288
:1007F0000021642002F0B8FA02F0D0F943A002F020
:10080000D9FD40F25B724BA14FA000F0BFF9002868
:1008100041D010233CA21946642002F0A5FA02F050
:10082000BDF94AA002F0C6FD544A55A156A001F0F8
:100830000DFD002831D0102333A22021642002F0C6
:1008400093FA02F0ABF953A002F0B4FD01220021AB
:100850005CA001F079FE10B310232BA2302164209C
:1008600002F082FA02F09AF95FA002F0A3FD6B4C4D
:1008700000220821204600F004FDC82000F0DCFB27
:1008800001220821204600F0FCFCBDE8104002F0E7
:10089000CBB8012004E0022002E0032000E00420A5
:1008A00000F04EFAA1BE6D61696EA1BF696E666F00
:1008B0003A45535038323636B3F5CABCBBAFB3C92C
:1008C000B9A6A3A10D0A0D0A000000005468696EC4
:1008D00067496E7465726E6574734066536B696CBC
:1008E0006C7342343437353200000000496E746551
:1008F000726E6574204F66205468696E677320536A
:100900006B696C6C730000004F4B0000A1BE6D6101
:10091000696EA1BF696E666F3A45535038323636FC
:10092000C1ACBDD3C8C8B5E3B3C9B9A6A3A10D0A6C
:100930000D0A00006D717474732E6865636C6F75B9
:1009400064732E636F6D000054435000A1BE6D614F
:10095000696EA1BF696E666F3A45535038323636BC
:10096000C1ACBDD3B0A2C0EFD4C6B7FECEF1C6F7BE
:10097000B3C9B9A6A3A10D0A0D0A0000BC5700080F
:100980003535353333390000646576696365303158
:1009900000000000A1BE6D61696EA1BF696E666F47
:1009A0003A45535038323636B0A2C0EFD4C64D5116
:1009B0005454B5C7C2BDB3C9B9A6A3A10D0A0D0A47
:1009C00000000000247379732F3535353333392F08
:1009D00064657669636530312F636D642F7265716C
:1009E000756573742F2B0000A1BE6D61696EA1BF88
:1009F000696E666F3A45535038323636B0A2C0EF52
:100A0000D4C64D515454B6A9D4C4D6F7CCE2B3C918
:100A1000B9A6A3A10D0A0D0A00000000000C0140B8
:100A200070B50C4605464FF480710748FFF7B5FBDB
:100A300006490020224608702946BDE870404FF65E
:100A4000FF73034801F07ABB561E00204D160020AC
:100A50000417002010B504464FF480710948FFF7D1
:100A60009CFB094900200870084806E002685160B4
:100A70000168641C0A685206FCD521780029F5D16A
:100A800010BD0000561E00204D1600200417002047
:100A900070B505244FF400750EE029460948FFF7AC
:100AA0007CFB09A0FFF7D6FFC82209A1054800F08A
:100AB0001BFA08B1012070BD2046641EE4B2ECD2DE
:100AC00070BD0000561E002041540D0A00000000B9
:100AD0004F4B00002DE9F0478846814605244FF42E
:100AE00000750CE029461A48FFF757FB19A0FFF7DD
:100AF000B1FFC8221CA1164800F0F6F910B9641E17
:100B0000E4B2EFD2ECB1012426024FF4FA57314699
:100B10001648FFF742FB29460D48FFF73EFB4346C8
:100B20004A4613A1114802F055FC1048FFF792FF06
:100B30003A460DA1064800F0D7F920B10120BDE8E2
:100B4000F0870020FBE72046641EE4B2DFD2F6E720
:100B5000561E002041542B43574D4F44455F43558B
:100B6000523D310D0A0000004F4B0000561D002081
:100B700041542B43574A41505F4355523D22257300
:100B8000222C222573220D0A000000002DE9F84FC7
:100B900016468946824600F07DF84FF4FA7000F060
:100BA0004BFA02242502E7014FF4FA5817E03946C0
:100BB0002348FFF7F2FA29462248FFF7EEFA4B46A0
:100BC000524621A11E48009602F004FC1C48FFF783
:100BD00041FF424623A11B4800F086F910B9641E6C
:100BE000E4B2E4D27CB1012429461648FFF7D5FAD5
:100BF0001EA0FFF72FFFC82220A1124800F074F9B1
:100C000020B1012407E00020BDE8F88F2046641ED3
:100C1000E4B2E9D2F8E729460A48FFF7BEFA18A07D
:100C2000FFF718FFC8221AA1064800F05DF908B1C5
:100C30000120E9E72046641EE4B2ECD2E4E70000BC
:100C4000561D0020561E002041542B43495053543A
:100C50004152543D222573222C222573222C2564D7
:100C60000D0A0000434F4E4E4543540041542B4360
:100C700049504D4F44453D310D0A00004F4B000097
:100C800041542B43495053454E440D0A0000000087
:100C90003E00000010B507A0FFF7DCFE322000F098
:100CA000CBF904A0FFF7D6FEBDE81040322000F0DB
:100CB000C3B900002B2B2B0070B54FF48071154881
:100CC000FFF76BFA4FF4007529461348FFF765FAF2
:100CD000FFF7E0FF4FF4FA74204600F0ADF90FA0E3
:100CE000FFF7B8FE4FF4487000F0A6F9FFF7D0FE0A
:100CF00000280ED029460848FFF74FFA0AA0FFF750
:100D0000A9FE22460AA1044800F0EEF8002800D00F
:100D1000012070BD561D0020561E002041542B524C
:100D200053540D0A00000000415445300D0A0000E4
:100D30004F4B0000102000F09BB9202000F098B924
:100D40000446194D4FF4FA7601F06EFE002110238F
:100D500016A2084602F008F8102317A21946002030
:100D600002F002F801F01AFF052C1AD2DFE804F0B5
:100D700003051315170014A000E01DA002F01AFBD4
:100D800025A002F017FB0821284600F072FA304631
:100D900000F052F9D8E727A0F0E732A0EEE73DA037
:100DA000ECE749A0EAE70000000C01404661696CED
:100DB0006564212100000000506C6561736520723C
:100DC0006573746172740000A1BE6D61696EA1BF2C
:100DD0006572726F723A45535038323636B3F5CA7F
:100DE000BCBBAFCAA7B0DCA3A10D0A0D0A0000006E
:100DF000A1BE6D61696EA1BF6572726F723A455393
:100E00005038323636C1ACBDD3C8C8B5E3CAA7B076
:100E1000DCA3A10D0A0D0A00A1BE6D61696EA1BF20
:100E2000696E666F3AC7EBD6D8C6F4BFAAB7A2B050
:100E3000E50D0A00A1BE6D61696EA1BF6572726F9A
:100E4000723A45535038323636C1ACBDD3B0A2C029
:100E5000EFD4C6B7FECEF1C6F7CAA7B0DCA3A10D8A
:100E60000A0D0A00A1BE6D61696EA1BF6572726F45
:100E7000723A45535038323636B0A2C0EFD4C64D20
:100E8000515454B5C7C2BDCAA7B0DCA3A10D0A0D09
:100E90000A000000A1BE6D61696EA1BF6572726F2C
:100EA000723A45535038323636B0A2C0EFD4C64DF0
:100EB000515454B6A9D4C4D6F7CCE2CAA7B0DCA327
:100EC000A10D0A0D0A000000A1BE6D61696EA1BFEF
:100ED000696E666F3A4E6F7468696E670D0A0D0A27
:100EE0000000000072B6FEE770B506460A20B2FBAD
:100EF000F0F40D4602E00A2000F09EF82946304644
:100F0000FFF762F910B9641EA4B2F4D20CB101204B
:100F100070BD002070BD00002DE9F04700241E4682
:100F2000671E154688468146B2420DD33346224697
:100F30000849484601F05FFF06494046FFF75DF962
:100F400028B1641CAC42F1DB3846BDE8F08720468E
:100F5000FBE70000B818002010B590F8211000221F
:100F6000022905D00421816380F82020012010BDD2
:100F700001680B6823F00E030B6001680B6823F017
:100F800001030B6090F84030C46B012101FA03F3B8
:100F9000636080F8211080F82020104610BD00000A
:100FA00010B590F821100024022903D00421816398
:100FB00001243DE001680A6822F00E020A6001681F
:100FC0000A6822F001020A601A4A0168914201D1BE
:100FD000012121E0174A1432914201D110211BE076
:100FE000144A2832914201D1891515E0114A3C3248
:100FF000914201D189140FE00E4A5032914202D140
:101000004FF4803108E00B4A6432914202D14FF430
:10101000801101E04FF08071064A083A51600121C9
:1010200080F82110002180F82010416B01B1884721
:10103000204610BD0800024070B5044600F026F9B5
:101040000546601C02D004480078044400F01EF9F4
:10105000401BA042FAD370BD00000020102803D02E
:10106000202803D101F0DEB801F0C4B870470000B9
:10107000044910B50A68024202D00860FFF7EEFF8B
:1010800010BD0000140401402DE9F84FDFF8B891BD
:10109000002409F1040A0AF1040B23460F270BF17F
:1010A000040EC9E00125A5402A40AA427DD1674E21
:1010B000D1F804C0ACEB0608B44532D014DCBCF166
:1010C000030F3AD009DCBCF1000F2AD0BCF1010FAC
:1010D0001CD0BCF1020F31D11DE0BCF1110F17D0B3
:1010E000BCF1120F2AD119E0B8F5881F19D006DC1F
:1010F000B8F5803F15D0B8F5801F1FD111E0B8F5C5
:10110000001F0ED0B8F5041F18D10AE0CB6815E017
:10111000CB681B1D12E0CB6808330FE0CB680C33A3
:101120000CE08B682BB1012B4FF0080303D0456115
:1011300004E0042302E0056100E00023FF2A01D857
:10114000064601E000F104064FEA840501D9A5F145
:101150002005D6F8008007FA05FC28EA0C0803FAF7
:1011600005F548EA0508C6F800804D68ED0062D52F
:10117000374DAE6946F00106AE61AD6924F0030655
:1011800005F001050095334D06EB050CDCF8085021
:10119000A607360F07FA06F825EA0805DFF8B88033
:1011A000404503D14FF0000817E044E0DFF8AC8081
:1011B000404502D14FF001080FE0DFF8A480404520
:1011C00002D14FF0020808E0DFF89880404502D1D4
:1011D0004FF0030801E04FF0040808FA06F848EA67
:1011E0000508CCF808804D68D9F80060ED034D463D
:1011F00001D5164300E096432E604D68DAF8006092
:10120000AD03554601D5164300E096432E604D6868
:10121000DBF80060ED025D4601D5164300E0964321
:101220002E604D68DEF80060AD02754601D51643AC
:1012300000E096432E60641C0D682A46E5407FF46A
:1012400031AFBDE8F88F000000040140000011102C
:10125000001002400000014000080140000C014065
:1012600000100140001401408068084000D00120B7
:101270007047C26821EA02030A4043EA0241016161
:1012800070470AB1016170470904FBE701488068B3
:10129000704700000000002070B5040011D02168E4
:1012A0004CF6CC400860216845F255500860D4E9FE
:1012B000000141602168A0688860FFF7E7FF0546EC
:1012C0000DE0012070BD00BFFFF7E0FF401B2728A5
:1012D00005D92068C068800701D0032070BD206850
:1012E000C0688007F0D121684AF6AA200860002073
:1012F00070BD00684AF6AA21016000207047000016
:101300000248816802781144816070470000002023
:10131000074810B5016841F010010160032000F09A
:1013200075F8002000F006F800F024F8002010BD49
:101330000020024070B50D4D04464FF47A712878B4
:10134000B1FBF0F00A490968B1FBF0F000F027FCAE
:1013500048B9102C07D200222146501E00F036F862
:1013600000206C6070BD012070BD000000000020F6
:101370000C0000200C4808B5816941F00101816131
:10138000816901F001010091C16941F08051C161A1
:10139000C06900F0805000900448416821F0E0618D
:1013A00041F00071416008BD0010024000000140A2
:1013B000002809DB00F01F02012191404009800054
:1013C00000F1E020C0F8001170470000F0B40E4BAF
:1013D0001B680C46C3F30223C3F10705042D00D993
:1013E0000425191D072901D2002300E0DB1E012678
:1013F00006FA05F1491E214099409E40761E16408E
:101400003143F0BC01F0FABF0CED00E0064900F0FA
:10141000070208684FF6FF03184040EA0220034A1B
:1014200010430860704700000CED00E00000FA0572
:101430002DE9F0470F46050061D0434E306800F0BB
:101440000700B84209D2306820F007003843306006
:10145000306800F00700B84251D128683B4C810742
:1014600012D5400703D5606840F4E06060602878DA
:10147000000703D5606840F4605060606068A96848
:1014800020F0F000084360602878C00728D0686822
:10149000012810D02168022810D0890700292EDAEF
:1014A000616821F0030101436160FFF7EFFE8046B0
:1014B00041F288390DE021688903EFE78901EDE702
:1014C000FFF7E4FEA0EB0801494502D90320BDE87F
:1014D000F0876068696800F00C00B0EB810FEFD115
:1014E000306800F00700B8420BD9306820F00700E0
:1014F00038433060306800F00700B84201D0012066
:10150000E5E72878400705D56068E96820F4E060E1
:10151000084360602878000706D56068296920F4D0
:10152000605040EAC100606000F038F86168084A25
:10153000C1F30311515CC8400649086006480068C1
:10154000FFF7F8FE0020C2E7002002400010024032
:10155000E03F00080C00002004000020044805497A
:1015600000684968044AC1F30221515CC8407047D1
:101570000C00002000100240F03F0008044805491C
:1015800000684968044AC1F3C221515CC8407047F1
:101590000C00002000100240F03F000812A185B0AE
:1015A0000FC98DE80F0014A0144A00680490516818
:1015B000134801F00C03042B10D0082B0ED1C1F3FB
:1015C0008343C9031DF803000AD5516804AAC1F377
:1015D0004041515C0A4A5043B0FBF1F005B07047FE
:1015E00008494843FAE70000020304050607080912
:1015F0000A0B0C0D0E0F101001020000001002402B
:1016000000127A0000093D002DE9F84F040070D067
:101610002078C04DC00749D06868C0F38100012818
:1016200007D06868C0F38100022809D16868C00348
:1016300006D52868800339D560680028E7D035E0F2
:101640006068B0F5803F0BD010B1B0F5A02F11D07D
:10165000286820F480302860286820F4802002E088
:10166000286840F480302860606890B1FFF70EFE73
:1016700006460AE0286840F480202860F0E700BFB2
:10168000FFF704FE801B642873D828688003F7D511
:101690000CE0FFF7FBFD064605E000BFFFF7F6FD97
:1016A000801B6428F0D828688003F7D420789A4EED
:1016B00080074FF001094FF0000839D5686810F035
:1016C0000C0F07D06868C0F38100022809D1686850
:1016D000C00306D42868800714D52069012808D1E2
:1016E00010E02069B0B1C6F80090FFF7CFFD0746C3
:1016F00005E00AE1FFF7CAFDC01B0228C4D828682C
:101700008007F7D52868616920F0F80040EAC10039
:1017100028600DE0C6F80080FFF7B8FD074604E03A
:10172000FFF7B4FDC01B022823D828688007F7D430
:10173000207800072CD57948A169D9B1C0F800906C
:10174000FFF7A4FD074604E0FFF7A0FDC01B022839
:101750000FD8686A8007F7D571484FF4FA510068CE
:10176000B0FBF1F0009000BF0098411E0091FAD24A
:101770000EE080E0C0F80080FFF788FD074604E037
:10178000FFF784FDC01B022875D8686A8007F7D46C
:101790002078400760D5E8690027C00008D4E869D0
:1017A00040F08050E861E869012700F08050009027
:1017B0005C480168C90513D40168834641F480710F
:1017C0000160FFF763FD824606E000BFFFF75EFDA4
:1017D000A0EB0A0064284ED8DBF80000C005F5D560
:1017E000E06801280AD008B1052813D0286A20F043
:1017F00001002862286A20F0040002E0286A40F014
:1018000001002862E06841F2883B98B1FFF73EFD95
:1018100082460BE0286A40F004002862EEE700BF31
:10182000FFF734FDA0EB0A0159455AD8286A800712
:10183000F6D50CE0FFF72AFD824605E0FFF726FD0E
:10184000A0EB0A0159454CD8286A8007F6D41FB18D
:10185000E86920F08050E861E06988B36968C1F305
:101860008101022944D00228C6F8608004D0FFF725
:101870000DFD044638E034E0FFF708FD074604E0BC
:10188000FFF704FDC01B02282BD828688001F7D47D
:10189000206AB0F5803F05D16868A16820F4003067
:1018A00008436860D4E908010843696821F47411A9
:1018B00008436860C6F86090FFF7E8FC044606E05D
:1018C00025E000BFFFF7E2FC001B022809D82868CA
:1018D0008001F7D51BE000BFFFF7D8FC001B0228F2
:1018E00002D90320BDE8F88F28688001F4D40EE007
:1018F0000128F7D06868226A00F48031914204D14F
:10190000616A00F47010884201D00120EAE70020EB
:10191000E8E700000010024000004242800442421A
:101920000C0000200070004070B5040009D0606A0F
:10193000002540B125616561A56294F8510040B170
:101940000CE0012070BD6068B0F5827FF4D0E561E5
:10195000F2E784F85050204600F040F8022084F866
:1019600051002068016821F040010160A0882189B0
:1019700000F4827001F404410843A18901F400617C
:101980000843217C01F002010843217D01F001019F
:101990000843218B01F400710843217F01F03801D5
:1019A000084394F8201001F080010843218D01F4D0
:1019B0000051084321680860A069042101EA104031
:1019C000216848602068C16921F40061C1616565D2
:1019D000012084F85100002070BD000000B585B0E2
:1019E0000021009101910291039100680F49884202
:1019F0001AD10F48816941F480518161816901F4F4
:101A000080510491816941F00401816180696946D6
:101A100000F004000490A020009002200190032018
:101A200003900448FFF730FB05B000BD00300140D3
:101A300000100240000801402DE9F84F044690F8DC
:101A4000500000271D461646894601280DD04FF04C
:101A5000010B84F850B0FFF719FC804694F8510050
:101A6000BA46012804D0022793E00220BDE8F88F8F
:101A7000B9F1000F73D0002E71D0032084F851000B
:101A8000C4F854A0C4F83090A686E686C4F838A0FE
:101A9000A4F83CA0A4F83EA0C4F844A0C4F840A018
:101AA000A068B0F5004F09D12068016821F040011D
:101AB00001602068016841F480410160206801688C
:101AC000490603D4016841F040010160E068B0F5C7
:101AD000006F606803D030B3012E24D041E008B11C
:101AE000012E1CD1206B21680088C86006E02068A8
:101AF0008168890709D5216B0988C160206B801C2A
:101B00002063E08E401EE08609E0FFF7BFFBA0EBFC
:101B10000800A84202D3681C01D031E07DB3E08EFA
:101B20000028E4D120E0206B21680078087306E0EB
:101B300020688168890709D5216B09780173206BBA
:101B4000401C2063E08E401EE0860AE0FFF79EFB0B
:101B5000A0EB0800A84203D3681C02D010E017E0F5
:101B60006DB1E08E0028E3D142462946204601F0BF
:101B70004EF908B120206065A06818B106E0FFE7C3
:101B8000032706E02068C16880680090606D00B19E
:101B9000012784F851B084F850A0384666E710B5A4
:101BA000401EB0F1807F01D3012010BD4FF0E02432
:101BB00060610F21601701F021FC0020A061072067
:101BC0002061002010BD000070B590F83C20012A73
:101BD00026D0012480F83C40022280F83D20036892
:101BE0005A689D6822F070060A6832435A600D4BAD
:101BF00002689A4208D0B2F1804F05D00A4B9A424F
:101C000002D00A4B9A4204D1496825F08003194357
:101C1000916080F83D40002180F83C10084670BD7E
:101C2000022070BD002C014000040040000800406C
:101C300010B5040003D094F83D0010B107E0012076
:101C400010BD002084F83C00204600F01FF8022060
:101C500084F83D00211D206801F00EFA012084F86F
:101C6000460084F83E0084F83F0084F8400084F881
:101C7000410084F8420084F8430084F8440084F86A
:101C8000450084F83D00002010BD000008B5006844
:101C90000649884208D10648816941F400618161A2
:101CA000806900F40060009008BD0000002C014035
:101CB0000010024070B5044690F83C00012817D08F
:101CC000012584F83C50022084F83D002068826899
:101CD00022F0770222F47F4282600868502830D0D8
:101CE0000DDC20284DD005DC98B310283BD148E00E
:101CF000022070BD302844D0402834D139E060281B
:101D000028D0702806D0B0F5805F2CD0B0F5005FE9
:101D100029D10AE0CB68D1E90121206801F0E2F97C
:101D20002068816841F0770109E0CB68D1E90121A1
:101D3000206801F0D7F92068816841F48041816012
:101D400011E0CA684968206801F0DEF95021206876
:101D500007E016E0CA684968206801F0E6F96021EA
:101D6000206801F0C9F984F83D50002084F83C0057
:101D700070BDCA684968206801F0C6F94021206832
:101D8000EFE7226801461046EBE770477047000016
:101D9000F8B5026804461068D168536910F00F0F57
:101DA0004FF0000554D003F0010601F4907737435B
:101DB0005FD0C20705D0CA0503D5226C42F00102EC
:101DC0002264420705D5DA0703D0226C42F00202F2
:101DD0002264820705D5DA0703D0226C42F00402A0
:101DE0002264020707D501F02002324303D0226C9F
:101DF00042F008022264226C002A35D0800604D505
:101E0000880602D5204601F0C2F920684069216C9D
:101E1000C0F3801001F008010143204625D001F0F5
:101E20009EF92068416949061BD5416921F04001AE
:101E30004161A06BA8B158494163A06BFFF7B0F8AE
:101E4000002811D0A06B416B01B0BDE8F0400847FD
:101E500083060ED58B060CD52046BDE8F84001F070
:101E600096B92046FFF792FFF8BDFFF78FFF256474
:101E7000F8BD266B2023012E52D1C60650D5CE06C2
:101E80004ED5106850680090506940062AD5A16B65
:101E9000086840680004000CEAD0A68D8642E7D9A5
:101EA000E0858869202818D0D06820F48070D06040
:101EB0002068416921F0010141612068416921F0F8
:101EC0004001416184F83E3025632068C16821F0FB
:101ED0001001C160A06BFFF73FF8A08DE18D401AA3
:101EE00081B219E0A08DE18D401A81B2E08D002809
:101EF000BED00029BCD0D06820F49070D06020689B
:101F0000426922F00102426184F83E302563206874
:101F1000C26822F01002C2602046FFF736FFF8BD0B
:101F200005062BD50D0629D594F83D002128F6D1BC
:101F3000A068B0F5805F01D12069B0B1206A411C72
:101F40002162216800784860E08C401E0004000C8B
:101F5000E084E4D12068C16821F08001C16020687C
:101F6000C16841F04001C160F8BD206A0088C0F33B
:101F700008005060206A801C2062E5E74006F3D527
:101F80004806F1D5D168204621F04001D16084F89F
:101F90003D3000F02CF9F8BD4F31000870B5040059
:101FA00004D094F83D00002510B106E0012070BD7A
:101FB00084F83C50204600F023F8242084F83D00AB
:101FC0002068C16821F40051C160204601F03AF94F
:101FD0002068016921F4904101612068416921F084
:101FE0002A0141612068C16841F40051C160256443
:101FF000202084F83D0084F83E00002070BD0000E1
:1020000070B586B0002400940194029403942E4E7F
:1020100003682E49022003222D4DB34226D18B693D
:1020200043F480438B618B6903F4804304938B6991
:1020300043F004038B618969039201F00401049168
:102040000102CDE9001069462846FFF71DF8281562
:10205000CDE90004694628460294FFF715F80022EE
:1020600003212520FFF7B2F9252028E0194EB342BD
:1020700027D1CB6943F40033CB61CB6903F4003340
:1020800004938B6943F004038B618969039201F027
:10209000040104910421CDE9001069462846FEF7A9
:1020A000F3FF0820CDE90004694628460294FEF7B4
:1020B000EBFF002203212620FFF788F92620FFF7F7
:1020C00077F906B070BD00000038014000100240F2
:1020D000000801400044004090F83E30202B0ED113
:1020E00059B152B190F83C30012B08D0012380F84F
:1020F0003C300023036301F001B901207047022046
:10210000704700000068084988420CD10748094917
:10211000074B027808781A54401C087001220349C2
:102120000548FFF7D9BF7047003801404C16002022
:10213000561E00204D160020041700202DE9F843FC
:10214000044690F83D001F4616460D4620284CD107
:10215000C5B1BEB194F83C00012846D0012084F8F6
:102160003C004FF00008C4F84080212084F83D0076
:10217000FFF78CF8A6848146E684A068B0F5805FFE
:1021800003D004E00120BDE8F883206928B12E4681
:102190005FF0000584F83C800EE00026FAE780211D
:1021A000204601F0C6F8A0B9AEB116F8010B2168BF
:1021B0004860E08C401EE084E08C4B464FF000020B
:1021C00000970028EBD14FF04001204601F0B1F814
:1021D00030B10320D7E735F8020BC0F30800E6E77B
:1021E000202084F83D000020CDE70220CBE7704797
:1021F000FEE7000010B503A001F0DCF8BDE81040D8
:10220000FEF7DCBAA1BE6D61696EA1BF646562753F
:10221000673ACED2B0B4CFC2C1CB4B45595F310D76
:102220000A0D0A0001A001F0C5B80000A1BE6D6151
:10223000696EA1BF64656275673ACED2B0B4CFC291
:10224000C1CB4B45595F320D0A0D0A002DE9F74FFE
:1022500092468346FDF7CAFF07460198FDF7C6FF81
:1022600006465046FDF7C2FF764C002205466280C6
:10227000B819618828444FF0100C734B03EB010828
:10228000491C618088F800C01030C11700EB516113
:1022900021F07F0CA0EB0C0000F0FF0CC81100280F
:1022A00001DD4CF0800C618803EB010801F10101B4
:1022B000618088F800C0E8DC6188994618460B44C4
:1022C00001F1010161801A7061884FF0040800EB90
:1022D000010301F10101618083F8008061884FF002
:1022E0004D0300EB010C01F1010161808CF800301D
:1022F00061884FF0510300EB010C01F10101618095
:102300008CF8003061884FF0540300EB010C01F1B0
:10231000010161808CF80030618800EB010C01F153
:10232000010161808CF80030618800EB010301F14C
:102330000101618083F8008061884FF0C20300EBE7
:10234000010C01F1010161808CF80030618800EB23
:10235000010301F1010161801A7061884FF03C02B4
:1023600000EB010301F1010161801A7061884FEAFD
:10237000172200EB010301F1010161801A706188ED
:1023800000EB010201F101016180177061883A469A
:1023900009EB01005946FDF7E7FE6088384460808C
:1023A000002E15DD6088320A09EB0003401C6080B6
:1023B0001A70608809EB0002401C6080167060880B
:1023C000324648440199FDF7CFFE60883044608072
:1023D000002D15DD60882A0A09EB0003401C60808F
:1023E0001A70608809EB0002401C608015706088DC
:1023F0002A4648445146FDF7B7FE6088284460806D
:10240000124F01264FF4007841461048FDF7C5FEF3
:1024100061880D4800F090F81D253878202802D1F9
:10242000787802280BD06420FEF706FE6D1EEDB210
:10243000F3D23046761EF6B2E6D2BDE8FE8F01201A
:10244000FBE7000048160020561D0020561E002005
:102450002DE9F04790468A468146FDF7C7FE0646BD
:102460005046FDF7C3FE324C074600206080B8F1AD
:10247000000F06EB070001D0001D00E0801C618802
:1024800030222C4D6B18491C61801A70C11700EB6B
:10249000516121F07F02801AC2B2C811002801DD0B
:1024A00042F08002618805EB010301F101016180C6
:1024B0001A70EBDC60884FEA162105EB000200F190
:1024C000010060801170608805EB000100F10100DF
:1024D00060800E706088324628444946FDF744FE0D
:1024E000608830446080B8F1000F0FD010496088D8
:1024F0004A782B18401C60801A70097860882A1866
:10250000401C608011702088401C208060883A4602
:1025100028445146FDF728FE608838446080618871
:10252000044800F009F86088C0B2BDE8F0870000F8
:1025300048160020561D0020FEF772BA02210148FD
:10254000FFF7FABFBA5700082DE9F047464C4FF0A5
:102550000008174689468246A4F80280FDF746FE29
:10256000424D0646002F02D04FF0010001E04FF02F
:102570000000304400F1040002D04FF0820201E07C
:102580004FF0A202618805EB010301F101016180B6
:1025900083F800204FEAE07100EB516121F07F02E7
:1025A000A0EB0200C2B24FEAE110002801DD42F0C8
:1025B0008002618805EB010301F1010161801A705D
:1025C000E8DC608805EB000100F10100608081F823
:1025D000008060884FF0010105EB000200F101006E
:1025E0006080117060884FEA162105EB000200F14F
:1025F000010060801170608805EB000100F10100AE
:1026000060800E706088324628445146FDF7ACFD6C
:102610006088304460802FB160882A18401C608038
:1026200082F80090124F01254FF40078414610487F
:10263000FDF7B3FD61880D48FFF77EFF1D26387852
:10264000902802D17878032809D06420FEF7F4FCA2
:10265000761EF6B2F3D26D1EEDB2E7D215B10120AF
:10266000BDE8F0870020FBE748160020561D00203B
:10267000561E002070B5D6B00E46044615462821D9
:102680004BA8FDF78AFD00234BA9701BC2182244FA
:1026900012F8232CCA545B1C242BF7DB07A16846D5
:1026A000FDF7B9FD4BA96846FDF782FD00220CA19C
:1026B0006846FFF7CDFE56B070BD000024737973F5
:1026C0002F3535353333392F64657669636530319D
:1026D0002F636D642F726573706F6E73652F0000CA
:1026E0004F4B00002DE9F04385B000253B48009595
:1026F000019502950395816941F01001816181691D
:1027000001F010010491816941F02001816181692A
:1027100001F020010491816941F004018161816926
:1027200001F004010491816941F00801816180692F
:10273000012200F008002A4F540304902146384635
:10274000FEF79FFDDFF89C80002253214046FEF7F4
:1027500098FDDFF89490012208214846FEF791FD8C
:10276000009401AA0124022682E8700069463846D6
:10277000FEF78AFC0320CDE90260009469460194CB
:102780004046FEF781FC52208DE8710069464046C4
:10279000FEF77AFC08208DE8710069464846FEF78E
:1027A00073FC302000901148CDE901046946484689
:1027B000FEF76AFC002205210A20FEF707FE0A2028
:1027C000FEF7F6FD002205211720FEF7FFFD17207A
:1027D000FEF7EEFD05B0BDE8F083000000100240FA
:1027E0000010014000080140000C014000001110E1
:1027F000094810B5074901600621416040F6FE71A5
:102800008160FEF749FD002803D0BDE81040FEF7C7
:1028100069BB10BD0030004058160020104810B5AC
:102820000E4901604FF48271416000218160C160F6
:102830004FF400720161C0E905120822C0E90721C6
:10284000416281620A21C162FFF76EF8002803D05D
:10285000BDE81040FEF746BB10BD0000003001404F
:102860006416002010B586B0002417480094019427
:102870000294039404941349059401600621C0E96D
:1028800001144FF6FF71C0E9031444618461FFF73E
:10289000CFF908B1FEF726FB4FF48050009069464F
:1028A0000948FFF707FA08B1FEF71CFB049404A9D6
:1028B00005480594FFF788F9002801D0FEF712FBC0
:1028C00006B010BD002C0140BC1600200C4810B50D
:1028D0000A4901604FF4E1314160002181600C221E
:1028E000C160C0E904128161C161FFF757FB002894
:1028F00003D0BDE81040FEF7F5BA10BD0038014026
:10290000041700200C4810B50A4901604FF4E1316A
:102910004160002181600C22C160C0E90412816124
:10292000C161FFF73BFB002803D0BDE81040FEF774
:10293000D9BA10BD004400404817002010B500214E
:1029400010230B22084600F0A3F910230C220021CB
:10295000184600F09DF910230D220021202000F0E0
:1029600097F910230E220021302000F091F9102356
:102970000F220021402000F08BF910231A4600217D
:10298000502000F085F910231A220021702000F059
:102990007FF9102311221946002000F079F9102345
:1029A00012221946184600F073F910231CA219468A
:1029B000202000F0D9F9102313222021002000F05C
:1029C00067F9102314222021184600F061F9202114
:1029D000102313A2084600F0C7F910231522302156
:1029E000002000F055F9102316223021184600F07F
:1029F0004FF9102317223021202000F049F930210F
:102A0000102307A2084600F0AFF910231922302145
:102A1000382000F03DF9BDE8104000F0BFB80000DC
:102A20003A000000FEE7FEE730B40021084B0A46FA
:102A30005FF0000003EBC004401CC0B26254802869
:102A4000F8D3491CC9B20829F2D330BC00F0A6B8AB
:102A5000D6180020CA0801F0070301219940044B51
:102A600003EBC003985C61EA0000C04398547047D0
:102A7000D6180020CA0801F0070301219940034B32
:102A800003EBC000835C0B4383547047D6180020CF
:102A900010B5414C002202212046FEF7F2FBC8206F
:102AA000FEF7CAFA012202212046FEF7EAFB0021C6
:102AB000AE2000F079F90021084600F075F90021F8
:102AC000102000F071F90021402000F06DF9002184
:102AD000812000F069F90021CF2000F065F9002184
:102AE000A12000F061F90021C82000F05DF900216B
:102AF000A62000F059F90021A82000F055F9002186
:102B00003F2000F051F90021D32000F04DF90021C1
:102B1000084600F049F90021D52000F045F90021D0
:102B2000802000F041F90021D92000F03DF900217A
:102B3000F12000F039F90021DA2000F035F9002108
:102B4000122000F031F90021DB2000F02DF90021E6
:102B5000402000F029F90021202000F025F9002173
:102B6000022000F021F900218D2000F01DF9002144
:102B7000142000F019F90021A42000F015F900211B
:102B8000A62000F011F90021AF2000F00DF9BDE8FA
:102B90001040FFF749BF00000008014070B5114E1A
:102BA000002400BF04F1B000C0B2002100F0FCF826
:102BB0000021084600F0F8F80021102000F0F4F899
:102BC0005FF0000506EBC5000121005D00F0ECF8A8
:102BD0006D1CEDB2802DF5D3641CE4B2082CE1D35A
:102BE00070BD0000D61800202DE9FF4F1D460C4691
:102BF0008946580700D0012000EBD50069084843FA
:102C0000203A00F0FF0A02F0FF0B002635E00C2D01
:102C100012D0102D14D0182D31D11A490BEBCB0046
:102C200001EB80004FF00008875D214638060098D0
:102C30000AD5FFF71FFF09E00BEB4B001249EFE746
:102C4000124901EB0B10EDE7FFF704FF7806641C57
:102C5000070EE4B2A4EB0900A84205D100984C4647
:102C6000401CC0B2009006E008F1010000F0FF082F
:102C7000B8F1080FD9D3761CF6B25645C7D3BDE8D4
:102C8000FF8F00005C4A0008F83F00086C44000811
:102C90002DE9FF4F83B081460020CDE901091C4694
:102CA00088468B464FEAD30A50E005980199604365
:102CB00001EBD000C0B20090481CC0B200250190CA
:102CC00042E0102C12D0182C15D0202C1AD0402CF9
:102CD00041D12249009801EB40200027465D414642
:102CE000F007484614D0FFF7C5FE13E01C490098D2
:102CF00001EB0010F1E700981A4900EBC00001EB6E
:102D0000C000EAE717490098D83101EBC010E4E7AA
:102D1000FFF7A0FE7F1C760808F10100FFB200F06B
:102D2000FF08082FDBD309F10100029900F0FF0929
:102D3000A9EB0100A04204D10BF10800894600F084
:102D4000FF0B6D1CD846EDB2A542BAD3BAF1010112
:102D500001F0FF0AA9D207B0BDE8F08F48060020B5
:102D600010000020700300202DE9F0411E4615469A
:102D700088460446C3F180070FE0334641462046AB
:102D8000FFF732FF04EB5600C4B2A74204DA08EBA7
:102D90000600022400F0FF086D1C2A78A2F1200032
:102DA0005E28EAD9BDE8F08173B5104D6C4609B1D3
:102DB000012200E0002210212846FEF762FA0022DC
:102DC00040212846FEF75DFAC82301222146084823
:102DD000FEF732FE012240212846FEF752FA012278
:102DE00010212846FEF74DFA7CBD00000008014086
:102DF00064160020704730B5002403E01519455DC6
:102E00000D55641C9C42F9DB0020085530BD38B5D7
:102E10000B46009204460022802100F009F80028A9
:102E200004D0606D40F020006065032038BD0000D4
:102E30002DE9F8431E46914688460446089DFEF754
:102E400025FA401B351AFEF721FA07462548006887
:102E5000C0F3CB30684338E0701C37D0FEF716FA69
:102E6000C01BA84203D215B1009860B32CE02068C3
:102E7000416821F0E00141606068B0F5827F0BD1CC
:102E8000A068B0F5004F02D0B0F5806F04D1206883
:102E9000016821F040010160A06AB0F5005F09D12E
:102EA0002068016821F4005101602068016841F444
:102EB00000510160012084F85100002084F8500086
:102EC0000320BDE8F8830025401E0090206881683B
:102ED00038EA010004D000214945BDD10020F0E7C7
:102EE0000121F9E70C00002070B586B0002404A988
:102EF00003A800F071FF80B3641CE4B20A2CF6D37F
:102F00004FF400512948FEF7AFF904004FF01003C9
:102F100048D0192230213820FFF7BAFEFFF73EFED5
:102F20009DF81000FDF780F905460E469DF80C004F
:102F3000FDF77AF9002C37D000220095CDE9016227
:102F400002460B461A491B4800F044FA0022194970
:102F500019A0FFF77DFA06B070BDFFE79DF80C20C1
:102F60001EA1684600F036FA10236A46194628204A
:102F7000FFF7FAFEFFF712FE9DF8102017A1684632
:102F800000F028FA10236A4620212820FFF7ECFEE3
:102F9000FFF704FE9DF810209DF80C1010A000F023
:102FA00009FAADE71822B5E70122C6E70010014093
:102FB000385800088C170020247379732F35353565
:102FC0003333392F64657669636530312F64702F30
:102FD000706F73742F6A736F6E0000002533640086
:102FE000A1BE6D61696EA1BF696E666F3A74656D51
:102FF00070657261747572653D25642C68756D69C4
:10300000646974793D2564200A0D0A007047FEF753
:1030100077B930B58FB028216846FDF7BEF8142186
:103020000AA8FDF7BAF80920012100904FF480307A
:10303000002404910691CDE901040225CDE9075051
:103040004FF4E01009906846FEF7DEFA08B172B658
:10305000FEE70F20CDE90A054FF48060CDE90C4072
:1030600002210AA80E94FEF7E3F9002801D072B6F7
:10307000FEE70FB030BD7047F0B50268164B174C35
:10308000174D4FF08047984205D0B84203D0A04278
:1030900001D0A84203D122F070064A683243984218
:1030A00005D0B84203D0A04201D0A84203D122F4F7
:1030B0004074CA6822434C6922F0800222430260B5
:1030C0008A68C2620A688262984201D10969016312
:1030D00001214161F0BD0000002C014000040040CE
:1030E0000008004010B5846842EA032224F47F44BB
:1030F0000A432243826010BD826822F070020A43B4
:1031000042F007018160704710B5036A046A24F039
:1031100001040462846924F0F00444EA021423F0F8
:103120000A020A438461026210BD10B5036A23F0EB
:10313000100303628369046A23F4704343EA023292
:1031400024F0A00343EA01118261016210BD10B5B1
:10315000406A0021C185C184FEF718FE10BD0168D8
:10316000CA6822F49072CA6001684A6922F00102BA
:103170004A61016B012904D10168CA6822F010027A
:10318000CA60202180F83E1000210163704708B515
:1031900090F83E10222901D0022008BD82684FF429
:1031A00080539A4201D1016921B1816A9A421BD0B0
:1031B0004AB10AE00268816A5268C2F308020A80D2
:1031C000816A891C08E0026972B10268526802F0E3
:1031D0007F020A70816A491C8162C18D491E0904FF
:1031E000090CC18503D019E002685268F1E7016853
:1031F000CA6822F02002CA600168CA6822F480729C
:10320000CA6001684A6922F001024A61202180F8FF
:103210003E10016B012903D0FEF774FF002008BDAA
:10322000002101630168CA6822F01002CA600168C7
:103230000A68D20602D50A6849680091818DFEF7B6
:10324000A4FDEBE770B5044600680169E26821F46B
:103250004051114301612169A06808436169084335
:103260002168CA6841F20C639A430243CA6020682D
:103270004169A26921F44071114341611E492068EE
:10328000884202D1FEF77AF901E0FEF767F900EB18
:10329000C00101EB0012606864218000B2FBF0F312
:1032A000B3FBF1F36FF018067343B2FBF0F5B2FB1A
:1032B000F0F605EB8305322303EB0515B5FBF1F5BD
:1032C000B6FBF1F605F0F00505EB0615B2FBF0F6DE
:1032D000B2FBF0F0B0FBF1F06FF01802504306EBD8
:1032E000800003EB0010B0FBF1F0216800F00F004C
:1032F0002844886070BD00000038014081628285EA
:10330000C28500210164222280F83E2080F83C1012
:103310000168CA6842F48072CA6001684A6942F072
:1033200001024A610068C16841F02001C1600020CB
:1033300070472DE9F041984617460E460446069D13
:103340001DE0681C1BD02DB1FDF7A0FFA0EB08000D
:10335000A84214D92068C16821F4D071C1602068E6
:10336000416921F001014161202084F83D0084F889
:103370003E00002084F83C000320BDE8F081206876
:10338000006836EA000004D00020B842D9D00020FE
:10339000F3E70120F9E700000148FEF7F9BC00005F
:1033A000041700200148FEF7F3BC00004817002076
:1033B000FEE700000FB4054B10B503A9044A0298BC
:1033C00000F0EEF810BC5DF814FB0000F13D0008C1
:1033D000541600200FB4084B10B504A902AA039894
:1033E00000F0DEF8044602A9002000F070FC204640
:1033F00010BC5DF814FB0000CF3C00080907090E63
:10340000002804DB00F1E02080F80014704700F091
:103410000F0000F1E02080F8141D704702E008C89A
:10342000121F08C1002AFAD170477047002001E03E
:1034300001C1121F002AFBD1704700002DE9FF5F78
:10344000DDE90220010DDDF838B0024318D044F662
:103450001050A1F2FF3141430D140F98012820D0E4
:10346000A5EB0B00401C5FEA000A4FF00004474E3A
:10347000DFF81C91A046504616D5CAF1000728E097
:103480000F98012443A2012808D0002100980F9B27
:10349000C0E90021C0E90243BDE8FF9F6FEA0B01CC
:1034A000F4E7CBF10000DEE7074612E0F80707D0AB
:1034B0002246334640464946FDF70EF88046894687
:1034C0002246334610461946FDF706F804460E46D6
:1034D0007F10002FEAD1DDE90201BAF1000F424668
:1034E0004B4602DAFCF7F8FF01E0FDF767F8044607
:1034F0000E460022284BFDF7E9F803D84FF0FF30C5
:10350000014607E00022254B20463146FCF73DFFEF
:10351000FDF7C3F8102409E0002C0ADB0A2200237F
:10352000FCF7A5FE019B30321A55641E50EA0102D9
:10353000F2D1641C019AC4F1110314440F9A012AB8
:1035400003D0012208430DD10AE0084304D0002033
:103550004FF0110B0F9080E7A3EB0B056D1E0DE0F4
:103560005B4504DD4FF0000205F1010504E003DADC
:103570004FF00002A5F10105002AECD000980F9948
:10358000C0E90231C0E9004586E7000000002440A0
:103590000000F03F300000000000F0430000E03F7A
:1035A0002DE9FF4F95B09B468946064600250FE260
:1035B000252877D100242746F84A0121059400E008
:1035C000044316F8013F203B01FA03F01042F7D103
:1035D00030782A2811D06FF02F033078A0F1300214
:1035E000092A16D8059A44F0020402EB820203EB82
:1035F00042021044761C0590EFE759F8042B05921F
:10360000002A03DA504244F40054059044F00204C6
:10361000761C30782E2816D116F8010F44F00404D9
:103620002A280DD06FF02F023078A0F13003092B3B
:1036300009D807EB870302EB4303C718761CF3E7AF
:1036400059F8047B761C30786C280FD006DC4C28A7
:1036500017D068280DD06A2814D104E0742810D03F
:103660007A280FD10DE044F400140AE044F48014E9
:1036700001E044F440147278824202D104F58014CF
:10368000761C761C307866280BD013DC582877D04F
:1036900009DC002875D04528F6D04628F4D0472804
:1036A0001AD19DE118E0632835D0642879D06528C7
:1036B00012D195E1702873D008DC6728F1D0692811
:1036C0006FD06E280DD06F2806D1B5E073282CD0AE
:1036D000752875D0782874D05A46179990476D1C74
:1036E00075E1C4F30250022809D003280DD0D9F89F
:1036F000001004280DD00D6009F1040967E1D9F824
:103700000010EA17C1E90052F6E7D9F800100D8061
:10371000F2E70D70F0E719F8041B8DF80010002097
:103720008DF80100EA46012003E059F804AB4FF0A0
:10373000FF3061074FF0000102D40DE008F10101F4
:103740008846B9420FDA8045F8DB1AF808100029DC
:10375000F4D108E008F1010188468142FADB1AF849
:1037600008100029F6D105985B46A0EB0807214612
:103770003846179A00F094FA284400EB080507E051
:103780004DE029E10DE01AF8010B5A4617999047D0
:10379000B8F10108F7D25B4621463846179A13E183
:1037A00042E00A220092C4F302524FF0000A022AB9
:1037B00008D059F804CB032A4FEAEC710AD00DE087
:1037C00029E02AE009F1070121F00702F2E802C12D
:1037D000914609E00FFA8CFC4FEAEC71042A03D100
:1037E0004FFA8CFC4FEAEC71002907DA0A460021F7
:1037F000DCF1000C61EB02012D2202E0220504D570
:103800002B228DF80420012203E0E20701D02022C0
:10381000F7E7904659E00A2102E010220DE010215E
:103820004FF0000A00910BE010224FF0000A44F024
:1038300004040827009203E008224FF0000A0092D7
:10384000C4F30252022A05D059F804CB0021032AFE
:1038500008D009E009F1070121F00702F2E802C1EE
:10386000914605E01FFA8CFC042A01D10CF0FF0CF4
:103870004FF00008220728D5702806D0009B83F05F
:10388000100353EA0A0305D00EE040228DF804200D
:10389000012208E05CEA010206D030228DF8042003
:1038A0008DF8050002229046009B83F0080353EA3E
:1038B0000A030AD15CEA010201D1620705D5302270
:1038C0008DF804204FF001087F1E582804D034A042
:1038D00003900EA802900DE036A0F9E7534660462B
:1038E000009AFCF7C4FC84460398825C0298401E50
:1038F000029002705CEA0100F0D1029806A9081A51
:1039000000F1200A600702D524F4803400E001278A
:10391000574502DDA7EB0A0000E0002000EB0A019A
:10392000009005984144401A0590E00306D45B4698
:103930002146179A059800F0B3F90544002706E0E0
:1039400001A85A46C05D179990476D1C7F1C4745DA
:10395000F6DBE0030CD55B462146179A059800F08C
:103960009FF9054404E030205A46179990476D1C92
:103970000099481E00900029F5DC08E002980299A1
:103980005A460078491C0291179990476D1CBAF16C
:103990000001AAF1010AF1DC65E10000092801003B
:1039A00030313233343536373839616263646566B5
:1039B0000000000030313233343536373839414277
:1039C000434445460000000000F058F90544761CC9
:1039D000307800287FF4ECAD19B02846BDE8F08FB0
:1039E000620700D4062709F1070222F0070CFCE861
:1039F0000223E14603F000485FEA080C02D00FF210
:103A0000702C0DE05FEA045C02D50FF2682C07E031
:103A10005FEAC47C02D00FF2602C01E0AFF2700CC0
:103A20004FF0FF3823F00043CDF850C065280CD08C
:103A300006DC452809D046281DD047283DD13DE069
:103A4000662818D067287ED138E00021112F01DBCD
:103A5000112000E0781CCDE9000106A90EA8FFF7AF
:103A6000EDFCDDE90F010E9A03910021009207F1B0
:103A7000010A04914DE04FF000400097CDE901109C
:103A800006A90EA8FFF7DAFCDDE90F0203920E9BF0
:103A900011990022DDF80CA00093049211B9791C51
:103AA00000EB010AB7EB0A0004D4C0F1FF3007F1C4
:103AB000010A0490AAEB0700019044E0012F00DA0C
:103AC00001270021112F01DD112000E03846CDE94A
:103AD000000106A90EA8FFF7B1FCDDE90F010E9A5F
:103AE0000391002104910092BA4621070CD4039956
:103AF000514500DA8A46BAF1010F05DD009AAAF1B4
:103B00000101515C302908D0B84202DA10F1040FEB
:103B100006DA0121CDE9011015E0AAF10101E9E77A
:103B2000002805DC049901440491AAEB000102E09D
:103B3000411C514500DD8A460499401A401C019001
:103B40004FF000400290200704D40198504501DB5B
:103B5000CDF8048000208DF84F0002980DF14F073A
:103B6000B0F1004F25D02B200E9002984FF00208A4
:103B700000280CDA404202902D200E9007E00A2126
:103B80000298FCF75EFB3031029007F8011DB8F196
:103B90000001A8F10108F2DC02980028EFD1791E9B
:103BA0000E980870307800F0200040F0450007F8CB
:103BB000020D12A8C01B00F107081498007800B18C
:103BC000012000EB0A01019801EBE07105984144E6
:103BD000401A401E0590E00306D45B462146179A22
:103BE000059800F05DF805441498007818B15A461D
:103BF000179990476D1CE00324D55B462146179A20
:103C0000059800F04DF805441CE00498002807DBF7
:103C1000DDE90301884203DD0098405C179901E06B
:103C2000179930205A469047049805F10105401C29
:103C300004900198401E019004D12E205A461799F5
:103C400090476D1CBAF10001AAF1010ADDDC05E024
:103C500017F8010B5A46179990476D1CB8F10001EF
:103C6000A8F10108F4DC5B462146179A0598ABE6FB
:103C70002D0000002B000000200000002DE9F04185
:103C8000044600251E461746880404D405E039463C
:103C90002020B0476D1C641EF9D52846BDE8F08190
:103CA0002DE9F041044600251E469046C80301D583
:103CB000302700E02027880404D505E04146384637
:103CC000B0476D1C641EF9D52846BDE8F0810A682E
:103CD000531C0B6010707047F0B5ADF5017D0746C1
:103CE0000D4600246E4608E0385D305531196423D6
:103CF00001222348FEF722FA641CAC42F4DB4FF4A5
:103D000000712048FCF749FA1F4900200870294635
:103D10001EA0FFF74FFB701910F8011C31B910F805
:103D2000020CD02802D12448FDF7E3FA09232A46E1
:103D300022A16846FDF7F0F8234E4FF40054002806
:103D400009DD002221463046FDF79BFA092229466B
:103D50006846FEF78FFC0A232A461CA16846FDF739
:103D6000DBF8002809DD012221463046FDF789FAFB
:103D70000A2229466846FEF77DFC0DF5017DF0BD5F
:103D800048170020561E00204D160020A1BE6D6170
:103D9000696EA1BF696E666F3A4D515454CAD5B56C
:103DA000BDCFFBCFA22CCAFDBEDDB3A4B6C83D2556
:103DB00064200A0D0A000000581600204C414D50A6
:103DC0004F50454E00000000001001404C414D5046
:103DD000434C4F534500000070B50C460546FCF7B8
:103DE000B1F92870FCF7AEF92070002070BD00001A
:103DF00008B502238DF80000012269460248FEF74B
:103E00009DF9002008BD000048170020002210B5D1
:103E1000102311461046FEF73BFF1023012200211C
:103E20001846FEF735FF1023022200212020FEF75E
:103E30002FFF1023032200213020FEF729FF10233B
:103E4000042200214020FEF723FF10230522002139
:103E50005020FEF71DFF1023002219461046FEF7E2
:103E600017FF1023012219461846FEF711FF1023F1
:103E7000062219462020FEF70BFF102307221946C1
:103E80003020FEF705FF1023082219463020FEF7E8
:103E9000FFFE1023042219464020FEF7F9FE1023EE
:103EA000052219465020FEF7F3FE002210232021A0
:103EB0001046FEF7EDFE1023012220211846FEF7E2
:103EC000E7FE1023042220214020FEF7E1FE10230C
:103ED000052220215020FEF7DBFE2021102310A216
:103EE0000846FEF741FF1023092230210020FEF78B
:103EF000CFFE10230A2230211846FEF7C9FE1023F8
:103F0000042230212020FEF7C3FE30211023052299
:103F10000846FEF7BDFEBDE81040FEF73FBE0000BC
:103F20004D51545400000000FDF7F2F9FFF771F80D
:103F3000FEF7D8FBFEF772FCFEF7C8FCFEF7E2FCCA
:103F4000FEF790FCFEF754FCFEF7A2FDFFF75EFFC4
:103F5000012217491748FEF7BFF8FCF739FCFEF7B6
:103F6000EDFC0026144F354634463046761CB6B27A
:103F7000A62803D9002611A0FFF71CFA28466D1CBD
:103F8000ADB2A62802D90025FEF7D8FA2046641C57
:103F9000A4B2642802D90024FEF7A6FF397811B133
:103FA0000E48FFF799FE1E20FDF746F8DDE70000FA
:103FB0004C160020041700204D160020A1BE6D6194
:103FC000696EA1BF696E666F3AB3CCD0F2D5FDD4ED
:103FD000DAD4CBD0D0A3A10D0A0D0A00561E0020C2
:103FE00000000000000000000102030406070809A9
:103FF00000000000010203040000000000000000B7
:1040000000000000000000003F4000000000000031
:1040100000003000400030004000000009000BC0EC
:104020003D000BC03D00090018C024407FE0224045
:1040300031800000180024C01B000D803240018038
:1040400003801C4027401C80074000401000600097
:1040500000000000000000000000000000001F80C1
:10406000204040200000402020401F800000000031
:10407000090006001F80060009000000040004007B
:104080003F800400040000000010006000000000F9
:10409000000000000400040004000400040000000C
:1040A000000000400000000000000000002001C0EF
:1040B00006003800400000001F80204020402040C3
:1040C0001F800000000010403FC0004000000000C2
:1040D00018C0214022402440184000001080204099
:1040E000244024401B80000002000D0011003FC04E
:1040F000014000003C8024402440244023800000F4
:104100001F80244024403440038000003000200001
:1041100027C03800200000001B8024402440244099
:104120001B8000001C0022C0224022401F80000093
:104130000000000008400000000000000000000037
:104140000460000000000000000004000A001100EC
:104150002080404009000900090009000900000012
:1041600000004040208011000A00040018002000D8
:1041700023402400180000001F80204027402940D1
:104180001F400000004007C039000F0001C0004080
:1041900020403FC0244024401B8000001F8020405E
:1041A000204020403080000020403FC02040204080
:1041B0001F80000020403FC024402E4030C000003F
:1041C00020403FC024402E00300000000F0010802F
:1041D000204022403380020020403FC00400040001
:1041E0003FC02040204020403FC0204020400000F1
:1041F0000060202020203FC02000200020403FC041
:1042000024400B0030C0204020403FC020400040F0
:10421000004000C03FC03C0003C03C003FC0000065
:1042200020403FC00C4023003FC020001F802040A2
:10423000204020401F80000020403FC02440240038
:10424000180000001F802140214020E01FA0000036
:1042500020403FC02440260019C0004018C0244020
:104260002440224031800000300020403FC02040E8
:104270003000000020003F80004000403F802000D0
:1042800020003E0001C0070038002000380007C0B1
:104290003C0007C038000000204039C0060039C08B
:1042A000204000002000384007C0384020000000B7
:1042B000304021C02640384020C0000000000000EF
:1042C0007FE0402040200000000070000C000380D0
:1042D000004000000000402040207FE0000000007F
:1042E000000020004000200000000000001000102E
:1042F000001000100010001000000000400000003E
:1043000000000000000002800540054003C000409E
:1043100020003FC0044004400380000000000380F0
:104320000440044006400000000003800440244094
:104330003FC00040000003800540054003400000EE
:10434000000004401FC0244024402000000002E080
:10435000055005500650042020403FC00440040092
:1043600003C000400000044027C0004000000000DF
:1043700000100010041027E00000000020403FC0A3
:104380000140070004C00440204020403FC00040DE
:104390000040000007C0040007C0040003C0000084
:1043A000044007C00440040003C000400000038034
:1043B0000440044003800000041007F0045004404F
:1043C00003800000000003800440045007F0001048
:1043D000044007C002400400040000000000064042
:1043E0000540054004C00000000004001F80044098
:1043F00000400000040007800040044007C0004067
:104400000400070004C0018006000400060001C08B
:10441000070001C006000000044006C0010006C0FD
:10442000044000000410071004E0018006000400AE
:104430000000044005C006400440000000000000E9
:1044400004007BE040200000000000000000FFF0BE
:1044500000000000000040207BE00400000000009D
:1044600040008000400020002000400000000000CC
:10447000000000000000000000000000000000003C
:1044800000001FCC000C000000000000000008002D
:10449000300060000800300060000000022003FCD3
:1044A0001E20022003FC1E200220000000000E1827
:1044B00011043FFF10840C78000000000F001084EE
:1044C0000F3800C0077818840078000000780F8447
:1044D00010C411240E9800E400840008080068004D
:1044E000700000000000000000000000000000005C
:1044F000000007E0181820044002000000004002FD
:104500002004181807E000000000000002400240EC
:1045100001800FF001800240024000000080008016
:1045200000800FF800800080008000000001000D76
:10453000000E0000000000000000000000000080ED
:104540000080008000800080008000800000000C5F
:10455000000C000000000000000000000000000649
:10456000001800600180060018002000000007F01D
:10457000080810041004080807F0000000000804F0
:1045800008041FFC000400040000000000000E0CE2
:1045900010141024104411840E0C000000000C189C
:1045A00010041104110412880C700000000000E0D7
:1045B0000320042408241FFC0024000000001F988E
:1045C000108411041104108810700000000007F01E
:1045D00008881104110418880070000000001C00F5
:1045E000100010FC13001C001000000000000E382A
:1045F00011441084108411440E380000000007009C
:10460000088C10441044088807F0000000000000E7
:104610000000030C030C000000000000000000007C
:104620000001010600000000000000000000008002
:10463000014002200410080810040000022002209B
:1046400002200220022002200220000000001004AC
:1046500008080410022001400080000000000E0045
:104660001200100C106C10800F00000003E00C18FA
:1046700013E4142417C4082807D000000004003CE9
:1046800003C41C40074000E4001C000410041FFC8D
:104690001104110411040E880070000003E00C18CE
:1046A00010041004100410081C10000010041FFC5B
:1046B000100410041004080807F0000010041FFC88
:1046C0001104110417C410040818000010041FFC82
:1046D0001104110017C010000800000003E00C18BE
:1046E0001004100410441C780040000010041FFC4B
:1046F00010840080008010841FFC1004000010044F
:1047000010041FFC1004100400000000000300014E
:10471000100110011FFE10001000000010041FFC0B
:10472000110403801464181C1004000010041FFC02
:104730001004000400040004000C000010041FFC1E
:104740001F0000FC1F001FFC1004000010041FFCD1
:104750000C04030000E010181FFC100007F008080C
:10476000100410041004080807F0000010041FFCD7
:1047700010841080108010800F00000007F00818CF
:1047800010241024101C080A07F2000010041FFC5B
:104790001104110011C011300E0C000400000E1C99
:1047A00011041084108410441C38000018001000FC
:1047B00010041FFC100410001800000010001FF867
:1047C00010040004000410041FF8100010001E0064
:1047D00011E0001C007013801C0010001FC0103C72
:1047E00000E01F0000E0103C1FC000001004180C87
:1047F000163401C001C01634180C100410001C003F
:10480000130400FC13041C00100000000804101C1A
:104810001064108413041C04101800000000000031
:1048200000007FFE40024002400200000000300015
:104830000C0003800060001C000300000000400228
:10484000400240027FFE0000000000000000000067
:104850002000400040004000200000000001000156
:104860000001000100010001000100010000400002
:104870004000200000000000000000000000009840
:10488000012401440144014400FC000410001FFC09
:10489000008801040104008800700000000000701E
:1048A0000088010401040104008800000000007079
:1048B00000880104010411081FFC0004000000F836
:1048C000014401440144014400C800000000010407
:1048D00001040FFC1104110411001800000000D69F
:1048E00001290129012901C90106000010041FFC4A
:1048F000008401000100010400FC00040000010428
:10490000190419FC0004000400000000000000036A
:1049100000010101190119FE0000000010041FFC34
:104920000024004001B4010C010400000000100448
:1049300010041FFC0004000400000000010401FC3E
:104940000104010001FC0104010000FC010401FC60
:10495000008401000100010400FC0004000000F8D4
:10496000010401040104010400F80000010101FF39
:104970000085010401040088007000000000007040
:10498000008801040104010501FF00010104010484
:1049900001FC00840104010001800000000000CC43
:1049A00001240124012401240198000000000100D9
:1049B000010007F80104010400000000010001F8F3
:1049C000000400040004010801FC0004010001804F
:1049D0000170000C001001600180010001F0010C69
:1049E000003001C00030010C01F0010000000104A2
:1049F000018C00740170018C01040000010101812F
:104A00000171000E001801600180010000000184A6
:104A1000010C013401440184010C0000000000007D
:104A20000000000001003EFC4002400200000000C7
:104A300000000000FFFF0000000000000000400236
:104A400040023EFC01000000000000000000600089
:104A50008000800040004000200020000000000096
:104A60000000000000000000000000000000000046
:104A70000000000000000000000000000000000036
:104A80000000000000000000000000000000000F17
:104A900080380FFE380F8038000000000000000052
:104AA00000000000000000000000010000060000FF
:104AB0000C00003800003100000600000C00003837
:104AC000000030000000000000000000618000676E
:104AD000F807F980006180006180006180006180DA
:104AE0000067F807F9800061800000000000000006
:104AF000000001C0E003E0F00630080418081FFFC2
:104B0000FE040E080787F00381E0000000000000AB
:104B100001F000060C00040408060C7001F9C00046
:104B20000E00003BE000EC18070808040C18000316
:104B3000E00000000001E00007F003F818041C0882
:104B400004170807E1D003C0E00023B0003C0800D0
:104B500020080000100000000000000100003100EB
:104B6000003200001C0000000000000000000000F7
:104B70000000000000000000000000000000000035
:104B80000000000000000000000000007F0001FFA6
:104B9000C00780F00C001810000420000200000084
:104BA0000000002000021000040C00180780F00133
:104BB000FFC0007F000000000000000000000000B7
:104BC00000000000000000004200006600006600D7
:104BD000003C0000180003FFC0001800003C00006B
:104BE00066000066000042000000000008000008A7
:104BF0000000080000080000080001FFC0000800D5
:104C00000008000008000008000008000000000084
:104C1000000100003100003200001C000000000014
:104C20000000000000000000000000000000000084
:104C30000000000008000008000008000008000054
:104C40000800000800000800000800000800000834
:104C500000000000000000000000000038000038E4
:104C6000000038000000000000000000000000000C
:104C7000000000000000000000000000000600002E
:104C80001C000070000180000E0000380000C00011
:104C90000700001C000030000000000000000000C1
:104CA0007F8001FFE0038070060018040008040004
:104CB0000806001803807001FFE0007F80000000FC
:104CC00000000000000001000801000801000803C6
:104CD000FFF807FFF80000080000080000080000C7
:104CE0000000000000000001C03802C05804009815
:104CF000040118040218040418061C1803F818010B
:104D0000E0F800000000000000000001C0E003C067
:104D1000F004000804080804080806180803F4183A
:104D200001E7F00001E000000000000000000000CA
:104D30000300000D00001100006100008108030164
:104D40000807FFF80FFFF800010800010800000045
:104D50000000000000E007FCD00608080610080666
:104D60001008061008061838060FF00607C00000E5
:104D700000000000000000003F8001FFE0038430DD
:104D8000020818041008041008041008071810037B
:104D90000FF00007C000000000000000000003C08A
:104DA000000700000600000600F80607F8061800D5
:104DB00006E00007000006000000000000000001FF
:104DC000E1E003F7F0063410041808041808040C96
:104DD00008040C0806161803F3F001C1E0000000F7
:104DE00000000000F80003FC300306380402080449
:104DF00002080402080404100308F001FFC0007F49
:104E000000000000000000000000000000000000A2
:104E1000000000007038007038007038000000009A
:104E20000000000000000000000000000000000082
:104E30000000000000000000301A00301C000000DC
:104E40000000000000000000000000000000000062
:104E50000000000800001400002200004100008053
:104E6000800100400200200400100800080000003B
:104E700000000000210000210000210000210000AE
:104E8000210000210000210000210000210000215C
:104E900000000000000000000000080008040010EE
:104EA000020020010040008080004100002200003C
:104EB000140000080000000000000003C00004C04F
:104EC00000040000080038080F38080838081000EF
:104ED0000C300007E00003C00000000000000000EC
:104EE0003F8000FFE0038070020F1006708804C04E
:104EF00088048308047F8802C09003012000FE40DC
:104F00000000080000180001F8003E0801C2000778
:104F1000020007E20000FE00001FC80001F80000C8
:104F20003800000804000807FFF807FFF804080825
:104F300004080804080804080806180803F41801FF
:104F4000E7F00001E0000000000000003F8001FFEA
:104F5000E003807002001804000804000804000840
:104F60000400100600200780C000000004000807AD
:104F7000FFF807FFF8040008040008040008040014
:104F80001802001003807001FFE0007F8000000025
:104F900004000807FFF807FFF804080804080804DD
:104FA0000808040808043E08040008060018010068
:104FB0006000000004000807FFF807FFF804080875
:104FC000040800040800040800043E00060000066F
:104FD0000000018000000000000000003F8001FF91
:104FE000E0038070060018040008040208040208A8
:104FF0000203F00783F0000200000200040008072B
:10500000FFF807FFF804080800080000080000087F
:105010000000080004080807FFF807FFF80400086C
:105020000000000000000400080400080400080755
:10503000FFF807FFF8040008040008040008000057
:105040000000000000000000000600000700000152
:1050500004000104000104000307FFFE07FFFC0435
:10506000000004000004000004000807FFF807FF28
:10507000F8040C08001800003E0004C7800503C8AF
:105080000600F804003804001800000804000807AF
:10509000FFF807FFF80400080000080000080000FF
:1050A0000800000800000800001800006000000070
:1050B00004000807FFF807800807FC00007FC00015
:1050C00003F80007C000780007800807FFF807FF13
:1050D000F804000804000807FFF807000803C000F0
:1050E00000E000003800001E000007000001C004BE
:1050F00000F007FFF8040000000000007F8001FFBF
:10510000E003807006001804000804000806001878
:1051100003003001FFE0007F80000000040008076A
:10512000FFF807FFF8040408040400040400040462
:1051300000040400060C0003F80001F00000000069
:10514000000000007F8001FFE003807006008804FB
:1051500000880400C806003C03003E01FFE6007F13
:105160008400000004000807FFF807FFF80408089F
:10517000040800040C00040F00040BC00610F00328
:10518000F03801E00800000800000001E0F803F03A
:1051900030063010041808041808040C08040C0821
:1051A0000206180207F00781E000000001800006F7
:1051B000000004000004000004000807FFF807FFD7
:1051C000F80400080400000400000600000180004C
:1051D00004000007FFE007FFF004001800000800CB
:1051E000000800000800000800000804001007FF85
:1051F000E004000004000006000007E00007FE00D5
:10520000041FE00001F80000380001E0043E000740
:10521000C00006000004000004000007E00007FFD3
:10522000C0041FF80007C007F80007FF80043FF81C
:105230000007C004F800070000040000000000049C
:10524000000806001807C07805F1C8003E00001FDE
:10525000800463E80780F8060018040008000000D6
:1052600004000006000007800007E008047C080036
:105270001FF80007F800180804E0080700000600FF
:10528000000400000000000100080600380400F8D7
:105290000403E8040F08047C0805F00807C00807A9
:1052A0000018040060000000000000000000000082
:1052B000000000000000003FFFFE2000022000026E
:1052C0002000022000022000020000000000000078
:1052D000000008000007000000C0000038000006C1
:1052E000000001C000003000000E000001000000BE
:1052F0000000000000002000022000022000022028
:1053000000022000023FFFFE00000000000000003D
:105310000000000000000000000000000008000085
:1053200010000030000020000030000010000008D5
:10533000000000000000000000000100000100006B
:105340000100000100000100000100000100000157
:105350000000010000010000010000010000000049
:1053600000000000002000002000001000001000DD
:10537000000000000000000000000000000000002D
:105380000000000000F00019F8001B1800220800BF
:105390002608002408002410003FF8001FF8000031
:1053A0000800001800000004000007FFF80FFFF0DD
:1053B000001818001008002008002008003018000D
:1053C0001FF0000FC00000000000000007C0001F19
:1053D000F0001830002008002008002008003C08D9
:1053E000001C100000600000000000000000000031
:1053F00007C0001FF0003818002008002008002017
:105400000804101007FFF80FFFF000001000000064
:105410000000000000000007C0001FF00012300074
:105420002218002208002208003208001E10000E78
:1054300020000000000000002000002008002008DC
:1054400001FFF803FFF806200804200804200807DD
:10545000200003000000000000000000000E000E0D
:105460006E001FF30031B10020B10020B100319176
:10547000001F13002E1E00200E003000000000044C
:10548000000807FFF80FFFF80010080020000020B8
:1054900000002008003FF8001FF80000080000008E
:1054A000000000000000002008002008002008067E
:1054B0003FF8063FF8000008000008000008000060
:1054C00000000000000000000000000003000003D6
:1054D000002001002001002003063FFE063FFC00E3
:1054E000000000000000000000000004000807FFAA
:1054F000F80FFFF8000188000300002FC00038F803
:105500000020380020080000080000000000000013
:10551000000004000804000804000807FFF80FFF5B
:10552000F80000080000080000080000000000006B
:10553000002008003FF8003FF8001008002000009D
:105540003FF8003FF8001008002000003FF8003F3F
:10555000F8000008000000002008003FF8003FF8B5
:10556000001008001000002000002008003FF80094
:105570001FF80000080000000000000007C0000F36
:10558000F000183000300800200800200800300823
:10559000001830000FF00007C000000000000000FD
:1055A0002001003FFF003FFF0010110020090020F4
:1055B00008002008003038001FF0000FC000000075
:1055C0000000000007C0001FF0003818002008008D
:1055D0002008002009001011001FFF003FFF0000FD
:1055E00001000000002008002008002008003FF80B
:1055F000003FF80008080010080020080020000004
:105600003000003000000000000000000000000C2E
:1056100078001E18003308002308002108002188A4
:105620000021980030F00038600000000000000009
:10563000200000200000200000FFF003FFF8002001
:1056400008002008002008000030000000000000D2
:10565000000000002000003FF0007FF8000018006C
:105660000008000008002010003FF8007FF0000054
:1056700010000000000000002000003000003C008E
:10568000003F800023F000007800007000238000BD
:105690003C00003000002000002000003C00003FE3
:1056A000E00023F80000E0002700003E00003FE09B
:1056B0000021F80001E0003E000020000000000092
:1056C0002008002008003838003E680027800003CA
:1056D000C8002CF80038380020180020080000000E
:1056E000000000002000003003003C01003F830068
:1056F00023EC000070002380003C0000200000200C
:105700000000000000000000000000380800203801
:105710000020F80023E8002F88003E080038080029
:1057200020180000700000000000000000000000D1
:10573000000000000000000008000014001FF7FC3B
:105740003000062000020000000000000000000001
:105750000000000000000000000000000000FFFF4B
:10576000FF0000000000000000000000000000003A
:105770000000000000002000023000061FF7FC00BF
:1057800014000008000000000000000000000000FD
:105790000000000000000018000060000040000051
:1057A0004000002000001000000800000400000479
:1057B00000000C0000100000E000C000766572736D
:1057C000696F6E3D323031382D31302D33312672D4
:1057D00065733D70726F6475637473253246353539
:1057E000353333392532466465766963657325320E
:1057F0004664657669636530312665743D323033C1
:1058000037323535353233266D6574686F643D6DDA
:105810006435267369676E3D597548354D59253293
:105820004272367A706C4932514267426A6C4E510C
:1058300025334425334400007B226964223A203119
:1058400032332C226470223A207B2274656D70659D
:10585000726174727565223A205B7B2276223A254A
:10586000322E31662C7D5D2C202268756D6964694D
:105870007479223A205B7B202276223A25322E311F
:10588000662C7D5D2C20224C616D70223A205B7B62
:10589000202276223A25642C7D5D7D7D000000006B
:1058A000C0580008000000205816000062070008D9
:1058B000205C000858160020000E00002C34000860
:1058C000320182101324F415404042CC200B0444D2
:1058D000645C47F4444444041D40201F200A2C44C7
:1058E000447F05111810101010FF1050445465C665
:1058F00044645444402B100E827F0182824A562316
:1059000022524E820217080888FF4848370848FF8D
:105910000808F8100C8165080720C0080423C0039C
:105920003423C40F1FC04040407F480124C80808EA
:1059300028088040370404146403440710E01BF86F
:10594000880110090808FF08090AC8081480601FA8
:10595000180C10201F80402116182641F8601B08E3
:10596000F80429861C1010F0BC400E30101F088867
:1059700048300E014080403F16FE222222FE1FFECC
:10598000828292A29E6017601F0242827F3008FFCF
:10599000402F102C4380400B90884C57A424545423
:1059A0008C84180801018042221A072416423E0105
:1059B0000101181080809E9292929EE0809EB2D249
:1059C000929E807016F4949292F1100801F29294D3
:1059D00094F80825404042CC1A04012AFC054124D1
:1059E0007F20106440807F300EF80102C04A52428E
:1059F000524AC20202FE12FF280A4023120E023E41
:105A000042436023194019012AC205254242404001
:105A1000400D2070282423202020242830E01D025F
:105A20000212623A2F020242320202A039015AFFE8
:105A3000081941500DE050484443404040485060F0
:105A4000C04AFE4D2A426E315BE2820159101A3F74
:105A50002C59013A788012CC180A0444645C47F44B
:105A6000444444C01D40201F200A2C44447F05119B
:105A70001810101010FF1050445465C6446454446C
:105A8000402B100E827F0182824A562322524E8280
:105A9000021D1060028C732A92012961180A040405
:105AA0007E01407E42427E021B427ED0112809FCCC
:105AB000242424FC252624081204481040308F801A
:105AC000844C55252525554C80808040493F7940A0
:105AD00018084448507F40407FD809204039EE12D2
