:020000040800F2
:100000004009002001010008B32300088D1D0008ED
:10001000B123000863070008412800080000000021
:10002000000000000000000000000000A124000803
:100030006507000800000000B5230008A32400089D
:100040001B0100081B0100081B0100081B01000820
:100050001B0100081B0100081B0100081B01000810
:100060001B0100081B0100081B0100081B01000800
:100070001B0100081B0100081B0100081B010008F0
:100080001B0100081B0100081B0100081B010008E0
:100090001B0100081B0100081B0100081B010008D0
:1000A0001B0100081B0100081B0100081B010008C0
:1000B0001B0100081B0100081B0100081B010008B0
:1000C0001B0100081B0100081B0100081B010008A0
:1000D0001B01000829280008352800081B0100081A
:1000E0001B0100081B0100081B010008DFF80CD0F1
:1000F00000F004FB004800474D3200084009002092
:100100000648804706480047FEE7FEE7FEE7FEE7B1
:10011000FEE7FEE7FEE7FEE7FEE7FEE7052500084F
:10012000ED000008202A04DB203A21FA02F0002129
:10013000704721FA02F3D040C2F1200291400843F7
:10014000194670470649074A0868504343F2390286
:10015000104408604008704701490860704700007B
:10016000180000206D4EC64140EA01039B0703D0F2
:1001700009E008C9121F08C0042AFAD203E011F8E6
:10018000013B00F8013B521EF9D27047D2B201E0A8
:1001900000F8012B491EFBD270470022F6E710B58C
:1001A00013460A4604461946FFF7F0FF204610BDE5
:1001B000421E12F8013F002BFBD111F8013B02F85F
:1001C000013B002BF9D1704730B505462A460B4656
:1001D00012F8010B13F8014B08B1A042F8D01CB182
:1001E000002802D06D1CF1E7284630BD421C10F8F3
:1001F000011B0029FBD1801A704710B5002200E0D6
:10020000521C835C8C5CA34201D1002BF8D1D8B284
:10021000E1B2401A10BD034611F8012B00F8012B82
:10022000002AF9D1184670470EB540F233410291C9
:100230000021CDE900110A460B4600F058F803B042
:1002400000BD30B50B46014600202022012409E004
:1002500021FA02F59D4205D303FA02F5491B04FA7F
:1002600002F52844151EA2F10102F1DC30BD2DE992
:10027000F05F0546002092469B468846064681462A
:1002800040241BE02846414647462246FFF74AFFE6
:1002900053465A46C01A914110D311461846224679
:1002A00000F03EFA2D1A67EB01084F462246012066
:1002B000002100F035FA17EB00094E41201EA4F191
:1002C0000104DFDC484631462A464346BDE8F09F3C
:1002D00010B5141E73F1000408DA401C41F100014E
:1002E00092185B411A4301D120F0010010BD2DE9A5
:1002F000F04D92469B4611B1B1FA81F202E0B0FA9C
:1003000080F22032904600F00BFA04460F4640EA95
:100310000A0041EA0B0153465A46084313D01146DE
:1003200053EA010019D0C8F140025046FFF7FAFE27
:1003300005460E4650465946424600F0F1F908433C
:1003400005D0012004E020463946BDE8F08D0020AC
:10035000054346EAE0762C4337430A986305E40AEE
:10036000A0EB08000022FD0A44EA47540A3002D5F7
:1003700000200146E9E7010510196941DDE908455A
:1003800000196941BDE8F04DA2E72DE9FE4F804616
:1003900081EA0300C00F0C46009021F0004123F0D9
:1003A0000045B8EB0200A94105D2404621469046DF
:1003B0001C460B46024623F00040104347D0270D51
:1003C000C7F30A00C3F30A510290401A0190402873
:1003D0006BDAC3F3130040F4801B0098924620B1FF
:1003E0000023D2EB030A63EB0B0B01985946C0F1D3
:1003F0004002504600F094F906460D4650465946D4
:10040000019A00F09CF910EB08006141002487EA92
:10041000115284EAE7731A4340D0009A62B3019AFA
:10042000012A4FEA075215DC001B61EB02014FF075
:10043000004202EA0752CDE90042001C41F580115A
:1004400032462B46FFF753FF03B0BDE8F08F40461E
:100450002146F9E7001B61EB0201001C41F5801306
:1004600000185B412018A2F5001747EB030140EA92
:10047000D570B6196D4111E06D084FEA360645EAB0
:10048000C0754FEA0752001B61EB0201001C41F5E9
:10049000801149084FEA30000019514132462B467D
:1004A00003B0BDE8F04FFFF713BF009801224000F2
:1004B0000023D0EB020263EBE073009821464FEA81
:1004C000E074B8EB000061EB0401E9E783F000435E
:1004D0005BE781F0004158E72DE9FE4F81EA030414
:1004E00004F0004421F0004100944FF0000B23F091
:1004F000004350EA01045ED052EA03045BD0C3F328
:100500000A54C1F30A552C44A4F2F3340194A0FB1D
:100510000254C1F3130141F48011C3F3130343F4F4
:10052000801301FB024400FB034E840A970A44EA4D
:10053000815447EA8357A4FB076802958D0A05FB9F
:1005400007854FEA932C04FB0C542705029D4FEAC4
:10055000065847EA1637B5EB08056EEB070C870E11
:10056000920E47EA811742EA8312A7FB0201B6EB1B
:100570000B0164EB00042B0D43EA0C335E1844EBD3
:100580001C50DA465146E7FB0201C5F313044FEA5B
:100590000B3343EA14534FEA0432019C43EA060347
:1005A000A4F10C040294009CCDE900B4FFF79FFE77
:1005B00003B0BDE8F08F00200146F9E72DE9F04DCA
:1005C00081EA030404F0004B21F0004514464FF08B
:1005D000000A23F0004150EA050220D054EA01024B
:1005E0001DD0C5F30A570246C5F31303C1F3130028
:1005F000C1F30A5640F4801543F48013A7EB0608B4
:10060000101BD64608F2FD3873EB050002D308F143
:10061000010801E092185B41B8F1000F03DA0020F5
:100620000146BDE8F08D00204FF480110646844657
:100630000EE0171B73EB050705D3121B63EB0503D5
:1006400006434CEA010C49084FEA300092185B411E
:1006500050EA0107EDD152EA030012D082EA040009
:1006600083EA0501084305D0101BAB4106D20122E5
:10067000002306E000224FF0004302E06FF0010289
:1006800053101AEB06004CEB085110EB0A0041EB3B
:100690000B01BDE8F04DFFF71BBEC1F30A52C1F3D9
:1006A000130140F2FF3341F480119A4202DA002034
:1006B0000146704740F233439A42A2F2334202DCD1
:1006C0005242FFF72FBD00F02BB8000030B5041EDA
:1006D00071F1000404DB4FF00044404264EB01017F
:1006E000141E73F1000405DB1C464FF00043524218
:1006F00063EB0403994208BF904230BD064C074D9E
:1007000006E0E06840F0010394E8070098471034E1
:10071000AC42F6D3FFF7EEFCC0330008E03300082C
:10072000202A04DB203A00FA02F1002070479140B1
:10073000C2F1200320FA03F3194390407047202AA6
:1007400006DBCB17203A41FA02F043EAE07306E0F9
:1007500041FA02F3D040C2F1200291400843194609
:100760007047FEE77047000010B500F027FA002838
:1007700032D01AA002F066F822A125A000F02CF9D0
:10078000002822D024A002F05DF840F25B722CA178
:1007900030A000F07DF9002819D02FA002F052F807
:1007A000394A3AA13BA001F0F3FA002811D03BA04E
:1007B00002F048F80122002144A001F061FC50B190
:1007C000BDE810404AA002F03DB8012004E002203C
:1007D00002E0032000E0042000F02EFAA1BE6D61CB
:1007E000696EA1BF696E666F3A455350383236362E
:1007F000B3F5CABCBBAFB3C9B9A6A3A10D0A0D0A14
:100800000000000077786335323035323100000067
:10081000475A303800000000A1BE6D61696EA1BF6B
:10082000696E666F3A45535038323636C1ACBDD327
:10083000C8C8B5E3B3C9B9A6A3A10D0A0D0A000043
:100840006D717474732E6865636C6F7564732E6359
:100850006F6D000054435000A1BE6D61696EA1BF71
:10086000696E666F3A45535038323636C1ACBDD3E7
:10087000B0A2C0EFD4C6B7FECEF1C6F7B3C9B9A6D1
:10088000A3A10D0A0D0A0000F432000835353436F4
:10089000333200006573703031730000A1BE6D61AA
:1008A000696EA1BF696E666F3A455350383236366D
:1008B000B0A2C0EFD4C64D515454B5C7C2BDB3C9E0
:1008C000B9A6A3A10D0A0D0A0000000024737973D4
:1008D0002F3535343633322F6573703031732F63D3
:1008E0006D642F726571756573742F2B00000000A5
:1008F000A1BE6D61696EA1BF696E666F3A455350C6
:1009000038323636B0A2C0EFD4C64D515454B6A9D1
:10091000D4C4D6F7CCE2B3C9B9A6A3A10D0A0D0A77
:100920000000000070B50C4605464FF48071074882
:10093000FFF733FC06490020224608702946BDE82F
:1009400070404FF6FF73034801F0C6B93C03002026
:1009500015000020B401002010B504464FF480714A
:100960000948FFF71AFC094900200870084806E00A
:10097000026851600168641C0A685206FCD521783F
:100980000029F5D110BD00003C0300201500002017
:10099000B401002070B505244FF400750EE029461F
:1009A0000948FFF7FAFB09A0FFF7D6FFC82209A103
:1009B000054800F0F5F908B1012070BD2046641E1D
:1009C000E4B2ECD270BD00003C03002041540D0A9B
:1009D000000000004F4B00002DE9F047884681469B
:1009E00005244FF400750CE029461A48FFF7D5FBA3
:1009F00019A0FFF7B1FFC8221CA1164800F0D0F9DA
:100A000010B9641EE4B2EFD2ECB1012426024FF417
:100A1000FA5731461648FFF7C0FB29460D48FFF745
:100A2000BCFB43464A4613A1114801F01BFF104886
:100A3000FFF792FF3A460DA1064800F0B1F920B148
:100A40000120BDE8F0870020FBE72046641EE4B2E9
:100A5000DFD2F6E73C03002041542B43574D4F446F
:100A6000455F4355523D310D0A0000004F4B0000D9
:100A70003C02002041542B43574A41505F4355529A
:100A80003D222573222C222573220D0A000000002E
:100A90002DE9F84F16468946824600F07DF84FF45E
:100AA000FA7000F025FA02242502E7014FF4FA5803
:100AB00017E039462348FFF770FB29462248FFF725
:100AC0006CFB4B46524621A11E48009601F0CAFE1F
:100AD0001C48FFF741FF424623A11B4800F060F984
:100AE00010B9641EE4B2E4D27CB101242946164850
:100AF000FFF753FB1EA0FFF72FFFC82220A11248CB
:100B000000F04EF920B1012407E00020BDE8F88F85
:100B10002046641EE4B2E9D2F8E729460A48FFF706
:100B20003CFB18A0FFF718FFC8221AA1064800F0E6
:100B300037F908B10120E9E72046641EE4B2ECD29F
:100B4000E4E700003C0200203C03002041542B431A
:100B5000495053544152543D222573222C2225736F
:100B6000222C25640D0A0000434F4E4E454354008D
:100B700041542B4349504D4F44453D310D0A00002F
:100B80004F4B000041542B43495053454E440D0AEE
:100B9000000000003E00000010B507A0FFF7DCFEDB
:100BA000322000F0A5F904A0FFF7D6FEBDE8104002
:100BB000322000F09DB900002B2B2B0070B54FF4B4
:100BC00080711548FFF7E9FA4FF40075294613487C
:100BD000FFF7E3FAFFF7E0FF4FF4FA74204600F066
:100BE00087F90FA0FFF7B8FE4FF4487000F080F9C6
:100BF000FFF7D0FE00280ED029460848FFF7CDFAAF
:100C00000AA0FFF7A9FE22460AA1044800F0C8F88E
:100C1000002800D0012070BD3C0200203C030020D1
:100C200041542B5253540D0A0000000041544530EA
:100C30000D0A00004F4B00000446012251030F48EB
:100C400000F05DFA052C16D2DFE804F003050F1161
:100C500013000BA000E014A001F0F4FD1CA001F0B3
:100C6000F1FDC82000F044F9ECE720A0F4E72BA048
:100C7000F2E736A0F0E742A0EEE7000000100140E6
:100C8000A1BE6D61696EA1BF6572726F723A455304
:100C90005038323636B3F5CABCBBAFCAA7B0DCA3F6
:100CA000A10D0A0D0A000000A1BE6D61696EA1BF11
:100CB0006572726F723A45535038323636C1ACBDE8
:100CC000D3C8C8B5E3CAA7B0DCA3A10D0A0D0A00BA
:100CD000A1BE6D61696EA1BF696E666F3AC7EBD642
:100CE000D8C6F4BFAAB7A2B0E50D0A00A1BE6D61D7
:100CF000696EA1BF6572726F723A455350383236D1
:100D000036C1ACBDD3B0A2C0EFD4C6B7FECEF1C6DB
:100D1000F7CAA7B0DCA3A10D0A0D0A00A1BE6D6140
:100D2000696EA1BF6572726F723A455350383236A0
:100D300036B0A2C0EFD4C64D515454B5C7C2BDCAD7
:100D4000A7B0DCA3A10D0A0D0A000000A1BE6D61D1
:100D5000696EA1BF6572726F723A45535038323670
:100D600036B0A2C0EFD4C64D515454B6A9D4C4D69F
:100D7000F7CCE2CAA7B0DCA3A10D0A0D0A0000005F
:100D8000A1BE6D61696EA1BF696E666F3A4E6F74E8
:100D900068696E670D0A0D0A0000000072B6FEE772
:100DA00070B506460A20B2FBF0F40D4602E00A20B8
:100DB00000F09EF829463046FFF706FA10B9641E87
:100DC000A4B2F4D20CB1012070BD002070BD0000AF
:100DD0002DE9F04700241E46671E154688468146C9
:100DE000B2420DD3334622460849484601F0E3FAA1
:100DF00006494046FFF701FA28B1641CAC42F1DB1A
:100E00003846BDE8F0872046FBE700004C01002093
:100E100010B590F821100022022905D00421816329
:100E200080F82020012010BD01680B6823F00E031C
:100E30000B6001680B6823F001030B6090F84030F1
:100E4000C46B012101FA03F3636080F8211080F87C
:100E50002020104610BD000010B590F8211000248D
:100E6000022903D00421816301243DE001680A685E
:100E700022F00E020A6001680A6822F001020A608C
:100E80001A4A0168914201D1012121E0174A143226
:100E9000914201D110211BE0144A2832914201D124
:100EA000891515E0114A3C32914201D189140FE0B5
:100EB0000E4A5032914202D14FF4803108E00B4A81
:100EC0006432914202D14FF4801101E04FF0807101
:100ED000064A083A5160012180F82110002180F86B
:100EE0002010416B01B18847204610BD0800024028
:100EF00070B5044600F008F90546601C02D00448AD
:100F00000078044400F000F9401BA042FAD370BD01
:100F1000000000202DE9F84FDFF8B891002409F116
:100F2000040A0AF1040B23460F270BF1040EC9E053
:100F30000125A5402A40AA427DD1674ED1F804C0C0
:100F4000ACEB0608B44532D014DCBCF1030F3AD048
:100F500009DCBCF1000F2AD0BCF1010F1CD0BCF1A0
:100F6000020F31D11DE0BCF1110F17D0BCF1120FEF
:100F70002AD119E0B8F5881F19D006DCB8F5803FF2
:100F800015D0B8F5801F1FD111E0B8F5001F0ED0A5
:100F9000B8F5041F18D10AE0CB6815E0CB681B1D1B
:100FA00012E0CB6808330FE0CB680C330CE08B68A1
:100FB0002BB1012B4FF0080303D0456104E004235B
:100FC00002E0056100E00023FF2A01D8064601E0A7
:100FD00000F104064FEA840501D9A5F12005D6F8F1
:100FE000008007FA05FC28EA0C0803FA05F548EA30
:100FF0000508C6F800804D68ED0062D5374DAE6932
:1010000046F00106AE61AD6924F0030605F0010566
:101010000095334D06EB050CDCF80850A607360F9B
:1010200007FA06F825EA0805DFF8B880404503D13D
:101030004FF0000817E044E0DFF8AC80404502D1F3
:101040004FF001080FE0DFF8A480404502D14FF0D7
:10105000020808E0DFF89880404502D14FF003080D
:1010600001E04FF0040808FA06F848EA0508CCF851
:1010700008804D68D9F80060ED034D4601D5164350
:1010800000E096432E604D68DAF80060AD035546E7
:1010900001D5164300E096432E604D68DBF80060F2
:1010A000ED025D4601D5164300E096432E604D6883
:1010B000DEF80060AD02754601D5164300E09643A8
:1010C0002E60641C0D682A46E5407FF431AFBDE810
:1010D000F88F0000000401400000111000100240D1
:1010E0000000014000080140000C014000100140D8
:1010F000001401408068084000D0012070470AB108
:10110000016170470904FBE70148806870470000EF
:101110000000002002488168027811448160704715
:1011200000000020074810B5016841F0100101607F
:10113000032000F075F8002000F006F800F024F815
:10114000002010BD0020024070B50D4D04464FF444
:101150007A712878B1FBF0F00A490968B1FBF0F028
:1011600000F0ECFA48B9102C07D200222146501E9C
:1011700000F036F800206C6070BD012070BD0000EA
:10118000000000200C0000200C4808B5816941F0E7
:1011900001018161816901F001010091C16941F0A2
:1011A0008051C161C06900F08050009004484168DE
:1011B00021F0E06141F00071416008BD0010024083
:1011C00000000140002809DB00F01F0201219140CE
:1011D0004009800000F1E020C0F8001170470000D5
:1011E000F0B40E4B1B680C46C3F30223C3F1070592
:1011F000042D00D90425191D072901D2002300E080
:10120000DB1E012606FA05F1491E214099409E4049
:10121000761E16403143F0BC01F038BB0CED00E007
:10122000064900F0070208684FF6FF03184040EA3D
:101230000220034A10430860704700000CED00E0F4
:101240000000FA052DE9F0470F46050061D0434E36
:10125000306800F00700B84209D2306820F007007B
:1012600038433060306800F00700B84251D1286838
:101270003B4C810712D5400703D5606840F4E0601D
:1012800060602878000703D5606840F460506060B3
:101290006068A96820F0F000084360602878C00703
:1012A00028D06868012810D02168022810D089074A
:1012B00000292EDA616821F0030101436160FFF724
:1012C00023FF804641F288390DE021688903EFE76A
:1012D0008901EDE7FFF718FFA0EB0801494502D9A6
:1012E0000320BDE8F0876068696800F00C00B0EB8F
:1012F000810FEFD1306800F00700B8420BD9306899
:1013000020F0070038433060306800F00700B84232
:1013100001D00120E5E72878400705D56068E96835
:1013200020F4E060084360602878000706D5606814
:10133000296920F4605040EAC100606000F038F88C
:101340006168084AC1F30311515CC840064908604E
:1013500006480068FFF7F8FE0020C2E700200240C0
:1013600000100240DC3200080C00002004000020C5
:101370000448054900684968044AC1F30221515CE8
:10138000C84070470C00002000100240EC320008FA
:101390000448054900684968044AC1F3C221515C08
:1013A000C84070470C00002000100240EC320008DA
:1013B00012A185B00FC98DE80F0014A0144A00686F
:1013C00004905168134801F00C03042B10D0082B33
:1013D0000ED1C1F38343C9031DF803000AD5516838
:1013E00004AAC1F34041515C0A4A5043B0FBF1F0FA
:1013F00005B0704708494843FAE7000002030405B6
:10140000060708090A0B0C0D0E0F10100102000050
:101410000010024000127A0000093D002DE9F84F4B
:10142000040070D02078C04DC00749D06868C0F370
:101430008100012807D06868C0F38100022809D123
:101440006868C00306D52868800339D5606800281D
:10145000E7D035E06068B0F5803F0BD010B1B0F553
:10146000A02F11D0286820F480302860286820F44C
:10147000802002E0286840F480302860606890B1E5
:10148000FFF742FE06460AE0286840F48020286004
:10149000F0E700BFFFF738FE801B642873D8286888
:1014A0008003F7D50CE0FFF72FFE064605E000BFEE
:1014B000FFF72AFE801B6428F0D828688003F7D441
:1014C00020789A4E80074FF001094FF0000839D577
:1014D000686810F00C0F07D06868C0F3810002281C
:1014E00009D16868C00306D42868800714D520692C
:1014F000012808D110E02069B0B1C6F80090FFF7CC
:1015000003FE074605E00AE1FFF7FEFDC01B0228C7
:10151000C4D828688007F7D52868616920F0F800EA
:1015200040EAC10028600DE0C6F80080FFF7ECFD3E
:10153000074604E0FFF7E8FDC01B022823D828680F
:101540008007F7D4207800072CD57948A169D9B154
:10155000C0F80090FFF7D8FD074604E0FFF7D4FD80
:10156000C01B02280FD8686A8007F7D571484FF46E
:10157000FA510068B0FBF1F0009000BF0098411EE6
:101580000091FAD20EE080E0C0F80080FFF7BCFDC9
:10159000074604E0FFF7B8FDC01B022875D8686A4B
:1015A0008007F7D42078400760D5E8690027C0009D
:1015B00008D4E86940F08050E861E869012700F04C
:1015C000805000905C480168C90513D401688346C7
:1015D00041F480710160FFF797FD824606E000BF8D
:1015E000FFF792FDA0EB0A0064284ED8DBF800005C
:1015F000C005F5D5E06801280AD008B1052813D048
:10160000286A20F001002862286A20F0040002E025
:10161000286A40F001002862E06841F2883B98B1F6
:10162000FFF772FD82460BE0286A40F00400286252
:10163000EEE700BFFFF768FDA0EB0A0159455AD855
:10164000286A8007F6D50CE0FFF75EFD824605E0CC
:10165000FFF75AFDA0EB0A0159454CD8286A8007CC
:10166000F6D41FB1E86920F08050E861E06988B3E2
:101670006968C1F38101022944D00228C6F860805C
:1016800004D0FFF741FD044638E034E0FFF73CFDAD
:10169000074604E0FFF738FDC01B02282BD8286856
:1016A0008001F7D4206AB0F5803F05D16868A16851
:1016B00020F4003008436860D4E9080108436968F1
:1016C00021F4741108436860C6F86090FFF71CFDB0
:1016D000044606E025E000BFFFF716FD001B0228C8
:1016E00009D828688001F7D51BE000BFFFF70CFD83
:1016F000001B022802D90320BDE8F88F286880016A
:10170000F4D40EE00128F7D06868226A00F4803132
:10171000914204D1616A00F47010884201D0012026
:10172000EAE70020E8E70000001002400000424223
:10173000800442420C0000200070004010B5401EA2
:10174000B0F1807F01D3012010BD4FF0E024606133
:101750000F21601701F09AF80020A0610720206196
:10176000002010BD70B590F83C20012A26D001243D
:1017700080F83C40022280F83D2003685A689D684A
:1017800022F070060A6832435A600D4B02689A4292
:1017900008D0B2F1804F05D00A4B9A4202D00A4BD2
:1017A0009A4204D1496825F080031943916080F87A
:1017B0003D40002180F83C10084670BD022070BDFD
:1017C000002C0140000400400008004010B5040057
:1017D00003D094F83D0010B107E0012010BD0020B7
:1017E00084F83C00204600F01FF8022084F83D00F9
:1017F000211D206800F088FE012084F8460084F84E
:101800003E0084F83F0084F8400084F8410084F8EA
:10181000420084F8430084F8440084F8450084F8CA
:101820003D00002010BD000008B500680649884250
:1018300008D10648816941F400618161806900F442
:101840000060009008BD0000002C01400010024024
:1018500070B5044690F83C00012817D0012584F8A3
:101860003C50022084F83D002068826822F0770214
:1018700022F47F4282600868502830D00DDC202896
:101880004DD005DC98B310283BD148E0022070BD54
:10189000302844D0402834D139E0602828D070283E
:1018A00006D0B0F5805F2CD0B0F5005F29D10AE0FA
:1018B000CB68D1E90121206800F05CFE20688168D6
:1018C00041F0770109E0CB68D1E90121206800F0FF
:1018D00051FE2068816841F48041816011E0CA684E
:1018E0004968206800F058FE5021206807E016E0A3
:1018F000CA684968206800F060FE6021206800F036
:1019000043FE84F83D50002084F83C0070BDCA6856
:101910004968206800F040FE40212068EFE7226817
:1019200001461046EBE7704770470000F8B50268C3
:1019300004461068D168536910F00F0F4FF000058E
:1019400054D003F0010601F4907737435FD0C2070B
:1019500005D0CA0503D5226C42F001022264420779
:1019600005D5DA0703D0226C42F002022264820716
:1019700005D5DA0703D0226C42F004022264020784
:1019800007D501F02002324303D0226C42F0080256
:101990002264226C002A35D0800604D5880602D540
:1019A000204600F03CFE20684069216CC0F38010A6
:1019B00001F008010143204625D000F018FE206800
:1019C000416949061BD5416921F040014161A06B85
:1019D000A8B158494163A06BFFF73EFA002811D027
:1019E000A06B416B01B0BDE8F040084783060ED5FF
:1019F0008B060CD52046BDE8F84000F010BE20460E
:101A0000FFF792FFF8BDFFF78FFF2564F8BD266B47
:101A10002023012E52D1C60650D5CE064ED51068D1
:101A200050680090506940062AD5A16B086840684C
:101A30000004000CEAD0A68D8642E7D9E0858869CB
:101A4000202818D0D06820F48070D06020684169C8
:101A500021F0010141612068416921F040014161AB
:101A600084F83E3025632068C16821F01001C16010
:101A7000A06BFFF7CDF9A08DE18D401A81B219E07E
:101A8000A08DE18D401A81B2E08D0028BED00029E2
:101A9000BCD0D06820F49070D0602068426922F0F9
:101AA0000102426184F83E3025632068C26822F05A
:101AB0001002C2602046FFF736FFF8BD05062BD5A1
:101AC0000D0629D594F83D002128F6D1A068B0F57F
:101AD000805F01D12069B0B1206A411C2162216878
:101AE00000784860E08C401E0004000CE084E4D1E3
:101AF0002068C16821F08001C1602068C16841F0A0
:101B00004001C160F8BD206A0088C0F30800506041
:101B1000206A801C2062E5E74006F3D54806F1D52F
:101B2000D168204621F04001D16084F83D3000F0BA
:101B30002CF9F8BDDF25000870B5040004D094F836
:101B40003D00002510B106E0012070BD84F83C5036
:101B5000204600F023F8242084F83D002068C16866
:101B600021F40051C160204600F0B4FD20680169F5
:101B700021F4904101612068416921F02A0141610D
:101B80002068C16841F40051C1602564202084F8B8
:101B90003D0084F83E00002070BD000070B586B0A6
:101BA000002400940194029403942E4E03682E495D
:101BB000022003222D4DB34226D18B6943F480438A
:101BC0008B618B6903F4804304938B6943F00403B6
:101BD0008B618969039201F0040104910102CDE94E
:101BE000001069462846FFF795F92815CDE900044D
:101BF000694628460294FFF78DF90022032125202B
:101C0000FFF7EEFA252028E0194EB34227D1CB6921
:101C100043F40033CB61CB6903F4003304938B6945
:101C200043F004038B618969039201F0040104917C
:101C30000421CDE9001069462846FFF76BF908201A
:101C4000CDE90004694628460294FFF763F90022B3
:101C500003212620FFF7C4FA2620FFF7B3FA06B0C7
:101C600070BD000000380140001002400008014033
:101C70000044004090F83E30202B0ED159B152B1B3
:101C800090F83C30012B08D0012380F83C30002331
:101C9000036300F07BBD0120704702207047000005
:101CA0000068084988420CD107480949074B027867
:101CB00008781A54401C0870012203490548FFF7B0
:101CC000D9BF704700380140140000203C030020B9
:101CD00015000020B40100202DE9F843044690F8D7
:101CE0003D001F4616460D4620284CD1C5B1BEB159
:101CF00094F83C00012846D0012084F83C004FF0C5
:101D00000008C4F84080212084F83D00FFF7FCF96A
:101D1000A6848146E684A068B0F5805F03D004E025
:101D20000120BDE8F883206928B12E465FF0000548
:101D300084F83C800EE00026FAE78021204600F07F
:101D400040FDA0B9AEB116F8010B21684860E08CE7
:101D5000401EE084E08C4B464FF0000200970028C4
:101D6000EBD14FF04001204600F02BFD30B10320B5
:101D7000D7E735F8020BC0F30800E6E7202084F827
:101D80003D000020CDE70220CBE77047FEE70000D2
:101D90002DE9F74F92468346FEF728FA0746019849
:101DA000FEF724FA06465046FEF720FA764C00224B
:101DB00005466280B819618828444FF0100C734BB7
:101DC00003EB0108491C618088F800C01030C1177E
:101DD00000EB516121F07F0CA0EB0C0000F0FF0C38
:101DE000C811002801DD4CF0800C618803EB01086C
:101DF00001F10101618088F800C0E8DC6188994642
:101E000018460B4401F1010161801A7061884FF09E
:101E1000040800EB010301F10101618083F80080F7
:101E200061884FF04D0300EB010C01F1010161806D
:101E30008CF8003061884FF0510300EB010C01F188
:101E4000010161808CF8003061884FF0540300EB91
:101E5000010C01F1010161808CF80030618800EB18
:101E6000010C01F1010161808CF80030618800EB08
:101E7000010301F10101618083F8008061884FF066
:101E8000C20300EB010C01F1010161808CF800300C
:101E9000618800EB010301F1010161801A70618822
:101EA0004FF03C0200EB010301F1010161801A7067
:101EB00061884FEA172200EB010301F10101618003
:101EC0001A70618800EB010201F101016180177055
:101ED00061883A4609EB01005946FEF745F96088EA
:101EE00038446080002E15DD6088320A09EB00035B
:101EF000401C60801A70608809EB0002401C608002
:101F000016706088324648440199FEF72DF96088C2
:101F100030446080002D15DD60882A0A09EB00033B
:101F2000401C60801A70608809EB0002401C6080D1
:101F3000157060882A4648445146FEF715F96088B6
:101F400028446080124F01264FF400784146104823
:101F5000FEF723F961880D4800F090F81D253878C8
:101F6000202802D1787802280BD06420FEF7C0FF29
:101F70006D1EEDB2F3D23046761EF6B2E6D2BDE863
:101F8000FE8F0120FBE70000100000203C02002033
:101F90003C0300202DE9F04790468A468146FEF733
:101FA00025F906465046FEF721F9324C0746002037
:101FB0006080B8F1000F06EB070001D0001D00E0C3
:101FC000801C618830222C4D6B18491C61801A706E
:101FD000C11700EB516121F07F02801AC2B2C81113
:101FE000002801DD42F08002618805EB010301F168
:101FF000010161801A70EBDC60884FEA162105EB65
:10200000000200F1010060801170608805EB0001A2
:1020100000F1010060800E70608832462844494615
:10202000FEF7A2F8608830446080B8F1000F0FD04E
:10203000104960884A782B18401C60801A70097813
:1020400060882A18401C608011702088401C208005
:1020500060883A4628445146FEF786F8608838443E
:1020600060806188044800F009F86088C0B2BDE86B
:10207000F0870000100000203C020020FEF752BC58
:102080002DE9F047464C4FF0000817468946824636
:10209000A4F80280FEF7AAF8424D0646002F02D0AF
:1020A0004FF0010001E04FF00000304400F1040067
:1020B00002D04FF0820201E04FF0A202618805EBEE
:1020C000010301F10101618083F800204FEAE07112
:1020D00000EB516121F07F02A0EB0200C2B24FEA97
:1020E000E110002801DD42F08002618805EB010368
:1020F00001F1010161801A70E8DC608805EB0001E4
:1021000000F10100608081F8008060884FF00101DB
:1021100005EB000200F101006080117060884FEA59
:10212000162105EB000200F101006080117060884B
:1021300005EB000100F1010060800E7060883246FE
:1021400028445146FEF710F86088304460802FB173
:1021500060882A18401C608082F80090124F012588
:102160004FF4007841461048FEF717F861880D4893
:10217000FFF784FF1D263878902802D1787803284D
:1021800009D06420FEF7B4FE761EF6B2F3D26D1EBF
:10219000EDB2E7D215B10120BDE8F0870020FBE7E2
:1021A000100000203C0200203C03002070B5D6B097
:1021B0000E460446154628214BA8FDF7EEFF0023E6
:1021C0004BA9701BC218224412F8232CCA545B1C62
:1021D000242BF7DB07A16846FEF71DF84BA96846DC
:1021E000FDF7E6FF00220CA16846FFF7D3FE56B0CC
:1021F00070BD0000247379732F3535343633322F98
:102200006573703031732F636D642F726573706FF7
:102210006E73652F000000004F4B00002DE9F04168
:1022200086B00024284800940194029403948169A4
:1022300041F010018161816901F01001049181690F
:1022400041F020018161816901F0200104918169DF
:1022500041F004018161816901F004010491816907
:1022600041F0080181618069012200F00800174FE8
:102270005503049029463846FEF741FFDFF85080A9
:10228000012208214046FEF73AFF0095022601256B
:102290000396CDE9015469463846FEF73BFE082017
:1022A000CDE90005CDE9024669464046FEF732FE1B
:1022B000302000900748CDE9010569464046FEF709
:1022C00029FE06B0BDE8F081001002400010014078
:1022D000000C01400000111010B586B00024174812
:1022E00000940194029403940494134905940160AA
:1022F0000621C0E901144FF6FF71C0E903144461DF
:102300008461FFF763FA08B1FEF748FD4FF480508F
:10231000009069460948FFF79BFA08B1FEF73EFDB9
:10232000049404A905480594FFF71CFA002801D07D
:10233000FEF734FD06B010BD002C01406C010020FA
:102340000C4810B50A4901604FF4E13141600021A9
:1023500081600C22C160C0E904128161C161FFF794
:10236000EBFB002803D0BDE81040FEF717BD10BD01
:1023700000380140B40100200C4810B50A49016042
:102380004FF4E1314160002181600C22C160C0E95D
:1023900004128161C161FFF7CFFB002803D0BDE8C3
:1023A0001040FEF7FBBC10BD00440040F8010020C7
:1023B000FEE7FEE7704730B5002403E01519455DE0
:1023C0000D55641C9C42F9DB0020085530BD00000F
:1023D0007FB5002403A902A800F01EFF58B3641CB7
:1023E000E4B20A2CF6D300BF174C4FF4005529462F
:1023F0002046FEF77FFE29462046FEF77BFE294653
:102400002046FEF777FE9DF80C00FDF70DFF044611
:102410000D469DF80800FDF707FF02460B460B49E5
:102420000B48CDE9004500F01DFA0022084909A03B
:10243000FFF7B0FD7FBD9DF80C209DF808100DA0A2
:1024400000F000FAD0E700000010014070330008EF
:1024500020000020247379732F3535343633322F22
:102460006573703031732F64702F706F73742F6ABF
:10247000736F6E00A1BE6D61696EA1BF696E666FFC
:102480003A74656D70657261747572653D25642C72
:1024900068756D69646974793D2564200A0D0A00C8
:1024A0007047FEF737BE30B58FB028216846FDF77C
:1024B00074FE14210AA8FDF770FE01210804CDE97D
:1024C00000100024029402250491CDE907504FF436
:1024D000E01009906846FEF7A1FF08B172B6FEE76A
:1024E0000F20CDE90A054FF48060CDE90C400221B0
:1024F0000AA80E94FEF7A6FE002801D072B6FEE7E9
:102500000FB030BD70470000F0B50268164B174C95
:10251000174D4FF08047984205D0B84203D0A042F3
:1025200001D0A84203D122F070064A683243984293
:1025300005D0B84203D0A04201D0A84203D122F472
:102540004074CA6822434C6922F080022243026030
:102550008A68C2620A688262984201D1096901638D
:1025600001214161F0BD0000002C01400004004049
:102570000008004010B5846842EA032224F47F4436
:102580000A432243826010BD826822F070020A432F
:1025900042F007018160704710B5036A046A24F0B5
:1025A00001040462846924F0F00444EA021423F074
:1025B0000A020A438461026210BD10B5036A23F067
:1025C000100303628369046A23F4704343EA02320E
:1025D00024F0A00343EA01118261016210BD10B52D
:1025E000406A0021C185C184FFF79EF910BD0168D2
:1025F000CA6822F49072CA6001684A6922F0010236
:102600004A61016B012904D10168CA6822F01002F5
:10261000CA60202180F83E1000210163704708B590
:1026200090F83E10222901D0022008BD82684FF4A4
:1026300080539A4201D1016921B1816A9A421BD02B
:102640004AB10AE00268816A5268C2F308020A804D
:10265000816A891C08E0026972B10268526802F05E
:102660007F020A70816A491C8162C18D491E09047A
:10267000090CC18503D019E002685268F1E70168CE
:10268000CA6822F02002CA600168CA6822F4807217
:10269000CA6001684A6922F001024A61202180F87B
:1026A0003E10016B012903D0FFF7FAFA002008BDA4
:1026B000002101630168CA6822F01002CA60016843
:1026C0000A68D20602D50A6849680091818DFFF731
:1026D0002AF9EBE770B5044600680169E26821F465
:1026E0004051114301612169A068084361690843B1
:1026F0002168CA6841F20C639A430243CA602068A9
:102700004169A26921F44071114341611E49206869
:10271000884202D1FEF73CFE01E0FEF729FE00EB05
:10272000C00101EB0012606864218000B2FBF0F38D
:10273000B3FBF1F36FF018067343B2FBF0F5B2FB95
:10274000F0F605EB8305322303EB0515B5FBF1F538
:10275000B6FBF1F605F0F00505EB0615B2FBF0F659
:10276000B2FBF0F0B0FBF1F06FF01802504306EB53
:10277000800003EB0010B0FBF1F0216800F00F00C7
:102780002844886070BD0000003801408162828565
:10279000C28500210164222280F83E2080F83C108E
:1027A0000168CA6842F48072CA6001684A6942F0EE
:1027B00001024A610068C16841F02001C160002047
:1027C00070472DE9F041984617460E460446069D8F
:1027D0001DE0681C1BD02DB1FEF796FCA0EB080095
:1027E000A84214D92068C16821F4D071C160206862
:1027F000416921F001014161202084F83D0084F805
:102800003E00002084F83C000320BDE8F0812068F1
:10281000006836EA000004D00020B842D9D0002079
:10282000F3E70120F9E700000148FFF77FB8000057
:10283000B40100200148FFF779B80000F80100203A
:10284000FEE700000FB4054B10B503A9044A029837
:1028500000F0EEF810BC5DF814FB00003132000807
:102860001C0000200FB4084B10B504A902AA03985D
:1028700000F0DEF8044602A9002000F070FC2046BB
:1028800010BC5DF814FB00005F3100080907090E59
:10289000002804DB00F1E02080F80014704700F00D
:1028A0000F0000F1E02080F8141D704702E008C816
:1028B000121F08C1002AFAD170477047002001E0BA
:1028C00001C1121F002AFBD1704700002DE9FF5FF4
:1028D000DDE90220010DDDF838B0024318D044F6DE
:1028E0001050A1F2FF3141430D140F98012820D060
:1028F000A5EB0B00401C5FEA000A4FF00004474EB6
:10290000DFF81C91A046504616D5CAF1000728E012
:102910000F98012443A2012808D0002100980F9BA2
:10292000C0E90021C0E90243BDE8FF9F6FEA0B0147
:10293000F4E7CBF10000DEE7074612E0F80707D026
:102940002246334640464946FDF7C6FD8046894645
:102950002246334610461946FDF7BEFD04460E4694
:102960007F10002FEAD1DDE90201BAF1000F4246E3
:102970004B4602DAFDF7B0FD01E0FDF71FFE04460D
:102980000E460022284BFDF7A1FE03D84FF0FF3082
:10299000014607E00022254B20463146FDF7F5FCB5
:1029A000FDF77BFE102409E0002C0ADB0A2200233D
:1029B000FDF75DFC019B30321A55641E50EA01029E
:1029C000F2D1641C019AC4F1110314440F9A012A34
:1029D00003D0012208430DD10AE0084304D00020AF
:1029E0004FF0110B0F9080E7A3EB0B056D1E0DE070
:1029F0005B4504DD4FF0000205F1010504E003DA58
:102A00004FF00002A5F10105002AECD000980F99C3
:102A1000C0E90231C0E9004586E70000000024401B
:102A20000000F03F300000000000F0430000E03FF5
:102A30002DE9FF4F95B09B468946064600250FE2DB
:102A4000252877D100242746F84A0121059400E083
:102A5000044316F8013F203B01FA03F01042F7D17E
:102A600030782A2811D06FF02F033078A0F130028F
:102A7000092A16D8059A44F0020402EB820203EBFD
:102A800042021044761C0590EFE759F8042B05929A
:102A9000002A03DA504244F40054059044F0020442
:102AA000761C30782E2816D116F8010F44F0040455
:102AB0002A280DD06FF02F023078A0F13003092BB7
:102AC00009D807EB870302EB4303C718761CF3E72B
:102AD00059F8047B761C30786C280FD006DC4C2823
:102AE00017D068280DD06A2814D104E0742810D0BB
:102AF0007A280FD10DE044F400140AE044F4801465
:102B000001E044F440147278824202D104F580144A
:102B1000761C761C307866280BD013DC582877D0CA
:102B200009DC002875D04528F6D04628F4D047287F
:102B30001AD19DE118E0632835D0642879D0652842
:102B400012D195E1702873D008DC6728F1D069288C
:102B50006FD06E280DD06F2806D1B5E073282CD029
:102B6000752875D0782874D05A46179990476D1CEF
:102B700075E1C4F30250022809D003280DD0D9F81A
:102B8000001004280DD00D6009F1040967E1D9F89F
:102B90000010EA17C1E90052F6E7D9F800100D80DD
:102BA000F2E70D70F0E719F8041B8DF80010002013
:102BB0008DF80100EA46012003E059F804AB4FF01C
:102BC000FF3061074FF0000102D40DE008F1010170
:102BD0008846B9420FDA8045F8DB1AF80810002958
:102BE000F4D108E008F1010188468142FADB1AF8C5
:102BF00008100029F6D105985B46A0EB080721468E
:102C00003846179A00F094FA284400EB080507E0CC
:102C10004DE029E10DE01AF8010B5A46179990474B
:102C2000B8F10108F7D25B4621463846179A13E1FE
:102C300042E00A220092C4F302524FF0000A022A34
:102C400008D059F804CB032A4FEAEC710AD00DE002
:102C500029E02AE009F1070121F00702F2E802C1A8
:102C6000914609E00FFA8CFC4FEAEC71042A03D17B
:102C70004FFA8CFC4FEAEC71002907DA0A46002172
:102C8000DCF1000C61EB02012D2202E0220504D5EB
:102C90002B228DF80420012203E0E20701D020223C
:102CA000F7E7904659E00A2102E010220DE01021DA
:102CB0004FF0000A00910BE010224FF0000A44F0A0
:102CC00004040827009203E008224FF0000A009253
:102CD000C4F30252022A05D059F804CB0021032A7A
:102CE00008D009E009F1070121F00702F2E802C16A
:102CF000914605E01FFA8CFC042A01D10CF0FF0C70
:102D00004FF00008220728D5702806D0009B83F0DA
:102D1000100353EA0A0305D00EE040228DF8042088
:102D2000012208E05CEA010206D030228DF804207E
:102D30008DF8050002229046009B83F0080353EAB9
:102D40000A030AD15CEA010201D1620705D53022EB
:102D50008DF804204FF001087F1E582804D034A0BD
:102D600003900EA802900DE036A0F9E753466046A6
:102D7000009AFDF77CFA84460398825C0298401E14
:102D8000029002705CEA0100F0D1029806A9081ACC
:102D900000F1200A600702D524F4803400E0012706
:102DA000574502DDA7EB0A0000E0002000EB0A0116
:102DB000009005984144401A0590E00306D45B4614
:102DC0002146179A059800F0B3F90544002706E05C
:102DD00001A85A46C05D179990476D1C7F1C474556
:102DE000F6DBE0030CD55B462146179A059800F008
:102DF0009FF9054404E030205A46179990476D1C0E
:102E00000099481E00900029F5DC08E0029802991C
:102E10005A460078491C0291179990476D1CBAF1E7
:102E20000001AAF1010AF1DC65E1000009280100B6
:102E30003031323334353637383961626364656630
:102E400000000000303132333435363738394142F2
:102E5000434445460000000000F058F90544761C44
:102E6000307800287FF4ECAD19B02846BDE8F08F2B
:102E7000620700D4062709F1070222F0070CFCE8DC
:102E80000223E14603F000485FEA080C02D00FF28B
:102E9000702C0DE05FEA045C02D50FF2682C07E0AD
:102EA0005FEAC47C02D00FF2602C01E0AFF2700C3C
:102EB0004FF0FF3823F00043CDF850C065280CD008
:102EC00006DC452809D046281DD047283DD13DE0E5
:102ED000662818D067287ED138E00021112F01DB49
:102EE000112000E0781CCDE9000106A90EA8FFF72B
:102EF000EDFCDDE90F010E9A03910021009207F12C
:102F0000010A04914DE04FF000400097CDE9011017
:102F100006A90EA8FFF7DAFCDDE90F0203920E9B6B
:102F200011990022DDF80CA00093049211B9791CCC
:102F300000EB010AB7EB0A0004D4C0F1FF3007F13F
:102F4000010A0490AAEB0700019044E0012F00DA87
:102F500001270021112F01DD112000E03846CDE9C5
:102F6000000106A90EA8FFF7B1FCDDE90F010E9ADA
:102F70000391002104910092BA4621070CD40399D1
:102F8000514500DA8A46BAF1010F05DD009AAAF12F
:102F90000101515C302908D0B84202DA10F1040F67
:102FA00006DA0121CDE9011015E0AAF10101E9E7F6
:102FB000002805DC049901440491AAEB000102E019
:102FC000411C514500DD8A460499401A401C01907D
:102FD0004FF000400290200704D40198504501DBD7
:102FE000CDF8048000208DF84F0002980DF14F07B6
:102FF000B0F1004F25D02B200E9002984FF0020820
:1030000000280CDA404202902D200E9007E00A21A1
:103010000298FDF716F93031029007F8011DB8F15A
:103020000001A8F10108F2DC02980028EFD1791E16
:103030000E980870307800F0200040F0450007F846
:10304000020D12A8C01B00F107081498007800B107
:10305000012000EB0A01019801EBE0710598414461
:10306000401A401E0590E00306D45B462146179A9D
:10307000059800F05DF805441498007818B15A4698
:10308000179990476D1CE00324D55B462146179A9B
:10309000059800F04DF805441CE00498002807DB73
:1030A000DDE90301884203DD0098405C179901E0E7
:1030B000179930205A469047049805F10105401CA5
:1030C00004900198401E019004D12E205A46179971
:1030D00090476D1CBAF10001AAF1010ADDDC05E0A0
:1030E00017F8010B5A46179990476D1CB8F100016B
:1030F000A8F10108F4DC5B462146179A0598ABE677
:103100002D0000002B000000200000002DE9F04100
:10311000044600251E461746880404D405E03946B7
:103120002020B0476D1C641EF9D52846BDE8F0810B
:103130002DE9F041044600251E469046C80301D5FE
:10314000302700E02027880404D505E041463846B2
:10315000B0476D1C641EF9D52846BDE8F0810A68A9
:10316000531C0B6010707047F0B5ADF5017D07463C
:103170000D4600246E4608E0385D30553119642351
:1031800001221448FEF7A8FD641CAC42F4DB4FF4A6
:1031900000711148FDF701F8104900200870294618
:1031A0000FA0FFF74FFB05232A4618A16846FDF73D
:1031B0000FFE00280ADD00224FF400511548FDF7EC
:1031C0009EFF052229466846FEF7F0FF0DF5017DBA
:1031D000F0BD0000F80100203C0300201500002095
:1031E000A1BE6D61696EA1BF696E666F3A4D5154A3
:1031F00054CAD5B5BDCFFBCFA22CCAFDBEDDB3A44A
:10320000B6C83D2564200A0D0A0000004C45445212
:10321000000000000010014070B50C460546FCF7A8
:1032200091FF2870FCF78EFF2070002070BD000019
:1032300008B502238DF80000012269460248FEF716
:103240004BFD002008BD0000F8010020FDF76AFFDB
:10325000FFF729F9FEF7E2FFFFF772F8FFF78CF8A6
:10326000FFF73AF8012211491148FEF703FDFDF777
:103270007BFA00250F4E2C4628466D1CADB2A628C1
:1032800003D900250CA0FFF7DDFA2046641CA4B288
:10329000642802D90024FFF79BF8317811B10E4859
:1032A000FFF762FF1E20FDF723FEE5E71400002074
:1032B000B401002015000020A1BE6D61696EA1BFA0
:1032C000696E666F3AB3CCD0F2D5FDD4DAD4CBD0E8
:1032D000D0A3A10D0A0D0A003C030020000000004D
:1032E00000000000010203040607080900000000B6
:1032F0000102030476657273696F6E3D32303138B6
:103300002D31302D3331267265733D70726F6475C7
:10331000637473253246353534363332253246648C
:10332000657669636573253246657370303173263F
:1033300065743D32303337323535353233266D657D
:1033400074686F643D6D6435267369676E3D7353B1
:10335000476D2532465269494D676C70346A313188
:10336000787A625871772533442533440000000091
:103370007B226964223A203132332C226470223A53
:10338000207B2274656D7065726174727565223A76
:10339000205B7B2276223A25322E31662C7D5D2CF5
:1033A000202268756D6964697479223A205B7B20FC
:1033B0002276223A25322E31662C7D5D7D7D0000FD
:1033C000E03300080000002020000000AC280008C6
:1033D000003400082000002020090000BC2800085C
:1033E0000100000010000000000000000024F400B4
:1033F00000000000000000000000000000000000CD
:04000005080000ED02
:00000001FF
