:020000040800F2
:10000000A809002001010008932100087D1A0008BA
:100010009121000835020008292600080000000090
:10002000000000000000000000000000492200085D
:100030008502000800000000952100084B220008FE
:100040001B0100081B0100081B0100081B01000820
:100050001B0100081B0100081B0100081B01000810
:100060001B0100081B010008E10700081B01000834
:100070001B0100081B0100081B0100081B010008F0
:100080001B0100081B0100081B0100081B010008E0
:100090001B0100081B0100081B010008E7070008FE
:1000A0001B0100081B0100081B0100081B010008C0
:1000B0001B0100081B0100081B0100081B010008B0
:1000C0001B0100081B0100081B0100081B010008A0
:1000D0001B010008112600081D2600081B0100084E
:1000E0001B0100081B0100081B010008DFF80CD0F1
:1000F00000F08EF8004800472D2B0008A8090020CA
:100100000648804706480047FEE7FEE7FEE7FEE7B1
:10011000FEE7FEE7FEE7FEE7FEE7FEE7AD220008AA
:10012000ED00000840EA01039B0703D009E008C97D
:10013000121F08C0042AFAD203E011F8013B00F8AC
:10014000013B521EF9D27047D2B201E000F8012BF8
:10015000491EFBD270470022F6E710B513460A4647
:1001600004461946FFF7F0FF204610BD421E12F864
:10017000013F002BFBD111F8013B02F8013B002BA2
:10018000F9D1704730B505462A460B4612F8010BE7
:1001900013F8014B08B1A042F8D01CB1002802D0DE
:1001A0006D1CF1E7284630BD421C10F8011B0029E8
:1001B000FBD1801A704710B5002200E0521C835C0E
:1001C0008C5CA34201D1002BF8D1D8B2E1B2401A25
:1001D00010BD034611F8012B00F8012B002AF9D1BC
:1001E0001846704730B50B460146002020220124F6
:1001F00009E021FA02F59D4205D303FA02F5491BF5
:1002000004FA02F52844151EA2F10102F1DC30BD0A
:10021000064C074D06E0E06840F0010394E8070053
:1002200098471034AC42F6D3FFF764FFD82B000890
:10023000F82B0008FEE700004FF40051014800F0E1
:1002400046BD0000001001401FB5082000900120AD
:10025000029000200190032003906946014800F0BD
:1002600041FC1FBD000801401FB50820009001207F
:100270000190032003906946014800F033FC1FBD44
:10028000000801407047000010B500F06BFA00282C
:1002900032D01AA002F0CAF922A125A000F070F90C
:1002A000002822D025A002F0C1F940F25B722DA1F6
:1002B00039A000F0C1F9002819D038A002F0B6F931
:1002C00042A24DA151A001F007FC002811D059A075
:1002D00002F0ACF90122002162A001F075FD50B1DD
:1002E000BDE810406CA002F0A1B9012004E002209A
:1002F00002E0032000E0042000F078FAA1BE6D6166
:10030000696EA1BF696E666F3A4553503832363612
:10031000B3F5CABCBBAFB3C9B9A6A3A10D0A0D0AF8
:1003200000000000313233343536373839300000C0
:1003300048617070794F6E6544617900A1BE6D614E
:10034000696EA1BF696E666F3A45535038323636D2
:10035000C1ACBDD3C8C8B5E3B3C9B9A6A3A10D0A42
:100360000D0A000061316C416F617A644831772E6B
:10037000696F742D61732D6D7174742E636E2D739E
:1003800068616E676861692E616C6979756E637307
:100390002E636F6D0000000054435000A1BE6D61DC
:1003A000696EA1BF696E666F3A4553503832363672
:1003B000C1ACBDD3B0A2C0EFD4C6B7FECEF1C6F774
:1003C000B3C9B9A6A3A10D0A0D0A00003531413504
:1003D0004242313033303645393736443643393886
:1003E0003046373330333746324439343936443285
:1003F0003831334100000000425A4C30312661311F
:100400006C416F617A6448317700000030303030E1
:10041000317C7365637572656D6F64653D332C73F4
:1004200069676E6D6574686F643D686D616373685C
:1004300061317C00A1BE6D61696EA1BF696E666F9E
:100440003A45535038323636B0A2C0EFD4C64D517B
:100450005454B5C7C2BDB3C9B9A6A3A10D0A0D0AAC
:10046000000000002F7379732F61316C416F617A46
:10047000644831772F425A4C30312F7468696E6767
:100480002F736572766963652F70726F7065727411
:10049000792F736574000000A1BE6D61696EA1BF04
:1004A000696E666F3A45535038323636B0A2C0EFA7
:1004B000D4C64D515454B6A9D4C4D6F7CCE2B3C96E
:1004C000B9A6A3A10D0A0D0A0000000070B50C46E4
:1004D00005464FF480710748FFF73DFE06490020AE
:1004E000224608702946BDE870404FF6FF73034866
:1004F00001F06ABA8E03002015000020BC00002025
:1005000010B504464FF480710948FFF724FE0949ED
:1005100000200870084806E0026851600168641C09
:100520000A685206FCD521780029F5D110BD0000DB
:100530008E03002015000020BC00002070B50524AB
:100540004FF400750EE029460948FFF704FE09A0A4
:10055000FFF7D6FFC82209A1054800F0F3F908B15A
:10056000012070BD2046641EE4B2ECD270BD0000D4
:100570008E03002041540D0A000000004F4B000084
:100580002DE9F0478846814605244FF400750CE0BC
:1005900029461A48FFF7DFFD19A0FFF7B1FFC8226F
:1005A0001CA1164800F0CEF910B9641EE4B2EFD2D7
:1005B000ECB1012426024FF4FA5731461648FFF7F2
:1005C000CAFD29460D48FFF7C6FD43464A4613A11A
:1005D000114802F03BF81048FFF792FF3A460DA190
:1005E000064800F0AFF920B10120BDE8F0870020F7
:1005F000FBE72046641EE4B2DFD2F6E78E0300205C
:1006000041542B43574D4F44455F4355523D310DA7
:100610000A0000004F4B00008E02002041542B4383
:10062000574A41505F4355523D222573222C2225C3
:1006300073220D0A000000002DE9F84F1646894686
:10064000824600F07DF84FF4FA7000F023FA02249D
:100650002502E7014FF4FA5817E039462348FFF71F
:100660007AFD29462248FFF776FD4B46524621A1E6
:100670001E48009601F0EAFF1C48FFF741FF424682
:1006800023A11B4800F05EF910B9641EE4B2E4D265
:100690007CB1012429461648FFF75DFD1EA0FFF737
:1006A0002FFFC82220A1124800F04CF920B10124EC
:1006B00007E00020BDE8F88F2046641EE4B2E9D2CE
:1006C000F8E729460A48FFF746FD18A0FFF718FF8C
:1006D000C8221AA1064800F035F908B10120E9E75F
:1006E0002046641EE4B2ECD2E4E700008E02002053
:1006F0008E03002041542B43495053544152543DE2
:10070000222573222C222573222C25640D0A000039
:10071000434F4E4E4543540041542B4349504D4F97
:1007200044453D310D0A00004F4B000041542B431E
:10073000495053454E440D0A000000003E000000A1
:1007400010B507A0FFF7DCFE322000F0A3F904A0EB
:10075000FFF7D6FEBDE81040322000F09BB9000044
:100760002B2B2B0070B54FF480711548FFF7F3FC6D
:100770004FF4007529461348FFF7EDFCFFF7E0FF43
:100780004FF4FA74204600F085F90FA0FFF7B8FE89
:100790004FF4487000F07EF9FFF7D0FE00280ED02D
:1007A00029460848FFF7D7FC0AA0FFF7A9FE224612
:1007B0000AA1044800F0C6F8002800D0012070BD4E
:1007C0008E0200208E03002041542B5253540D0AF8
:1007D00000000000415445300D0A00004F4B00005E
:1007E000102000F073B9202000F070B90446052CE9
:1007F00016D2DFE804F003050F11130009A000E092
:1008000012A001F013FF1BA001F010FFC82000F0A0
:1008100041F9ECE71EA0F4E729A0F2E734A0F0E7E5
:1008200040A0EEE7A1BE6D61696EA1BF6572726FF7
:10083000723A45535038323636B3F5CABCBBAFCAEC
:10084000A7B0DCA3A10D0A0D0A000000A1BE6D61D6
:10085000696EA1BF6572726F723A45535038323675
:1008600036C1ACBDD3C8C8B5E3CAA7B0DCA3A10DDF
:100870000A0D0A00A1BE6D61696EA1BF696E666F47
:100880003AC7EBD6D8C6F4BFAAB7A2B0E50D0A00A6
:10089000A1BE6D61696EA1BF6572726F723A4553F8
:1008A0005038323636C1ACBDD3B0A2C0EFD4C6B7D3
:1008B000FECEF1C6F7CAA7B0DCA3A10D0A0D0A004F
:1008C000A1BE6D61696EA1BF6572726F723A4553C8
:1008D0005038323636B0A2C0EFD4C64D515454B55C
:1008E000C7C2BDCAA7B0DCA3A10D0A0D0A00000053
:1008F000A1BE6D61696EA1BF6572726F723A455398
:100900005038323636B0A2C0EFD4C64D515454B62A
:10091000A9D4C4D6F7CCE2CAA7B0DCA3A10D0A0DB6
:100920000A000000A1BE6D61696EA1BF696E666FAD
:100930003A4E6F7468696E670D0A0D0A0000000078
:1009400072B6FEE770B506460A20B2FBF0F40D461B
:1009500002E00A2000F09EF829463046FFF712FC1C
:1009600010B9641EA4B2F4D20CB1012070BD0020F5
:1009700070BD00002DE9F04700241E46671E154695
:1009800088468146B2420DD333462246084948463E
:1009900001F001FC06494046FFF70DFC28B1641C3C
:1009A000AC42F1DB3846BDE8F0872046FBE70000AB
:1009B0007002002010B590F821100022022905D005
:1009C0000421816380F82020012010BD01680B689C
:1009D00023F00E030B6001680B6823F001030B602A
:1009E00090F84030C46B012101FA03F3636080F892
:1009F000211080F82020104610BD000010B590F89E
:100A000021100024022903D00421816301243DE048
:100A100001680A6822F00E020A6001680A6822F082
:100A200001020A601A4A0168914201D1012121E0C4
:100A3000174A1432914201D110211BE0144A283286
:100A4000914201D1891515E0114A3C32914201D100
:100A500089140FE00E4A5032914202D14FF4803196
:100A600008E00B4A6432914202D14FF4801101E058
:100A70004FF08071064A083A5160012180F8211038
:100A8000002180F82010416B01B18847204610BD3D
:100A90000800024070B5044600F026F90546601CC7
:100AA00002D004480078044400F01EF9401BA04224
:100AB000FAD370BD00000020102803D0202803D1F5
:100AC00000F0F6BF00F0DCBF70470000044910B52D
:100AD0000A68024202D00860FFF7EEFF10BD000076
:100AE000140401402DE9F84FDFF8B891002409F112
:100AF000040A0AF1040B23460F270BF1040EC9E088
:100B00000125A5402A40AA427DD1674ED1F804C0F4
:100B1000ACEB0608B44532D014DCBCF1030F3AD07C
:100B200009DCBCF1000F2AD0BCF1010F1CD0BCF1D4
:100B3000020F31D11DE0BCF1110F17D0BCF1120F23
:100B40002AD119E0B8F5881F19D006DCB8F5803F26
:100B500015D0B8F5801F1FD111E0B8F5001F0ED0D9
:100B6000B8F5041F18D10AE0CB6815E0CB681B1D4F
:100B700012E0CB6808330FE0CB680C330CE08B68D5
:100B80002BB1012B4FF0080303D0456104E004238F
:100B900002E0056100E00023FF2A01D8064601E0DB
:100BA00000F104064FEA840501D9A5F12005D6F825
:100BB000008007FA05FC28EA0C0803FA05F548EA64
:100BC0000508C6F800804D68ED0062D5374DAE6966
:100BD00046F00106AE61AD6924F0030605F001059B
:100BE0000095334D06EB050CDCF80850A607360FD0
:100BF00007FA06F825EA0805DFF8B880404503D172
:100C00004FF0000817E044E0DFF8AC80404502D127
:100C10004FF001080FE0DFF8A480404502D14FF00B
:100C2000020808E0DFF89880404502D14FF0030841
:100C300001E04FF0040808FA06F848EA0508CCF885
:100C400008804D68D9F80060ED034D4601D5164384
:100C500000E096432E604D68DAF80060AD0355461B
:100C600001D5164300E096432E604D68DBF8006026
:100C7000ED025D4601D5164300E096432E604D68B7
:100C8000DEF80060AD02754601D5164300E09643DC
:100C90002E60641C0D682A46E5407FF431AFBDE844
:100CA000F88F000000040140000011100010024005
:100CB0000000014000080140000C0140001001400C
:100CC000001401408068084000D001207047C268CD
:100CD00021EA02030A4043EA0241016170470AB176
:100CE000016170470904FBE7014880687047000014
:100CF000000000200248816802781144816070473A
:100D000000000020074810B5016841F010010160A3
:100D1000032000F075F8002000F006F800F024F839
:100D2000002010BD0020024070B50D4D04464FF468
:100D30007A712878B1FBF0F00A490968B1FBF0F04C
:100D400000F074FB48B9102C07D200222146501E37
:100D500000F036F800206C6070BD012070BD00000E
:100D6000000000200C0000200C4808B5816941F00B
:100D700001018161816901F001010091C16941F0C6
:100D80008051C161C06900F0805000900448416802
:100D900021F0E06141F00071416008BD00100240A7
:100DA00000000140002809DB00F01F0201219140F2
:100DB0004009800000F1E020C0F8001170470000F9
:100DC000F0B40E4B1B680C46C3F30223C3F10705B6
:100DD000042D00D90425191D072901D2002300E0A4
:100DE000DB1E012606FA05F1491E214099409E406E
:100DF000761E16403143F0BC01F03CBC0CED00E027
:100E0000064900F0070208684FF6FF03184040EA61
:100E10000220034A10430860704700000CED00E018
:100E20000000FA052DE9F0470F46050061D0434E5A
:100E3000306800F00700B84209D2306820F007009F
:100E400038433060306800F00700B84251D128685C
:100E50003B4C810712D5400703D5606840F4E06041
:100E600060602878000703D5606840F460506060D7
:100E70006068A96820F0F000084360602878C00727
:100E800028D06868012810D02168022810D089076E
:100E900000292EDA616821F0030101436160FFF748
:100EA00023FF804641F288390DE021688903EFE78E
:100EB0008901EDE7FFF718FFA0EB0801494502D9CA
:100EC0000320BDE8F0876068696800F00C00B0EBB3
:100ED000810FEFD1306800F00700B8420BD93068BD
:100EE00020F0070038433060306800F00700B84257
:100EF00001D00120E5E72878400705D56068E9685A
:100F000020F4E060084360602878000706D5606838
:100F1000296920F4605040EAC100606000F038F8B0
:100F20006168084AC1F30311515CC8400649086072
:100F300006480068FFF7F8FE0020C2E700200240E4
:100F400000100240C02B00080C000020040000200C
:100F50000448054900684968044AC1F30221515C0C
:100F6000C84070470C00002000100240D02B000841
:100F70000448054900684968044AC1F3C221515C2C
:100F8000C84070470C00002000100240D02B000821
:100F900012A185B00FC98DE80F0014A0144A006893
:100FA00004905168134801F00C03042B10D0082B57
:100FB0000ED1C1F38343C9031DF803000AD551685C
:100FC00004AAC1F34041515C0A4A5043B0FBF1F01E
:100FD00005B0704708494843FAE7000002030405DA
:100FE000060708090A0B0C0D0E0F10100102000075
:100FF0000010024000127A0000093D002DE9F84F70
:10100000040070D02078C04DC00749D06868C0F394
:101010008100012807D06868C0F38100022809D147
:101020006868C00306D52868800339D56068002841
:10103000E7D035E06068B0F5803F0BD010B1B0F577
:10104000A02F11D0286820F480302860286820F470
:10105000802002E0286840F480302860606890B109
:10106000FFF742FE06460AE0286840F48020286028
:10107000F0E700BFFFF738FE801B642873D82868AC
:101080008003F7D50CE0FFF72FFE064605E000BF12
:10109000FFF72AFE801B6428F0D828688003F7D465
:1010A00020789A4E80074FF001094FF0000839D59B
:1010B000686810F00C0F07D06868C0F38100022840
:1010C00009D16868C00306D42868800714D5206950
:1010D000012808D110E02069B0B1C6F80090FFF7F0
:1010E00003FE074605E00AE1FFF7FEFDC01B0228EC
:1010F000C4D828688007F7D52868616920F0F8000F
:1011000040EAC10028600DE0C6F80080FFF7ECFD62
:10111000074604E0FFF7E8FDC01B022823D8286833
:101120008007F7D4207800072CD57948A169D9B178
:10113000C0F80090FFF7D8FD074604E0FFF7D4FDA4
:10114000C01B02280FD8686A8007F7D571484FF492
:10115000FA510068B0FBF1F0009000BF0098411E0A
:101160000091FAD20EE080E0C0F80080FFF7BCFDED
:10117000074604E0FFF7B8FDC01B022875D8686A6F
:101180008007F7D42078400760D5E8690027C000C1
:1011900008D4E86940F08050E861E869012700F070
:1011A000805000905C480168C90513D401688346EB
:1011B00041F480710160FFF797FD824606E000BFB1
:1011C000FFF792FDA0EB0A0064284ED8DBF8000080
:1011D000C005F5D5E06801280AD008B1052813D06C
:1011E000286A20F001002862286A20F0040002E04A
:1011F000286A40F001002862E06841F2883B98B11B
:10120000FFF772FD82460BE0286A40F00400286276
:10121000EEE700BFFFF768FDA0EB0A0159455AD879
:10122000286A8007F6D50CE0FFF75EFD824605E0F0
:10123000FFF75AFDA0EB0A0159454CD8286A8007F0
:10124000F6D41FB1E86920F08050E861E06988B306
:101250006968C1F38101022944D00228C6F8608080
:1012600004D0FFF741FD044638E034E0FFF73CFDD1
:10127000074604E0FFF738FDC01B02282BD828687A
:101280008001F7D4206AB0F5803F05D16868A16875
:1012900020F4003008436860D4E908010843696815
:1012A00021F4741108436860C6F86090FFF71CFDD4
:1012B000044606E025E000BFFFF716FD001B0228EC
:1012C00009D828688001F7D51BE000BFFFF70CFDA7
:1012D000001B022802D90320BDE8F88F286880018E
:1012E000F4D40EE00128F7D06868226A00F4803157
:1012F000914204D1616A00F47010884201D001204B
:10130000EAE70020E8E70000001002400000424247
:10131000800442420C0000200070004070B50400C0
:1013200009D0606A002540B125616561A56294F825
:10133000510040B10CE0012070BD6068B0F5827FC3
:10134000F4D0E561F2E784F85050204600F040F810
:10135000022084F851002068016821F040010160FA
:10136000A088218900F4827001F404410843A18916
:1013700001F400610843217C01F002010843217D52
:1013800001F001010843218B01F400710843217F22
:1013900001F03801084394F8201001F0800108435F
:1013A000218D01F40051084321680860A0690421DF
:1013B00001EA1040216848602068C16921F4006199
:1013C000C1616565012084F85100002070BD0000F6
:1013D00000B585B000210091019102910391006850
:1013E0000F4988421AD10F48816941F480518161C7
:1013F000816901F480510491816941F004018161A6
:101400008069694600F004000490A020009002204A
:101410000190032003900448FFF764FB05B000BD72
:1014200000300140001002400008014010B5401E8D
:10143000B0F1807F01D3012010BD4FF0E024606146
:101440000F21601701F016F90020A061072020612C
:10145000002010BD70B590F83C20012A26D0012450
:1014600080F83C40022280F83D2003685A689D685D
:1014700022F070060A6832435A600D4B02689A42A5
:1014800008D0B2F1804F05D00A4B9A4202D00A4BE5
:101490009A4204D1496825F080031943916080F88D
:1014A0003D40002180F83C10084670BD022070BD10
:1014B000002C0140000400400008004010B504006A
:1014C00003D094F83D0010B107E0012010BD0020CA
:1014D00084F83C00204600F01FF8022084F83D000C
:1014E000211D206800F004FF012084F8460084F8E4
:1014F0003E0084F83F0084F8400084F8410084F8FE
:10150000420084F8430084F8440084F8450084F8DD
:101510003D00002010BD000008B500680649884263
:1015200008D10648816941F400618161806900F455
:101530000060009008BD0000002C01400010024037
:1015400070B5044690F83C00012817D0012584F8B6
:101550003C50022084F83D002068826822F0770227
:1015600022F47F4282600868502830D00DDC2028A9
:101570004DD005DC98B310283BD148E0022070BD67
:10158000302844D0402834D139E0602828D0702851
:1015900006D0B0F5805F2CD0B0F5005F29D10AE00D
:1015A000CB68D1E90121206800F0D8FE206881686D
:1015B00041F0770109E0CB68D1E90121206800F012
:1015C000CDFE2068816841F48041816011E0CA68E5
:1015D0004968206800F0D4FE5021206807E016E03A
:1015E000CA684968206800F0DCFE6021206800F0CD
:1015F000BFFE84F83D50002084F83C0070BDCA68EE
:101600004968206800F0BCFE40212068EFE72268AE
:1016100001461046EBE7704770470000F8B50268D6
:1016200004461068D168536910F00F0F4FF00005A1
:1016300054D003F0010601F4907737435FD0C2071E
:1016400005D0CA0503D5226C42F00102226442078C
:1016500005D5DA0703D0226C42F002022264820729
:1016600005D5DA0703D0226C42F004022264020797
:1016700007D501F02002324303D0226C42F0080269
:101680002264226C002A35D0800604D5880602D553
:10169000204600F0B8FE20684069216CC0F380103D
:1016A00001F008010143204625D000F094FE206897
:1016B000416949061BD5416921F040014161A06B98
:1016C000A8B158494163A06BFFF798F9002811D0E1
:1016D000A06B416B01B0BDE8F040084783060ED512
:1016E0008B060CD52046BDE8F84000F08CBE2046A5
:1016F000FFF792FFF8BDFFF78FFF2564F8BD266B5B
:101700002023012E52D1C60650D5CE064ED51068E4
:1017100050680090506940062AD5A16B086840685F
:101720000004000CEAD0A68D8642E7D9E0858869DE
:10173000202818D0D06820F48070D06020684169DB
:1017400021F0010141612068416921F040014161BE
:1017500084F83E3025632068C16821F01001C16023
:10176000A06BFFF727F9A08DE18D401A81B219E037
:10177000A08DE18D401A81B2E08D0028BED00029F5
:10178000BCD0D06820F49070D0602068426922F00C
:101790000102426184F83E3025632068C26822F06D
:1017A0001002C2602046FFF736FFF8BD05062BD5B4
:1017B0000D0629D594F83D002128F6D1A068B0F592
:1017C000805F01D12069B0B1206A411C216221688B
:1017D00000784860E08C401E0004000CE084E4D1F6
:1017E0002068C16821F08001C1602068C16841F0B3
:1017F0004001C160F8BD206A0088C0F30800506055
:10180000206A801C2062E5E74006F3D54806F1D542
:10181000D168204621F04001D16084F83D3000F0CD
:101820002CF9F8BDC723000870B5040004D094F863
:101830003D00002510B106E0012070BD84F83C5049
:10184000204600F023F8242084F83D002068C16879
:1018500021F40051C160204600F030FE206801698B
:1018600021F4904101612068416921F02A01416120
:101870002068C16841F40051C1602564202084F8CB
:101880003D0084F83E00002070BD000070B586B0B9
:10189000002400940194029403942E4E03682E4970
:1018A000022003222D4DB34226D18B6943F480439D
:1018B0008B618B6903F4804304938B6943F00403C9
:1018C0008B618969039201F0040104910102CDE961
:1018D000001069462846FFF705F92815CDE90004F0
:1018E000694628460294FFF7FDF8002203212520CF
:1018F000FFF766FA252028E0194EB34227D1CB69BD
:1019000043F40033CB61CB6903F4003304938B6958
:1019100043F004038B618969039201F0040104918F
:101920000421CDE9001069462846FFF7DBF80820BE
:10193000CDE90004694628460294FFF7D3F8002257
:1019400003212620FFF73CFA2620FFF72BFA06B0EA
:1019500070BD000000380140001002400008014046
:101960000044004090F83E30202B0ED159B152B1C6
:1019700090F83C30012B08D0012380F83C30002344
:10198000036300F0F7BD012070470220704700009C
:101990000068084988420CD107480949074B02787A
:1019A00008781A54401C0870012203490548FFF7C3
:1019B000D9BF704700380140140000208E0300207A
:1019C00015000020BC0000202DE9F843044690F8E3
:1019D0003D001F4616460D4620284CD1C5B1BEB16C
:1019E00094F83C00012846D0012084F83C004FF0D8
:1019F0000008C4F84080212084F83D00FFF774F906
:101A0000A6848146E684A068B0F5805F03D004E038
:101A10000120BDE8F883206928B12E465FF000055B
:101A200084F83C800EE00026FAE78021204600F092
:101A3000BCFDA0B9AEB116F8010B21684860E08C7E
:101A4000401EE084E08C4B464FF0000200970028D7
:101A5000EBD14FF04001204600F0A7FD30B103204C
:101A6000D7E735F8020BC0F30800E6E7202084F83A
:101A70003D000020CDE70220CBE77047FEE70000E5
:101A800010B503A000F0D2FDBDE81040FEF7D4BBB6
:101A9000A1BE6D61696EA1BF64656275673ACED201
:101AA000B0B4CFC2C1CB4B45595F310D0A0D0A000E
:101AB00001A000F0BBBD0000A1BE6D61696EA1BFB9
:101AC00064656275673ACED2B0B4CFC2C1CB4B4524
:101AD000595F320D0A0D0A002DE9F74F92468346F1
:101AE000FEF762FB07460198FEF75EFB064650468E
:101AF000FEF75AFB764C002205466280B8196188D1
:101B000028444FF0100C734B03EB0108491C618013
:101B100088F800C01030C11700EB516121F07F0C34
:101B2000A0EB0C0000F0FF0CC811002801DD4CF008
:101B3000800C618803EB010801F10101618088F8E4
:101B400000C0E8DC6188994618460B4401F10101A8
:101B500061801A7061884FF0040800EB010301F105
:101B60000101618083F8008061884FF04D0300EB34
:101B7000010C01F1010161808CF8003061884FF0A7
:101B8000510300EB010C01F1010161808CF8003080
:101B900061884FF0540300EB010C01F101016180F9
:101BA0008CF80030618800EB010C01F101016180CB
:101BB0008CF80030618800EB010301F101016180C4
:101BC00083F8008061884FF0C20300EB010C01F143
:101BD000010161808CF80030618800EB010301F1A4
:101BE000010161801A7061884FF03C0200EB010333
:101BF00001F1010161801A7061884FEA172200EB40
:101C0000010301F1010161801A70618800EB01029A
:101C100001F101016180177061883A4609EB01000A
:101C20005946FEF77FFA608838446080002E15DD43
:101C30006088320A09EB0003401C60801A706088DB
:101C400009EB0002401C60801670608832464844F0
:101C50000199FEF767FA608830446080002D15DD39
:101C600060882A0A09EB0003401C60801A706088B3
:101C700009EB0002401C6080157060882A464844C9
:101C80005146FEF74FFA608828446080124F0126C3
:101C90004FF4007841461048FEF75DFA61880D4820
:101CA00000F090F81D253878202802D17878022895
:101CB0000BD06420FEF7EEFE6D1EEDB2F3D230467F
:101CC000761EF6B2E6D2BDE8FE8F0120FBE70000EB
:101CD000100000208E0200208E0300202DE9F04726
:101CE00090468A468146FEF75FFA06465046FEF762
:101CF0005BFA324C074600206080B8F1000F06EB1B
:101D0000070001D0001D00E0801C618830222C4DAE
:101D10006B18491C61801A70C11700EB516121F0EA
:101D20007F02801AC2B2C811002801DD42F0800291
:101D3000618805EB010301F1010161801A70EBDCA0
:101D400060884FEA162105EB000200F10100608077
:101D50001170608805EB000100F1010060800E70D9
:101D60006088324628444946FEF7DCF960883044F2
:101D70006080B8F1000F0FD0104960884A782B18A6
:101D8000401C60801A70097860882A18401C6080A6
:101D900011702088401C208060883A4628445146B3
:101DA000FEF7C0F96088384460806188044800F01C
:101DB00009F86088C0B2BDE8F0870000100000207C
:101DC0008E020020FEF782BB2DE9F047464C4FF013
:101DD0000008174689468246A4F80280FEF7E4F917
:101DE000424D0646002F02D04FF0010001E04FF0B7
:101DF0000000304400F1040002D04FF0820201E004
:101E00004FF0A202618805EB010301F1010161803D
:101E100083F800204FEAE07100EB516121F07F026E
:101E2000A0EB0200C2B24FEAE110002801DD42F04F
:101E30008002618805EB010301F1010161801A70E4
:101E4000E8DC608805EB000100F10100608081F8AA
:101E5000008060884FF0010105EB000200F10100F5
:101E60006080117060884FEA162105EB000200F1D6
:101E7000010060801170608805EB000100F1010035
:101E800060800E706088324628445146FEF74AF959
:101E90006088304460802FB160882A18401C6080C0
:101EA00082F80090124F01254FF400784146104807
:101EB000FEF751F961880D48FFF784FF1D26387839
:101EC000902802D17878032809D06420FEF7E2FD3B
:101ED000761EF6B2F3D26D1EEDB2E7D215B1012037
:101EE000BDE8F0870020FBE7100000208E020020F4
:101EF0008E03002070B5D6B00E4604461546282144
:101F00004BA8FEF728F900234BA9701BC2182244E6
:101F100012F8232CCA545B1C242BF7DB07A168465C
:101F2000FEF757F94BA96846FEF720F900220CA1ED
:101F30006846FFF7D3FE56B070BD00002473797376
:101F40002F3535343633322F6573703031732F634C
:101F50006D642F726573706F6E73652F00000000E3
:101F60004F4B00002DE9F04385B000253B4800951C
:101F7000019502950395816941F0100181618169A4
:101F800001F010010491816941F0200181618169B2
:101F900001F020010491816941F0040181618169AE
:101FA00001F004010491816941F0080181618069B7
:101FB000012200F008002A4F5403049021463846BD
:101FC000FEF78DFEDFF89C80002253214046FEF78D
:101FD00086FEDFF89490012208214846FEF77FFE36
:101FE000009401AA0124022682E87000694638465E
:101FF000FEF778FD0320CDE9026000946946019464
:102000004046FEF76FFD52208DE87100694640465C
:10201000FEF768FD08208DE8710069464846FEF726
:1020200061FD302000901148CDE901046946484621
:10203000FEF758FD002205210A20FEF7C1FE0A2006
:10204000FEF7B0FE002205211720FEF7B9FE17208B
:10205000FEF7A8FE05B0BDE8F083000000100240C6
:102060000010014000080140000C01400000111068
:10207000104810B50E4901604FF482714160002193
:102080008160C1604FF400720161C0E9051208224D
:10209000C0E90721416281620A21C162FFF73EF96E
:1020A000002803D0BDE81040FEF74ABC10BD000078
:1020B000003001401C00002010B586B000241748F5
:1020C00000940194029403940494134905940160CC
:1020D0000621C0E901144FF6FF71C0E90314446101
:1020E0008461FFF7EBF908B1FEF72AFC4FF480504A
:1020F000009069460948FFF723FA08B1FEF720FC73
:10210000049404A905480594FFF7A4F9002801D018
:10211000FEF716FC06B010BD002C01407400002034
:102120000C4810B50A4901604FF4E13141600021CB
:1021300081600C22C160C0E904128161C161FFF7B6
:1021400073FB002803D0BDE81040FEF7F9BB10BDBB
:1021500000380140BC0000200C4810B50A4901605D
:102160004FF4E1314160002181600C22C160C0E97F
:1021700004128161C161FFF757FB002803D0BDE85D
:102180001040FEF7DDBB10BD004400400001002000
:10219000FEE7FEE7704730B5002403E01519455D02
:1021A0000D55641C9C42F9DB0020085530BD000031
:1021B0001CB5002401A9684600F0E6FB48B1641C88
:1021C000E4B20A2CF6D30022064907A0FFF786FDE9
:1021D0001CBD9DF804209DF8001010A000F026FA08
:1021E000F1E70000440100202F7379732F61316CF7
:1021F000416F617A644831772F425A4C30312F74E5
:1022000068696E672F6576656E742F70726F706582
:102210007274792F706F737400000000A1BE6D613D
:10222000696EA1BF696E666F3A74656D70657261A3
:10223000747572653D25642C68756D69646974797F
:102240003D2564200A0D0A007047FEF753BD30B5E6
:102250008FB028216846FDF77EFF14210AA8FDF7FC
:102260007AFF01210804CDE9001000240294022520
:102270000491CDE907504FF4E01009906846FEF74D
:10228000BDFE08B172B6FEE70F20CDE90A054FF496
:102290008060CDE90C4002210AA80E94FEF7C2FD31
:1022A000002801D072B6FEE70FB030BD70470000C5
:1022B0000E4900220B685A620A68136843F0010352
:1022C000136000EB80020868416AB1EB420FFBD358
:1022D000016A41F21112114207D1016A92101142B2
:1022E00003D1016821F001010160704774000020F2
:1022F000F0B50268164B174C174D4FF080479842C7
:1023000005D0B84203D0A04201D0A84203D122F0A8
:1023100070064A683243984205D0B84203D0A042C2
:1023200001D0A84203D122F44074CA6822434C6908
:1023300022F08002224302608A68C2620A688262D6
:10234000984201D10969016301214161F0BD00009A
:10235000002C0140000400400008004010B58468D3
:1023600042EA032224F47F440A432243826010BDE0
:10237000826822F070020A4342F0070181607047D0
:1023800010B5036A046A24F001040462846924F02D
:10239000F00444EA021423F00A020A438461026250
:1023A00010BD10B5036A23F0100303628369046A49
:1023B00023F4704343EA023224F0A00343EA0111FC
:1023C0008261016210BD10B5406A0021C185C184DF
:1023D000FFF722F910BD0168CA6822F49072CA6042
:1023E00001684A6922F001024A61016B012904D1A6
:1023F0000168CA6822F01002CA60202180F83E10ED
:1024000000210163704708B590F83E10222901D0E1
:10241000022008BD82684FF480539A4201D10169BD
:1024200021B1816A9A421BD04AB10AE00268816AEE
:102430005268C2F308020A80816A891C08E00269B6
:1024400072B10268526802F07F020A70816A491C08
:102450008162C18D491E0904090CC18503D019E0B0
:1024600002685268F1E70168CA6822F02002CA6077
:102470000168CA6822F48072CA6001684A6922F061
:1024800001024A61202180F83E10016B012903D02E
:10249000FFF77EFA002008BD002101630168CA68C9
:1024A00022F01002CA6001680A68D20602D50A68E2
:1024B00049680091818DFFF7AEF8EBE770B50446EF
:1024C00000680169E26821F440511143016121690A
:1024D000A0680843616908432168CA6841F20C6337
:1024E0009A430243CA6020684169A26921F440719D
:1024F000114341611E492068884202D1FEF738FD30
:1025000001E0FEF725FD00EBC00101EB0012606861
:1025100064218000B2FBF0F3B3FBF1F36FF0180617
:102520007343B2FBF0F5B2FBF0F605EB8305322303
:1025300003EB0515B5FBF1F5B6FBF1F605F0F0057B
:1025400005EB0615B2FBF0F6B2FBF0F0B0FBF1F0D4
:102550006FF01802504306EB800003EB0010B0FB55
:10256000F1F0216800F00F002844886070BD000081
:102570000038014081628285C285002101642222E7
:1025800080F83E2080F83C100168CA6842F48072EE
:10259000CA6001684A6942F001024A610068C16884
:1025A00041F02001C160002070472DE9F0419846BC
:1025B00017460E460446069D1DE0681C1BD02DB133
:1025C000FEF792FBA0EB0800A84214D92068C1686E
:1025D00021F4D071C1602068416921F0010141619D
:1025E000202084F83D0084F83E00002084F83C0060
:1025F0000320BDE8F0812068006836EA000004D0BE
:102600000020B842D9D00020F3E70120F9E700000C
:102610000148FFF703B80000BC0000200148FEF7A6
:10262000FDBF000000010020FEE700000FB4054BD5
:1026300010B503A9044A029800F03CF810BC5DF8FC
:1026400014FB0000112B0008180000200FB4084BE9
:1026500010B504A902AA039800F02CF8044602A9B8
:10266000002000F003F9204610BC5DF814FB0000C8
:102670006D2800080907090E002804DB00F1E0209E
:1026800080F80014704700F00F0000F1E02080F89F
:10269000141D704702E008C8121F08C1002AFAD1B1
:1026A00070477047002001E001C1121F002AFBD1D2
:1026B000704700002DE9FF4F8BB09A460F46054644
:1026C000002606E025280BD052460D9990476D1C38
:1026D000761C28780028F5D10FB03046BDE8F08F81
:1026E0000024A0460122604900E0044315F8013FA0
:1026F000203B02FA03F00842F7D128782E2817D1A0
:1027000015F8010F44F004042A280ED06FF02F02B0
:102710002878A0F1300109290AD808EB880102EBDA
:10272000410100EB01086D1CF2E757F8048B6D1CAA
:10273000287869283ED006DC0028CDD063280BD04D
:10274000642804D136E0732810D075284BD0524647
:102750000D999047761C85E017F8040B8DF8000062
:1027600000208DF80100E946012003E057F8049BA2
:102770004FF0FF3061074FF0000401D40AE0641C01
:1027800044450DDA8442FADB19F804100029F6D129
:1027900006E0641C8442FCDB19F804100029F8D11F
:1027A000264404E019F8010B52460D999047641E27
:1027B000F8D257E001CF4FF00A0B002802DA40426E
:1027C0002D2102E0210504D52B218DF824100121B3
:1027D00003E0E10705D02021F7E70DF1200908917A
:1027E0000CE00021F9E701CF4FF00A0BF9E7594659
:1027F000FDF7F8FC01F1300209F8012D0028F6D1AF
:10280000ADEB090000F1200B600701D44FF0010887
:10281000D84502DDA8EB0B0000E000208046002434
:1028200006E009A85246005D0D999047641C761C8D
:1028300008988442F5DB04E0302052460D99904719
:10284000761CB8F10001A8F10108F5DC05E019F8E3
:10285000010B52460D999047761CBBF10001ABF17C
:10286000010BF4DC6D1C34E7092801000A68531CD5
:102870000B60107070470000F0B5ADF5017D0746A4
:102880000D4600246E4608E0385D3055311964234A
:1028900001221448FFF798F8641CAC42F4DB4FF4B3
:1028A00000711148FDF757FC1049002008702946B7
:1028B0000FA0FFF7BBFE05232A4618A16846FEF7C6
:1028C00059F800280ADD00224FF400511548FEF7A0
:1028D00006FA052229466846FFF70CFB0DF5017D37
:1028E000F0BD0000000100208E0300201500002034
:1028F000A1BE6D61696EA1BF696E666F3A4D51549C
:1029000054CAD5B5BDCFFBCFA22CCAFDBEDDB3A442
:10291000B6C83D2564200A0D0A0000004C4544520B
:10292000000000000010014080B2FFF7C1BC0000B1
:1029300070B50024FDF788FC124D04E0641CE4B27D
:102940000120FFF7F1FF08212846FEF7BBF910B17F
:10295000642CF3D30FE0642C0DD2002404E0641C3B
:10296000E4B20120FFF7E0FF08212846FEF7AAF9AC
:1029700018B1642C04D3012070BD642CEFD3FAE7A6
:10298000002070BD000801402DE9FC5F002489464D
:102990008246A0462546264600F0A2F8FFF7C8FF6B
:1029A00010B10120BDE8FC9F0027EB4600F062F863
:1029B0000BF807007F1CFFB2052FF7D39DF800101E
:1029C0009DF801009DF803300A189DF802000344A9
:1029D0001A449DF804309A4201D10C46804624489E
:1029E00001780A2910D200EB410181F802800178B8
:1029F00000EB4101CC700178491CC9B201700A2971
:102A000007D30A2141701AE080F80280C4700121C6
:102A10000170417811B10A2911D027E00021027814
:102A20000AE000BF00EB4103491C9C78DB782C4492
:102A30003344A5B29EB2C9B28A42F3D80EE090F8F0
:102A40000120002100EB4103491C9C78DB782C44D9
:102A50003344C9B2A5B29EB28A42F3D8B5FBF2F0B4
:102A6000B6FBF2F18AF8000089F80010002099E71F
:102A70008E0500202DE9F0410020184E0546400645
:102A8000070E002404E0641CE4B20120FFF74CFFB1
:102A900008213046FEF716F908B1642CF3D3002460
:102AA00004E0641CE4B20120FFF73EFF0821304639
:102AB000FEF708F908B9642CF3D31E20FFF734FFA2
:102AC00008213046FEF7FEF800B101206D1C3843A6
:102AD000EDB2082DD3D3BDE8F0810000000801401D
:102AE00010B5FDF7C1FB094C002208212046FEF776
:102AF000F6F81420FDF7CEFF012208212046FEF74C
:102B0000EEF8BDE810401E20FFF70EBF00080140A0
:102B100008B502238DF80000012269460248FEF73D
:102B200053FF002008BD000000010020FEF7EAF876
:102B3000FFF78DFBFFF716FAFFF79AFAFFF7F0FAA7
:102B4000FFF70AFBFFF7B8FA012211491148FEF717
:102B500009FFFDF799FB00250F4E2C4628466D1CFA
:102B6000ADB2A62803D900250CA0FFF75FFD2046D3
:102B7000641CA4B2642802D90024FFF719FB317841
:102B800011B10E48FFF778FE1E20FDF783FFE5E741
:102B900014000020BC00002015000020A1BE6D61C3
:102BA000696EA1BF696E666F3AB3CCD0F2D5FDD421
:102BB000DAD4CBD0D0A3A10D0A0D0A008E030020D9
:102BC00000000000000000000102030406070809DD
:102BD0000000000001020304F82B000800000020A0
:102BE0001C00000094260008142C00081C00002083
:102BF0008C090000A426000801000000100000005D
:102C0000000000000024F4000000000000000000AC
:042C100000000000C0
:04000005080000ED02
:00000001FF
