:020000040800F2
:10000000C0080020050100089D2B0008A524000859
:10001000992B0008ED070008653200080000000079
:10002000000000000000000000000000552D000846
:10003000F107000800000000A12B0008572D000860
:100040001F0100081F0100081F0100081F01000810
:100050001F0100081F0100081F0100081F01000800
:100060001F0100081F0100081F0100081F010008F0
:100070001F0100081F0100081F0100081F010008E0
:100080001F0100081F0100081F0100081F010008D0
:100090001F0100081F0100081F0100081F010008C0
:1000A0001F0100081F0100081F0100081F010008B0
:1000B0001F0100081F0100081F0100081F010008A0
:1000C0001F0100081F0100081F0100081F01000890
:1000D0001F0100081532000845320008553200089B
:1000E0001F0100081F0100081F010008DFF810D0E1
:1000F00000F06AFB00480047E1410008AFF30080D0
:10010000C00800200648804706480047FEE7FEE793
:10011000FEE7FEE7FEE7FEE7FEE7FEE7FEE7FEE7B7
:10012000C92D0008ED000008202A04DB203A21FA3E
:1001300002F00021704721FA02F3D040C2F1200200
:10014000914008431946704740EA01039B0703D0DA
:1001500009E008C9121F08C0042AFAD203E011F806
:10016000013B00F8013B521EF9D27047D2B201E0C8
:1001700000F8012B491EFBD270470022F6E710B5AC
:1001800013460A4604461946FFF7F0FF204610BD05
:1001900030B505462A460B4612F8010B13F8014B01
:1001A00008B1A042F8D01CB1002802D06D1CF1E7C4
:1001B000284630BD421C10F8011B0029FBD1801AD3
:1001C000704710B5002200E0521C835C8C5CA34297
:1001D00001D1002BF8D1D8B2E1B2401A10BD2DE9FF
:1001E000FE4F804681EA0300C00F0C46009021F0CC
:1001F000004123F00045B8EB0200A94105D240467A
:10020000214690461C460B46024623F00040104310
:1002100047D0270DC7F30A00C3F30A510290401AD2
:10022000019040286BDAC3F3130040F4801B009860
:10023000924620B10023D2EB030A63EB0B0B01982B
:100240005946C0F14002504600F0D8F906460D4626
:1002500050465946019A00F0E0F910EB0800614160
:10026000002487EA115284EAE7731A4340D0009AC7
:1002700062B3019A012A4FEA075215DC001B61EBB9
:1002800002014FF0004202EA0752CDE90042001C91
:1002900041F5801132462B4600F017FA03B0BDE855
:1002A000F08F40462146F9E7001B61EB0201001C7C
:1002B00041F5801300185B412018A2F5001747EBA9
:1002C000030140EAD570B6196D4111E06D084FEA9F
:1002D000360645EAC0754FEA0752001B61EB020182
:1002E000001C41F5801149084FEA300000195141C6
:1002F00032462B4603B0BDE8F04F00F0D7B9009866
:10030000012240000023D0EB020263EBE07300986F
:1003100021464FEAE074B8EB000061EB0401E9E725
:1003200083F000435BE781F0004158E72DE9FE4F81
:1003300081EA030404F0004421F0004100944FF0EE
:10034000000B23F0004350EA01045ED052EA03049C
:100350005BD0C3F30A54C1F30A552C44A4F2F3341E
:100360000194A0FB0254C1F3130141F48011C3F3C3
:10037000130343F4801301FB024400FB034E840A81
:10038000970A44EA815447EA8357A4FB0768029519
:100390008D0A05FB07854FEA932C04FB0C542705B7
:1003A000029D4FEA065847EA1637B5EB08056EEB93
:1003B000070C870E920E47EA811742EA8312A7FBC9
:1003C0000201B6EB0B0164EB00042B0D43EA0C3386
:1003D0005E1844EB1C50DA465146E7FB0201C5F3B8
:1003E00013044FEA0B3343EA14534FEA0432019CDF
:1003F00043EA0603A4F10C040294009CCDE900B486
:1004000000F063F903B0BDE8F08F00200146F9E782
:100410002DE9F04D81EA030404F0004B21F0004582
:1004200014464FF0000A23F0004150EA050220D0A4
:1004300054EA01021DD0C5F30A570246C5F313035F
:10044000C1F31300C1F30A5640F4801543F480133E
:10045000A7EB0608101BD64608F2FD3873EB050023
:1004600002D308F1010801E092185B41B8F1000FD6
:1004700003DA00200146BDE8F08D00204FF4801122
:10048000064684460EE0171B73EB050705D3121BC7
:1004900063EB050306434CEA010C49084FEA3000C0
:1004A00092185B4150EA0107EDD152EA030012D0E5
:1004B00082EA040083EA0501084305D0101BAB4122
:1004C00006D20122002306E000224FF0004302E0A2
:1004D0006FF0010253101AEB06004CEB085110EBC1
:1004E0000A0041EB0B01BDE8F04D00F0DFB80EB59E
:1004F000C10F80EAE0700844CA07002140F233438C
:100500008DE80E000A460B4600F0DFF803B000BD90
:1005100000F0004230F000400AD0C10D01F56071DA
:10052000C0F3160042EA0151C20840071143704768
:1005300000200146704701F0004330B421F0004133
:1005400050EA010206D00A0DA2F56072C1F3130150
:10055000002A02DC30BC00207047440F44EAC1048A
:10056000C100E01830BC00EBC25000F068B830B5F4
:100570000B46014600202022012409E021FA02F561
:100580009D4205D303FA02F5491B04FA02F52844FB
:10059000151EA2F10102F1DC30BD2DE9F05F054628
:1005A000002092469B4688460646814640241BE032
:1005B0002846414647462246FFF7B6FD53465A466F
:1005C000C01A914110D311461846224600F016F881
:1005D0002D1A67EB01084F4622460120002100F04A
:1005E0000DF817EB00094E41201EA4F10104DFDCD9
:1005F000484631462A464346BDE8F09F202A04DBA0
:10060000203A00FA02F1002070479140C2F1200325
:1006100020FA03F3194390407047202A06DBCB17DA
:10062000203A41FA02F043EAE07306E041FA02F3AD
:10063000D040C2F12002914008431946704700297A
:10064000A8BF7047401C490008BF20F00100704758
:1006500010B4B0FA80FC00FA0CF050EA010404BFB8
:1006600010BC704749B1CCF1200421FA04F411FA0E
:100670000CF118BF012121430843A3EB0C01CB1D52
:100680004FEA00614FEA102042BF002010BC7047C3
:1006900000EBC35010440029A4BF10BC7047401C9D
:1006A000490008BF20F0010010BC704710B5141EAF
:1006B00073F1000408DA401C41F1000192185B411B
:1006C0001A4301D120F0010010BD2DE9F04D9246F2
:1006D0009B4611B1B1FA81F202E0B0FA80F2203209
:1006E0009046FFF78BFF04460F4640EA0A0041EAB6
:1006F0000B0153465A46084313D0114653EA0100F2
:1007000019D0C8F140025046FFF70EFD05460E46CF
:10071000504659464246FFF771FF084305D0012075
:1007200004E020463946BDE8F08D0020054346EA46
:10073000E0762C4337430A986305E40AA0EB0800EF
:100740000022FD0A44EA47540A3002D5002001463F
:10075000E9E7010510196941DDE90845001969411A
:10076000BDE8F04DA2E7C1F30A52C1F3130140F214
:10077000FF3341F480119A4202DA002001467047AB
:1007800040F233439A42A2F2334202DC5242FFF774
:10079000CBBCFFF733BF000030B5041E71F100047D
:1007A00004DB4FF00044404264EB0101141E73F17E
:1007B000000405DB1C464FF00043524263EB040388
:1007C000994208BF904230BD064C074D06E0E068F4
:1007D00040F0010394E8070098471034AC42F6D388
:1007E000FFF788FCC0450008E045000800BFFEE7B1
:1007F0007047000010B5002400F034FA48B14FF4FF
:10080000FA7316222EA1344801F0E2FD601CC4B236
:1008100002E0002000F08CFA012C11D12FA12FA0B2
:1008200000F040F948B14FF4FA7318222DA12A487C
:1008300001F0CEFD601CC4B202E0012000F078FAA5
:10084000022C13D140F25B722CA138A000F08AF97F
:1008500048B14FF4FA73202235A11F4801F0B8FDCA
:10086000601CC4B202E0022000F062FA032C12D134
:100870001AA237A13AA001F017FE48B14FF4FA735B
:100880001E2241A1144801F0A3FD601CC4B202E085
:10089000032000F04DFA042C10D10122002142A0C7
:1008A00001F0BAFF38B14FF4FA7322224AA10A4884
:1008B00001F08EFD02E0042000F03AFA10BD0000C5
:1008C00045535038323636B3F5CABCBBAFB3C9B99D
:1008D000A6A3A10D0A0000007C010020787878789A
:1008E0007878780045535038323636C1ACBDD3C81D
:1008F000C8B5E3B3C9B9A6A3A10D0A007878787882
:100900007878782E696F742D61732D6D7174742EE3
:10091000636E2D7368616E676861692E616C6979B9
:10092000756E63732E636F6D0000000054435000BA
:1009300045535038323636C1ACBDD3B0A2C0EFD427
:10094000C6B7FECEF1C6F7B3C9B9A6A3A10D0A007A
:100950004553502D30315326787878787878780060
:1009600030303030317C7365637572656D6F6465EE
:100970003D332C7369676E6D6574686F643D686D97
:100980006163736861317C0045535038323636B04C
:10099000A2C0EFD4C64D515454B5C7C2BDB3C9B9F6
:1009A000A6A3A10D0A0000002F7379732F78787821
:1009B000787878782F4553502D3031532F746869EB
:1009C0006E672F736572766963652F70726F7065DD
:1009D0007274792F7365740045535038323636B0CF
:1009E000A2C0EFD4C64D515454B6A9D4C4D6F7CC46
:1009F000E2B3C9B9A6A3A10D0A00000070B5044670
:100A00000D464FF480710748FFF7B7FB00200649F9
:100A100008704FF6FF732A462146044801F0D8FCBF
:100A200070BD0000C002002041000020F400002042
:100A300010B504464FF480710748FFF79EFB002075
:100A40000649087003E014F8010B02F0EBFB207874
:100A50000028F8D110BD0000C00200204100002095
:100A600010B505240FE04FF400710A48FFF785FB2D
:100A700009A0FFF7DDFFC82209A1064800F001FA2E
:100A800008B1012010BD201EA4F10101CCB2EAD1B1
:100A900000BFF7E7C002002041540D0A000000002B
:100AA0004F4B000070B505460E4605240EE04FF48E
:100AB00000711D48FFF761FB1CA0FFF7B9FFC822BA
:100AC0001FA1194800F0DDF900B104E0201EA4F1D7
:100AD0000101CCB2EBD100BF0CB9002070BD0224E3
:100AE0001BE04FF480711748FFF747FB4FF400718C
:100AF0000D48FFF742FB33462A4613A1114802F086
:100B0000B3FB1048FFF794FF4FF4FA520CA10648CC
:100B100000F0B7F908B10120E0E7201EA4F10101BF
:100B2000CCB2DED100BFD9E7C002002041542B4334
:100B3000574D4F44455F4355523D310D0A0000006B
:100B40004F4B0000C001002041542B43574A4150F5
:100B50005F4355523D222573222C222573220D0A14
:100B600000000000F8B505460E46174600F06AF88A
:100B70004FF4FA7000F04AFA02241BE04FF480713F
:100B80002048FFF7FAFA4FF400711F48FFF7F5FA13
:100B900033462A461DA11B48009702F065FB194801
:100BA000FFF746FF4FF4FA521FA1174800F069F90A
:100BB00000B104E0201EA4F10101CCB2DED100BFDF
:100BC0000CB90020F8BD00F08DF808B90020F9E755
:100BD00002240FE04FF400710B48FFF7CEFA14A087
:100BE000FFF726FFC82216A1074800F04AF908B10E
:100BF0000120E7E7201EA4F10101CCB2EAD100BF39
:100C0000E0E70000C0010020C002002041542B4357
:100C1000495053544152543D222573222C222573AE
:100C2000222C25640D0A0000434F4E4E45435400CC
:100C300041542B43495053454E440D0A00000000D7
:100C40003E00000010B506A0FFF7F2FE322000F0D3
:100C5000DDF903A0FFF7ECFE322000F0D7F910BD5C
:100C60002B2B2B0010B54FF480711648FFF785FA37
:100C70004FF400711448FFF780FAFFF7E3FF4FF4D9
:100C8000FA7000F0C3F911A0FFF7D2FE4FF44870DC
:100C900000F0BCF9FFF7E4FE08B9002010BD4FF4E6
:100CA00000710948FFF769FA0BA0FFF7C1FE4FF486
:100CB000FA720BA1044800F0E4F808B90020EDE74F
:100CC0000120EBE7C0010020C002002041542B525C
:100CD00053540D0A00000000415445300D0A000035
:100CE0004F4B000010B502240FE04FF400710A488A
:100CF000FFF743FA09A0FFF79BFEC8220BA10648A5
:100D000000F0BFF808B1012010BD201EA4F10101C0
:100D1000CCB2EAD100BFF7E7C002002041542B4318
:100D200049504D4F44453D310D0A00004F4B0000E6
:100D3000044645E0052C2CD2DFE804F0030B131B1E
:100D400023004FF4FA7316221EA1244801F040FB41
:100D500027E04FF4FA73182221A1204801F038FB54
:100D60001FE04FF4FA73202223A11C4801F030FB4E
:100D700017E04FF4FA731E2227A1184801F028FB50
:100D80000FE04FF4FA7322222BA1144801F020FB4C
:100D900007E04FF4FA730A2230A1104801F018FB63
:100DA00000BF00BF4FF4FA730D222FA10B4801F0D2
:100DB0000FFB0821304800F0CDFAC82000F026F9DA
:100DC000B8E7000045535038323636B3F5CABCBBDD
:100DD000AFCAA7B0DCA3A10D0A0000007C0100206F
:100DE00045535038323636C1ACBDD3C8C8B5E3CA56
:100DF000A7B0DCA3A10D0A0045535038323636C1E6
:100E0000ACBDD3B0A2C0EFD4C6B7FECEF1C6F7CA10
:100E1000A7B0DCA3A10D0A0045535038323636B0D6
:100E2000A2C0EFD4C64D515454B5C7C2BDCAA7B075
:100E3000DCA3A10D0A00000045535038323636B00D
:100E4000A2C0EFD4C64D515454B6A9D4C4D6F7CCE1
:100E5000E2CAA7B0DCA3A10D0A0000004E6F7468BF
:100E6000696E670D0A000000C7EBD6D8C6F4BFAAAA
:100E7000B7A2B0E500000000000C014072B600BF50
:100E8000FEE770B505460E4614460A2094FBF0F0C6
:100E900084B202E00A2000F0B9F831462846FFF794
:100EA00077F920B9201EA4F101018CB2F2D10CB166
:100EB000012070BD0020FCE72DE9F04180460E4680
:100EC00015461F460024BD4202DA601EBDE8F081CF
:100ED00011E03B4622460A49404601F077FE0849A8
:100EE0003046FFF76EF900B906E0641CAC4202DB45
:100EF0004FF0FF30EAE7ECE700BF2046E6E70000EE
:100F0000800000200146002291F82100022808D02C
:100F10000420886300BF002081F8200000BF01206A
:100F200070470868006820F00E000B6818600868B9
:100F3000006820F001000B68186091F84030012033
:100F40009840CB6B5860012081F8210000BF002041
:100F500081F8200000BF1046E2E7000070B50446AB
:100F6000002594F82100022803D00420A063012565
:100F700048E02068006820F00E00216808602068C2
:100F8000006820F00100216808601F49206888423D
:100F900001D1012026E01C4914312068884201D18A
:100FA00010201FE0184928312068884201D180159F
:100FB00018E015493C312068884201D1801411E0C5
:100FC000114950312068884202D14FF4803009E045
:100FD0000D4964312068884202D14FF4801001E04D
:100FE0004FF08070084908394860012084F82100DA
:100FF00000BF002084F8200000BF606B10B12046C5
:10100000616B8847284670BD0800024070B50446F1
:1010100000F0B0F906462546681C10B10448007877
:10102000054400BF00F0A6F9801BA842FAD370BDAA
:10103000340000202DE9F8470346002294466EE173
:101040004FF0010808FA02F4D1F8008008EA040021
:10105000A0427DD1DFF8DCA2D1F80480A8EB0A0918
:10106000D0453AD014DCB8F1030F50D009DCB8F108
:10107000000F31D0B8F1010F1CD0B8F1020F49D1E7
:1010800020E0B8F1110F18D0B8F1120F42D11EE0D4
:10109000B9F5881F25D006DCB9F5803F20D0B9F519
:1010A000801F37D11AE0B9F5001F18D0B9F5041F19
:1010B00030D117E0D1F80CC02DE0D1F80C8008F148
:1010C000040C28E0D1F80C8008F1080C23E0D1F8DA
:1010D0000C8008F10C0C1EE000BF00BF00BF00BF79
:1010E00000BF00BFD1F80880B8F1000F02D14FF067
:1010F000040C0BE0D1F80880B8F1010F03D14FF0D8
:10110000080C1C6102E04FF0080C5C6103E04FF03A
:10111000000C00E000BF00BFFF2801D8984601E0A6
:1011200003F104084646FF2802D84FEA820803E08C
:10113000A2F108084FEA88084746D6F800804FF029
:101140000F0909FA07F928EA09080CFA07F900E07B
:1011500088E048EA0908C6F80080D1F8048008F061
:101160008058B8F1805F7DD100BFDFF8CC81D8F81E
:10117000188048F00108DFF8C091C9F81880C84607
:10118000D8F8188008F00108CDF8008000BF00BF33
:101190004FEAB9384FEA920958F829504FEA827855
:1011A0004FEA18794FF00F0808FA09F825EA080500
:1011B000DFF88881434502D14FF0000816E0DFF8E0
:1011C0008081434502D14FF001080FE0DFF87481C0
:1011D000434502D14FF0020808E0DFF86C81434537
:1011E00002D14FF0030801E04FF004084FEA827982
:1011F0004FEA197908FA09F848EA0505DFF84C8141
:101200004FEA920948F82950D1F8048008F4803850
:10121000B8F5803F0AD1DFF83881D8F8008048EA75
:101220000008DFF82C91C9F8008009E0DFF8208180
:10123000D8F8008028EA0008DFF81491C9F8008087
:10124000D1F8048008F40038B8F5003F10D1DFF879
:10125000008108F10408D8F8008048EA0008DFF8A7
:10126000F09000E05AE009F10409C9F800800DE0AF
:10127000DFF8DC8008F10408D8F8008028EA0008CC
:10128000DFF8CC9009F10409C9F80080D1F8048096
:1012900008F48018B8F5801F0ED1DFF8B48008F18B
:1012A0000808D8F8008048EA0008DFF8A49009F19F
:1012B0000809C9F800800DE0DFF8948008F10808FB
:1012C000D8F8008028EA0008DFF8849009F10809BE
:1012D000C9F80080D1F8048008F40018B8F5001FA0
:1012E0000ED1DFF86C8008F10C08D8F8008048EACD
:1012F0000008DFF85C9009F10C09C9F800800DE0E6
:10130000DFF84C8008F10C08D8F8008028EA0008C3
:10131000DFF83C9009F10C09C9F80080521CD1F8A3
:10132000008028FA02F8B8F1000F7FF489AEBDE81A
:10133000F887000000001110001002400008014072
:10134000000C014000100140001401400800014061
:101350000004014010B5C26821EA020302EA010458
:1013600043EA0443036110BD0AB1016101E00B04CB
:101370000361704701480068704700002C0000209E
:1013800070B504460CB9012070BD4CF6CC40216804
:10139000086045F2555021680860D4E900104860A3
:1013A0002168A0688860FFF7E5FF05460BE0FFF7BE
:1013B000E1FF401B272806D92068C06800F0030021
:1013C00008B10320E0E72068C06800F003000028AF
:1013D000EDD14AF6AA20216808600020D4E7014632
:1013E0004AF6AA200A681060002070470348006887
:1013F0000349097808440149086070472C0000201F
:101400003400002010B50848006840F0100006497C
:101410000860032000F0A8F8002000F007F800F0B2
:101420002BF8002010BD00000020024070B50446DB
:101430000E4800784FF47A71B1FBF0F00C4909685E
:10144000B1FBF0F5284600F00BFC08B1012070BD9F
:10145000102C07D200222146501E00F047F8054804
:10146000046001E00120F2E70020F0E734000020F2
:10147000380000203000002008B500BF1148806906
:1014800040F001000F4988610846806900F00100C2
:10149000009000BF00BF00BF0846C06940F0805008
:1014A000C8610846C06900F08050009000BF00BFCE
:1014B00000BF0549486820F0E06040F000704860D7
:1014C00000BF08BD00100240000001400146084670
:1014D000002809DB00F01F0301229A4043099B000A
:1014E00003F1E023C3F8002100BF70472DE9F05F4E
:1014F00080460D461646002701F0CAFE07463946CB
:101500002A46334601F00700C0F1070ABAF1040F7A
:1015100002D94FF0040A01E0C0F1070AD14600F1F8
:10152000040ABAF1070F02D24FF0000A01E0A0F15D
:10153000030AD4464FF0010A0AFA09FAAAF1010A8D
:101540000AEA020A0AFA0CFA4FF0010B0BFA0CFB3A
:10155000ABF1010B0BEA030B4AEA0B0421464046B0
:1015600001F09EFEBDE8F09F00BF00F00702064BB1
:1015700019684FF6FF031940044B0B4343EA02215D
:10158000014B196000BF70470CED00E00000FA0548
:1015900070B504460D460CB9012070BD5A4800686C
:1015A00000F00700A8420ED25748006820F007005C
:1015B0002843554908600846006800F00700A84223
:1015C00001D00120E9E7207800F0020002281DD1B7
:1015D000207800F00400042805D14C48406840F40D
:1015E000E0604A494860207800F00800082805D1EA
:1015F0004648406840F46050444948604348406869
:1016000020F0F000A168084340494860207800F0CD
:10161000010078B36068012806D13C48006800F4F6
:10162000003090B90120B8E76068022806D1374839
:10163000006800F0007040B90120AEE73348006850
:1016400000F0020008B90120A7E73048406820F008
:101650000300616808432D494860FFF78BFE06468A
:1016600009E0FFF787FE801B41F28831884202D9EA
:10167000032092E707E02548406800F00C0061680D
:10168000B0EB810FEDD12048006800F00700A842C0
:101690000ED91D48006820F0070028431A49086049
:1016A0000846006800F00700A84201D0012074E756
:1016B000207800F00400042807D11448406820F482
:1016C000E060E168084311494860207800F00800B4
:1016D000082808D10D48406820F46050216940EA8C
:1016E000C1000A49486000F03FF808494968C1F361
:1016F0000311074A515CC840064908600648006863
:10170000FFF794FE002048E700200240001002404E
:10171000DC4200083800002030000020014800684A
:10172000704700003800002000B5FFF7F7FF0449BC
:101730004968C1F30221034A515CC84000BD000062
:1017400000100240EC42000800B5FFF7E7FF044933
:101750004968C1F3C221034A515CC84000BD000082
:1017600000100240EC420008F0B585B00FF26C0C9E
:101770009CE8E01001A8A0E8E0101CA52D680095E9
:1017800000210022002300240020194D696801F087
:101790000C05F5B1042D02D0082D19D101E0154832
:1017A00019E001ADC1F38346AC5D01F4803555B15C
:1017B0000F4D6D68C5F340451DF805200D4D65437F
:1017C000B5FBF2F302E00C4D04FB05F3184602E012
:1017D00000BF084800BF00BF05B0F0BD020304050C
:1017E000060708090A0B0C0D0E0F1010010200006D
:1017F0000010024000127A0000093D00F8B50446CE
:101800000CB90120F8BD207800F00100002878D044
:10181000F848406800F00C0004280CD0F5484068F7
:1018200000F00C00082811D1F248406800F4803024
:10183000B0F5803F0AD1EF48006800F4003000287E
:101840005FD0606800285CD10120DBE700BF6068E2
:10185000B0F5803F06D1E748006840F48030E549A4
:10186000086028E0606858B9E248006820F48030D9
:10187000E04908600846006820F4802008601AE00B
:101880006068B0F5A02F0BD1DA48006840F48020E2
:10189000D84908600846006840F4803008600AE0D3
:1018A000D448006820F48030D249086008460068B7
:1018B00020F48020086000BF606888B1FFF75AFDFF
:1018C000054606E0FFF756FD401B642801D90320BA
:1018D00098E7C848006800F400300028F2D010E013
:1018E000FFF748FD054606E0FFF744FD401B64286E
:1018F00001D9032086E7BF48006800F400300028C3
:10190000F2D1207800F00200022857D1B94840688F
:1019100000F00C0050B1B748406800F00C000828F7
:1019200018D1B448406800F4803098B9B1480068D4
:1019300000F0020020B12069012801D0012061E7F8
:10194000AC48006820F0F800616940EAC100A9498C
:10195000086033E02069E8B10120A7490860FFF77B
:1019600009FD054606E0FFF705FD401B022801D9E9
:10197000032047E79F48006800F002000028F2D0EB
:101980009C48006820F0F800616940EAC10099496C
:10199000086013E0002098490860FFF7EBFC05465B
:1019A00006E0FFF7E7FC401B022801D9032029E7E6
:1019B0009048006800F002000028F2D1207800F082
:1019C000080008282DD1A069B8B101208B49086012
:1019D000FFF7D0FC054606E0FFF7CCFC401B0228D1
:1019E00001D903200EE78348406A00F00200002876
:1019F000F2D0012001F0D6F813E000207F49086002
:101A0000FFF7B8FC054606E0FFF7B4FC401B0228D0
:101A100001D90320F6E67748406A00F0020000286A
:101A2000F2D1207800F00400042873D10027714817
:101A3000C06900F0805070B900BF6E48C06940F0C6
:101A400080506C49C8610846C06900F08050009021
:101A500000BF00BF01276A48006800F48070B0B979
:101A60006748006840F4807065490860FFF782FCB1
:101A7000054606E0FFF77EFC401B642801D90320E1
:101A8000C0E65F48006800F480700028F2D000BF14
:101A9000E068012806D15748006A40F00100554926
:101AA000086227E0E06858B95248006A20F0010057
:101AB000504908620846006A20F00400086219E0F4
:101AC000E06805280BD14B48006A40F00400494902
:101AD00008620846006A40F0010008620AE04548D2
:101AE000006A20F00100434908620846006A20F0BD
:101AF0000400086200BFE068A0B1FFF73BFC0546A8
:101B000009E0FFF737FC401B41F28831884202D9D7
:101B1000032077E622E03748006A00F00200002840
:101B2000EFD012E0FFF726FC054608E0FFF722FCA5
:101B3000401B41F28831884201D9032062E62D48DA
:101B4000006A00F002000028F0D1012F05D12948D9
:101B5000C06920F080502749C86100BFE069C8B360
:101B60002448406800F00C00082860D0E069022892
:101B700048D1002020490866FFF7FCFB054606E037
:101B8000FFF7F8FB401B022801D903203AE6194869
:101B9000006800F000700028F2D1206AB0F5803FA4
:101BA00007D11448406820F40030A1680843114967
:101BB0004860D4E9080108430E49496821F47411CA
:101BC00008430C49486001200B490866FFF7D2FB27
:101BD000054607E03DE0FFF7CDFB401B022801D999
:101BE00003200FE60348006800F000700028F2D0E0
:101BF0002FE00000001002400000424280044242F8
:101C000000700040002014490866FFF7B3FB05464A
:101C100006E0FFF7AFFB401B022801D90320F1E5E6
:101C20000E48006800F000700028F2D111E0E06971
:101C3000012800D1E6E50948466806F48031206AAB
:101C4000814204D106F47011606A814201D0012002
:101C5000D8E50020D6E50000000042420010024016
:101C600070B504462546681EB0F1807F01D301207F
:101C70000FE0681E4FF0E02148610F214FF0FF3068
:101C800001F00EFB00204FF0E02188610720086181
:101C9000002070BD30B502460B4600BF92F83C00F4
:101CA000012801D1022030BD012082F83C0000BF94
:101CB000022082F83D00106844681068816824F0B2
:101CC00070041868044310684460104D1068A842FE
:101CD0000BD01068B0F1804F07D00D4D1068A842AE
:101CE00003D00C4D1068A84205D121F0800158683E
:101CF000014310688160012082F83D0000BF002090
:101D000082F83C0000BF00BFCDE70000002C01407E
:101D1000000400400008004010B504460CB9012042
:101D200010BD94F83D0028B9002084F83C002046FE
:101D300000F026F8022084F83D00211D206801F003
:101D400045F8012084F8460000BF84F83E000121D8
:101D50003F200155402001554120015500BF00BFE3
:101D6000012084F8420043200155442001554520BC
:101D7000015500BF012084F83D000020D0E700009D
:101D800008B5094A016891420DD100BF0749896928
:101D900041F40061054A91611146896901F40061CD
:101DA000009100BF00BF08BD002C014000100240A0
:101DB0002DE9F04104460D4600BF94F83C0001288F
:101DC00002D10220BDE8F081012084F83C0000BF70
:101DD000022084F83D002068866826F0770626F405
:101DE0007F46206886602868502833D00CDC202885
:101DF00050D004DC00284BD0102851D149E03028C5
:101E000049D040284CD139E060282DD0702807D027
:101E1000B0F5805F03D0B0F5005F41D10DE040E048
:101E2000D5E902136A68206801F00AF8206886681C
:101E300046F077062068866033E0D5E902136A68C9
:101E4000206800F0FDFF2068806840F48040216831
:101E5000886026E0EA686968206801F005F850218A
:101E6000206800F0F8FF1CE0EA686968206801F06B
:101E70000EF86021206800F0EEFF12E0EA68696861
:101E8000206800F0F1FF4021206800F0E4FF08E046
:101E900000BF00BF00BF2968206800F0DCFF00E041
:101EA00000BF00BF012084F83D0000BF002084F87F
:101EB0003C0000BF00BF85E7704770472DE9F84F31
:101EC0000446206805682068C668206847694FF0A6
:101ED0000009CA4605F00F09B9F1000F0AD105F053
:101EE000200038B106F0200020B1204601F018F89B
:101EF000BDE8F88FB9F1000F71D007F0010018B9F3
:101F000006F4907000286AD005F0010030B106F4A4
:101F1000807018B1206C40F00100206405F00400CE
:101F200030B107F0010018B1206C40F002002064CD
:101F300005F0020030B107F0010018B1206C40F04C
:101F40000400206405F0080048B106F0200010B934
:101F500007F0010018B1206C40F008002064206CEC
:101F600068B305F0200028B106F0200010B120462B
:101F700000F0D6FF20684069C0F3801A206C00F0A2
:101F8000080010B9BAF1000F22D0204600F09DFFE2
:101F90002068406900F04000B0B12068406920F03E
:101FA000400021684861A06B50B15648A16B48635E
:101FB000A06BFEF7D3FF10B1A06B416B88470CE01C
:101FC0002046FFF77AFF08E02046FFF776FF04E09F
:101FD0002046FFF772FF0020206489E7FFE7206BAF
:101FE000012878D105F01000002874D006F0100008
:101FF000002870D000BF002000902068006800908A
:1020000020684068009000BF00BF2068406900F071
:102010004000C0B3A06B006840681FFA80F8B8F1B8
:10202000000F2FD0A08D40452CDDA4F82E80A06B92
:10203000806920281FD02068C06820F48070216843
:10204000C8602068406920F001002168486120686C
:10205000406920F0400021684861202084F83E005B
:10206000002020632068C06820F010002168C8604C
:10207000A06BFEF747FFA08DE28D801A81B220464B
:10208000FFF71AFF34E7FFE7A08DE18D401A1FFA32
:1020900080F8E08DE8B1B8F1000F1AD02068C06870
:1020A00020F490702168C8602068406920F0010029
:1020B00021684861202084F83E00002020632068C9
:1020C000C06820F010002168C86041462046FFF734
:1020D000F3FE0DE7FFE705F0800030B106F0800069
:1020E00018B1204601F02FF802E705F0400030B1AA
:1020F00006F0400018B1204600F002FFF8E600BFED
:10210000F6E60000B72E000810B504460CB9012011
:1021100010BDA06900B100E000BF94F83D0028B9EF
:10212000002084F83C00204600F028F8242084F8A1
:102130003D002068C06820F400502168C860204637
:1021400000F060FF2068006920F490402168086179
:102150002068406920F02A00216848612068C06832
:1021600040F400502168C86000202064202084F8DA
:102170003D0084F83E000020CAE7000010B586B09C
:10218000044600200290039004900590594920686D
:10219000884237D100BF5848806940F48040564992
:1021A00088610846806900F48040019000BF00BF4C
:1021B00000BF0846806940F00400886108468069D5
:1021C00000F00400019000BF00BF481502900220FB
:1021D00003900320059002A94848FEF72BFF4FF417
:1021E0008060029000200390049002A94348FEF70B
:1021F00021FF002203212520FFF778F92520FFF792
:1022000065F975E03E492068884236D100BF3A48FA
:10221000C06940F400303849C8610846C06900F41C
:102220000030019000BF00BF00BF0846806940F049
:10223000040088610846806900F00400019000BF36
:1022400000BF04200290022003900320059002A901
:102250002A48FEF7EFFE0820029000200390049029
:1022600002A92648FEF7E6FE002203212620FFF7FA
:102270003DF92620FFF72AF93AE0224920688842F2
:1022800036D100BF1C48C06940F480201A49C8619B
:102290000846C06900F48020019000BF00BF00BF65
:1022A0000846806940F0080088610846806900F0AF
:1022B0000800019000BF00BF0815029002200390A3
:1022C0000320059002A91048FEF7B4FE4FF4006009
:1022D000029000200390049002A90B48FEF7AAFE8A
:1022E000002211462720FFF701F92720FFF7EEF81B
:1022F00006B010BD00380140001002400008014047
:102300000044004000480040000C014070B5044605
:102310000D46164694F83E00202816D105B10EB998
:10232000012070BD00BF94F83C00012801D10220BB
:10233000F7E7012084F83C0000BF0020206332460C
:102340002946204600F0DCFEEBE70220E9E700002A
:1023500010B5044614492068884210D1134800780B
:102360001349144A1278885412480078401C1149C5
:10237000087001220D491048FFF7C8FF13E00F490C
:10238000206888420FD10E4800780E490E4A127814
:1023900088540D480078401C0B49087001220849F8
:1023A0000A48FFF7B3FF10BD00380140400000208D
:1023B000C002002041000020F40000200044004042
:1023C00019000020440000201800002038010020DF
:1023D0002DE9F84F04460E46174699464FF0000A7D
:1023E00094F83D0020285AD106B117B90120BDE864
:1023F000F88F00BF94F83C00012801D10220F6E7D5
:10240000012084F83C0000BF00202064212084F8D3
:102410003D00FEF7AFFF8246A784E784A068B0F5D1
:10242000805F04D1206910B90025B04602E035462E
:102430004FF0000800BF002084F83C0000BF1BE004
:102440005346002280212046CDF8009000F0ABFEDC
:1024500008B10320CBE745B9B8F80000C0F3080085
:102460002168486008F1020803E028782168486084
:102470006D1CE08C401EE084E08C0028E0D15346C7
:10248000002240212046CDF8009000F08CFE08B1DB
:102490000320ACE7202084F83D000020A7E70220BD
:1024A000A5E7704700BFFEE72DE9FE4306460F464D
:1024B00015463046FDF77EFE02903846FDF77AFE5F
:1024C00001902846FDF776FE0090002080490880A4
:1024D00002980C300199891C01440098801C0C184A
:1024E00010227B490888411C794B198079490A548C
:1024F00000BF2046E21704EB5262D211A4EBC212D5
:10250000D1B2E21704EB5262D411002C01DD41F08C
:1025100080016F4A1088421C6D4B1A806D4A11541D
:10252000002CE6DC002219460888411C1980694904
:102530000A54042219460888411C198065490A5426
:102540004D2219460888411C198062490A545122BB
:1025500019460888411C19805E490A5454221946BC
:102560000888411C19805B490A5419460888411C97
:10257000198058490A54042219460888411C1980B8
:1025800054490A54C22219460888411C19805149ED
:102590000A54002219460888411C19804D490A54E2
:1025A0003C2219460888411C19804A490A549DF862
:1025B000092019460888411C198046490A549DF88B
:1025C000082019460888411C198042490A541A46B5
:1025D000128888183146029AFDF7B6FD3C480088FB
:1025E000029908443A490880019800281CDD9DF8AA
:1025F00005200888411C364B198036490A549DF83D
:10260000042019460888411C198032490A541A4688
:10261000128888183946019AFDF796FD2C480088E3
:10262000019908442A490880009800281DDD9DF87A
:10263000012027490888411C254B198025490A5447
:102640009DF8002019460888411C198021490A5428
:102650001A46128888182946009AFDF775FD1C480D
:102660000088009908441A4908804FF0020825E0C4
:102670004FF400711848FDF780FD15480188154892
:1026800000F0BAF84FF01E0911E013480078134922
:102690000978884208D11048407810494978884222
:1026A00002D10120BDE8FE836420FEF7AFFCB9F142
:1026B0000000A9F1010101F0FF09E6D1B8F1000025
:1026C000A8F1010101F0FF08D2D100BFEAE7000044
:1026D0003C000020C0010020C0020020F44200089D
:1026E0002DE9F8430746884616463846FDF762FD51
:1026F00000904046FDF75EFD054600203B490880FE
:102700001EB10098001D441902E00098801C441975
:10271000302236490888411C344B198034490A5408
:1027200000BF2046E21704EB5262D211A4EBC212A2
:10273000D1B2E21704EB5262D411002C01DD41F05A
:1027400080012A4A1088421C284B1A80284A1154BA
:10275000002CE6DC9DF8012019460888411C1980F0
:1027600023490A549DF8002019460888411C198005
:102770001F490A541A46128888183946009AFDF7EC
:10278000E3FC1A4800880099084418490880AEB153
:1027900018494A7815490888411C144B1980144976
:1027A0000A5414490A7819460888411C19801049AE
:1027B0000A5410480088401C0E4908800C490B4AF6
:1027C000128888182A464146FDF7BEFC0748008853
:1027D00028440649088008460188054800F00CF89E
:1027E00002480088C0B2BDE8F88300003C00002029
:1027F000C00100203E00002070B504460D46294669
:102800002046FEF7FBF870BD10B502210148FFF726
:10281000F3FF10BDFA4200082DE9F8430746884649
:10282000154600204E4908803846FDF7C3FC00904D
:102830000098001D0DB1012100E00021441845B1B0
:10284000822247490888411C454B198045490A5452
:1028500007E0A22242490888411C414B19804149A6
:102860000A5400BF2046E21704EB5262D211A4EBD7
:10287000C212D1B2E21704EB5262D411002C01DD76
:1028800041F08001364A1088421C354B1A80354A87
:102890001154002CE6DC002219460888411C1980DE
:1028A00030490A54012219460888411C19802D49D3
:1028B0000A549DF8012019460888411C19802949AD
:1028C0000A549DF8002019460888411C19802549A2
:1028D0000A541A46128888183946009AFDF734FCC3
:1028E0001F480088009908441D49088035B10888B0
:1028F000411C1B4A11801B4901F80080022625E07B
:102900004FF400711848FDF738FC15480188154848
:10291000FFF772FF4FF01E0911E0134800781349CA
:102920000978884208D1104840781049497888428F
:1029300002D10120BDE8F8836420FEF767FBB9F1FE
:102940000000A9F1010101F0FF09E6D1301EA6F156
:102950000101CEB2D4D10EB10120EBE70020E9E7AE
:102960003C000020C0010020C0020020FE42000800
:1029700000B585B00020019002900390049000BF44
:102980003148806940F010002F498861084680690D
:1029900000F01000009000BF00BF00BF0846806933
:1029A00040F0200088610846806900F02000009017
:1029B00000BF00BF00BF0846806940F00400886186
:1029C0000846806900F00400009000BF00BF00BF0F
:1029D0000846806940F0080088610846806900F078
:1029E0000800009000BF00BF012251031748FEF706
:1029F000BBFC012208211648FEF7B6FC4FF400503C
:102A0000019001200290002003900220049001A96F
:102A10000E48FEF70FFB08200190012002900020D5
:102A200003900220049001A90948FEF703FB30201F
:102A30000190084802900120039001A90448FEF784
:102A4000F9FA05B000BD000000100240001001407E
:102A5000000C01400000111010B50748074908603C
:102A6000062048604FF47A6104488160FEF788FCD4
:102A700008B1FEF703FA10BD00300040A0000020AE
:102A800000B587B000200390049005900690019057
:102A90000290154815490860062048600021134837
:102AA00081604FF6FF71C160002101614161816168
:102AB000FFF732F908B1FEF7E1F94FF480500390C7
:102AC00003A90A48FFF774F908B1FEF7D7F9002007
:102AD0000190029001A90548FFF7DCF808B1FEF764
:102AE000CDF907B000BD0000002C0140AC00002073
:102AF00010B50B480B4908604FF4E13048600021E5
:102B000008488160C16001610C214161002181613F
:102B1000C161FFF7F9FA08B1FEF7B0F910BD000086
:102B200000380140F400002010B50B480B49086044
:102B30004FF416504860002108488160C16001616F
:102B40000C21416100218161C161FFF7DDFA08B10B
:102B5000FEF794F910BD0000004400403801002049
:102B600010B50B480B4908604FF4E1304860002174
:102B700008488160C16001610C21416100218161CF
:102B8000C161FFF7C1FA08B1FEF778F910BD000086
:102B9000004800407C01002000BFFEE700BFFEE7C8
:102BA0007047000008B508490968C9084FF47A72EF
:102BB000B1FBF2F14143009100BF00BF00994A1EF2
:102BC00000920029F9D108BD3800002030B5044634
:102BD000002003E01518655D0D54401C9842F9DB98
:102BE00000250D5430BD00002DE9F04FCFB0454910
:102BF0004869FDF78DFC04460D4642490869FDF71A
:102C000087FC06460F463F49C868FDF781FC8046B1
:102C100089463C498868FDF77BFC82468B463949EA
:102C20004868FDF775FCCDE90C0136490868FDF7E9
:102C30006FFCCDE902ABCDE90489CDE90667CDE9AA
:102C40000845CDE90A01DDE90C01CDE900012E4975
:102C50000EA8DDE90A2300F007FB00220EA92BA035
:102C6000FFF73EFD27498869FDF752FC04460B46F5
:102C700032488079314949792246CDE900103049FE
:102C80000EA800F0F1FA00220EA920A0FFF728FDFF
:102C90002A4800792949C978284A9278CDE9002143
:102CA000029026484378027826490EA800F0DCFA04
:102CB00000220EA915A0FFF713FD23480079224931
:102CC000C978214A9278CDE9002102901E484378C4
:102CD00002781E490EA800F0C7FA00220EA90BA028
:102CE000FFF7FEFC18488379C27919490EA800F055
:102CF000BBFA00220EA905A0FFF7F2FC4FB0BDE819
:102D0000F08F000064000020144500082F737973D1
:102D10002F787878787878782F4553502D30315344
:102D20002F7468696E672F6576656E742F70726F89
:102D300070657274792F706F737400002200002028
:102D400098430008004300081A00002018440008B7
:102D5000AC440008704710B5FEF748FB10BD00B545
:102D60008FB0282105A8FDF708FA14216846FDF761
:102D700004FA092005904FF4803006900020079057
:102D8000012009900B9002200C90C1030D914FF48B
:102D9000E0110E9105A8FEF731FD08B1FEF76EF8BF
:102DA0000F20009002200190002002904FF48060DC
:102DB00003900020049002216846FEF7E9FB08B169
:102DC000FEF75CF80FB000BD7047000010B5026858
:102DD000184B984208D0B0F1804F05D0164B98425E
:102DE00002D0164B984203D122F070024B681A436E
:102DF000104B984208D0B0F1804F05D00E4B98424E
:102E000002D00E4B984203D122F44072CB681A4391
:102E100022F080034C6943EA040202608B68C362BB
:102E20000B688362034B984201D10B690363012352
:102E3000436110BD002C0140000400400008004028
:102E400030B50C46816821F47F4142EA03252543D1
:102E50002943816030BD0A46816821F0700142F04B
:102E6000070319438160704730B50B461446026A68
:102E7000056A25F001050562816921F0F00141EA4A
:102E8000041122F00A021A438161026230BD30B59A
:102E90000B461446056A25F0100505628169026A31
:102EA00021F4704141EA043122F0A00242EA031207
:102EB0008161026230BD70B505466C6A0020E08514
:102EC000E0842046FEF7F9FF70BD0168C96821F46F
:102ED00090710268D1600168496921F001010268BE
:102EE0005161016B012905D10168C96821F0100108
:102EF0000268D160202180F83E10002101637047F4
:102F000010B504462068C06820F040002168C86001
:102F1000202084F83D002046FFF7C3FA002010BDB2
:102F2000F8B5044694F83E00222869D1A068B0F5AF
:102F3000805F0CD1206950B90025A66A20684068DE
:102F4000C0F308003080A06A801CA06215E0A56A6A
:102F50000026A068B0F5805F03D0A06828B920697A
:102F600018B920684068287004E02068406800F0C4
:102F70007F002870A06A401CA062E08D401E80B2D5
:102F8000E085A8BB2068C06820F020002168C860E8
:102F90002068C06820F480702168C860206840699B
:102FA00020F0010021684861202084F83E00206B59
:102FB00001281ED1002020632068C06820F0100086
:102FC0002168C8602068006800F0100010280AD14D
:102FD00000BF0020009020680068009020684068D2
:102FE000009000BF00BFA18D2046FEF765FF03E003
:102FF00004E02046FFF7ACF90020F8BD0020FCE714
:103000000220FAE770B504462168096921F44051AD
:10301000E2681143226811612269A1681143626963
:1030200041EA02052168C96841F20C6291432943D3
:103030002268D1602168496921F44071A269114375
:10304000226851612D4A2168914202D1FEF77CFB32
:1030500001E0FEF769FB00EBC00101EB00116268C3
:103060009200B1FBF2F100EBC00202EB00126368C8
:103070009B00B2FBF3F26423B2FBF3F202EBC20358
:1030800003EB0212A1EB8201322202EB0111642256
:10309000B1FBF2F101F0F00100EBC00202EB001213
:1030A00063689B00B2FBF3F26423B2FBF3F201EB23
:1030B000021200EBC00101EB001163689B00B1FB41
:1030C000F3F100EBC00303EB00136668B600B3FB3B
:1030D000F6F36426B3FBF6F303EBC30606EB031328
:1030E000A1EB8301322303EB01116423B1FBF3F164
:1030F00001F00F0111442268916070BD0038014059
:1031000010B5034699629A85DA850020186422205A
:1031100083F83E0000BF002083F83C0000BF186821
:10312000C06840F480701C68E0601868406940F036
:1031300001001C6860611868C06840F020001C68CD
:10314000E060002010BD014691F83D00212828D103
:103150008868B0F5805F0BD1086948B90A6A1088A1
:10316000C0F308000B685860086A801C086205E01C
:103170000B6A581C086218780B685860C88C401E8F
:1031800080B2C88458B90868C06820F080000B6815
:10319000D8600868C06840F040000B68D860002024
:1031A00070470220FCE72DE9F04104460D46174622
:1031B0009846069E21E0701CF8B12EB1FEF7DAF8B1
:1031C000A0EB0800B04218D92068C06820F4D07085
:1031D0002168C8602068406920F0010021684861CA
:1031E000202084F83D0084F83E0000BF002084F8D1
:1031F0003C0000BF0320BDE8F08120680068284043
:10320000A84201D1012000E00020B842D3D0002024
:10321000F1E7000010B50248FEF750FE10BD0000B7
:10322000F4000020C0F30801054A1268516000BF95
:1032300003490968096801F040010029F8D0704786
:10324000F400002010B50248FEF738FE10BD000063
:103250003801002010B50248FEF730FE10BD000016
:103260007C01002000BFFEE70FB4084B10B504A995
:1032700002AA039800F0FAF8044602A9002000F020
:1032800078FC204610BC5DF814FB0000733B00087E
:1032900002480068C0F30220704700000CED00E017
:1032A00010B5002804DB0A07130E054A135406E084
:1032B0000A07140E034A00F00F031B1FD45410BD5D
:1032C00000E400E018ED00E002E008C8121F08C1A9
:1032D000002AFAD170477047002001E001C1121F97
:1032E000002AFBD1704700002DE9FF5F82B000216A
:1032F000DDE90430020DDDF840B0034318D044F698
:103300001050A2F2FF3242431514119801281FD029
:10331000A5EB0B00401C5FEA000A4FF000064E4F81
:10332000DFF83891B046504615D5CAF1000413E0D5
:10333000119801244AA3012801D16FEA0B010298D8
:10334000119AC0E90031C0E9024206B0BDE8F09F21
:10335000CBF10000DFE704460021404A491842EB68
:103360000450CDE9001012E0E00707D032463B469A
:1033700040464946FCF7DAFF8046894632463B46DE
:1033800010461946FCF7D2FF06460F466410002C83
:10339000EAD1DDE90401DDE90023BAF1000F06DA24
:1033A000FCF7C4FF42464B46FCF7C0FF05E0FDF7C3
:1033B0002FF842464B46FDF72BF804460E460022F6
:1033C000284BFDF7E9F903D84FF0FF30014607E03D
:1033D0000022254B20463146FCF701FFFDF7C3F9DB
:1033E000102409E0002C0ADB0A220023FDF7D5F89F
:1033F000039B30321A55641E50EA0102F2D1641C5C
:10340000039AC4F111031444119A012A03D0012232
:1034100008430DD10AE0084304D000204FF0110BFF
:10342000119072E7A3EB0B056D1E0DE05B4504DD0B
:103430004FF0000205F1010504E003DA4FF000024D
:10344000A5F10105002AECD002981199C0E90231DA
:10345000C0E9004579E70000000014400000F03F9B
:10346000300000000000F0430000E03F2DE9FF4F76
:1034700095B09A46884606460025EEE1252877D184
:1034800000242746F94A0121039400E0044316F87A
:10349000013F203B01FA03F01042F7D130782A288F
:1034A00011D06FF02F033078A0F13002092A16D81E
:1034B000039A44F0020402EB820203EB420210443E
:1034C000761C0390EFE758F8042B0392002A03DAE6
:1034D000504244F40054039044F00204761C3078C7
:1034E0002E2816D116F8010F44F004042A280DD016
:1034F0006FF02F023078A0F13003092B09D807EBC9
:10350000870302EB4303C718761CF3E758F8047BE4
:10351000761C30786C280FD006DC4C2817D0682831
:103520000DD06A2814D104E0742810D07A280FD165
:103530000DE044F400140AE044F4801401E044F483
:1035400040147278824202D104F58014761C761CF5
:10355000307866280BD013DC582877D009DC002897
:1035600075D04528F6D04628F4D047281AD193E1E3
:1035700018E0632835D0642879D0652812D18BE112
:10358000702873D008DC6728F1D069286FD06E28C6
:103590000DD06F2806D1ACE073282CD0752874D0DC
:1035A000782853D05246179990476D1C54E1C4F3C4
:1035B0000250022809D003280DD0D8F800100428A2
:1035C0000DD00D6008F1040846E1D8F80010EA17A4
:1035D000C1E90052F6E7D8F800100D80F2E70D704F
:1035E000F0E718F8041B8DF8001000208DF801009A
:1035F000EB46012003E058F804BB4FF0FF306107B1
:103600004FF0000102D40DE009F101018946B942F1
:103610000FDA8145F8DB1BF809100029F4D108E026
:1036200009F1010189468142FADB1BF809100029E2
:10363000F6D103985346A0EB090721463846179A5E
:1036400000F080FA284400EB090507E044E008E1B7
:103650000DE01BF8010B524617999047B9F101098B
:10366000F7D2534621463846179AF2E039E00A214C
:10367000C4F302524FF0000B0091022A06D058F812
:10368000040BC117032A09D00AE023E008F1070060
:1036900020F00702F2E80201904605E000B2C117EF
:1036A000042A01D140B2C117002906DA0A460021D6
:1036B000404261EB02012D2202E0220504D52B22BB
:1036C0008DF80420012203E0E20701D02022F7E771
:1036D000914657E00A2100E010214FF0000B0091C5
:1036E0000BE010214FF0000B44F004040827009178
:1036F00003E008204FF0000B0090C4F30252022AAE
:1037000005D058F8040B0021032A08D008E008F17E
:10371000070020F00702F2E80201904603E080B2C1
:10372000042A00D1C0B24FF0000922072AD532780E
:10373000702A07D0DDF800C08CF0100C5CEA0B0C8E
:1037400005D00EE040228DF80420012208E050EA66
:10375000010306D030238DF804308DF805200222B5
:103760009146009B83F0080353EA0B030AD150EA09
:10377000010201D1620705D530228DF804204FF0F7
:1037800001097F1E3278582A04D039A20C920CAA63
:1037900002920BE03BA2F9E75B46009AFCF7FDFEC4
:1037A0000C9B9B5C029A521E0292137050EA01021B
:1037B000F2D1029804A9081A00F1200B600702D583
:1037C00024F4803400E001275F4502DDA7EB0B0005
:1037D00000E0002000EB0B01009003984944401AE0
:1037E0000390E00306D453462146179A039800F04D
:1037F000A9F90544002706E001A85246C05D1799C3
:1038000090476D1C7F1C4F45F6DBE0030CD55346FB
:103810002146179A039800F095F9054404E03020FA
:103820005246179990476D1C0099481E0090002938
:10383000F5DC08E00298029952460078491C029192
:10384000179990476D1CBBF10001ABF1010BF1DC46
:103850005BE100F065F90544761C307800287FF4C0
:103860000DAE19B02846BDE8F08F00000928010010
:1038700030313233343536373839616263646566E6
:1038800000000000303132333435363738394142A8
:103890004344454600000000600700D4062708F1B5
:1038A000070020F00700F0E80223804603F0004CF8
:1038B0005FEA0C0001D097A009E0200501D596A091
:1038C00005E0E00701D095A001E0AFF24C001390B5
:1038D000307823F0004365280CD006DC452809D059
:1038E00046281DD047287FD13BE0662818D067289E
:1038F0007AD136E00021112F01DB112000E0781C85
:10390000CDE9000104A90CA8FFF7EEFCDDE90D01EB
:103910000C9A4FF0000B07F10109109200914EE054
:103920004FF000400097CDE9011004A90CA8FFF763
:10393000DBFCDDE90D020C9B0F994FF0000B91466B
:103940001093009211B9791C00EB0109B7EB090043
:1039500003D4C0F1FF3B07F10109A9EB0700019077
:1039600042E0012F00DA01270021112F01DD112093
:1039700000E03846CDE9000104A90CA8FFF7B4FC2B
:10398000DDE90D010C9A00914FF0000BB946109241
:1039900021070FD4009A4A4503DA914601E0A9F1C4
:1039A0000109B9F1010F05DD109AA9F10101515C7E
:1039B0003029F4D0B84202DA10F1040F03DA012101
:1039C000CDE9011010E0002803DC8344A9EB0001DD
:1039D00002E0411C494500DD8946A0EB0B00401C7C
:1039E00001904FF000400290200705D4019848450F
:1039F00002DB4FF0FF30019000208DF84B00029861
:103A00000DF14B07B0F1004F25D002200C902B2078
:103A10000D90029800280CDA404202902D200D9063
:103A200007E00A210298FCF7A2FD3031029007F866
:103A3000011D0C99481E0C900029F2DC0298002808
:103A4000EFD1791E0D980870307800F0200040F01A
:103A5000450007F8020D11A8C01BC01D0290139865
:103A6000007800B1012000EB0901019801EBE07141
:103A7000029801440398401A401E0390E00306D4C4
:103A800053462146179A039800F05CF805441398B2
:103A9000007818B15246179990476D1CE00323D562
:103AA00053462146179A039800F04CF805441BE052
:103AB000BBF1000F07DB0098584504DD10981799FB
:103AC00010F80B0001E017993020524690470198FA
:103AD0000BF1010B401E05F10105019004D12E20D0
:103AE0005246179990476D1CB9F10001A9F10109DF
:103AF000DEDC05E017F8010B5246179990476D1C64
:103B00000299481E02900029F4DC53462146179A78
:103B100003989EE62D0000002B000000200000000E
:103B20002DE9F041044600251E461746880404D4BA
:103B300005E039462020B0476D1C641EF9D52846A3
:103B4000BDE8F0812DE9F041044600251E4690466F
:103B5000C80301D5302700E02027880404D505E0FC
:103B600041463846B0476D1C641EF9D52846BDE86D
:103B7000F0810A68531C0B6010707047F0B5ADF50A
:103B80000B7D05460E463746002003E0295C0BAA54
:103B90001154401CB842F9DB3A46BCA106A8FFF715
:103BA00063FB4FF4FA73142206A9BF48FEF710FC1A
:103BB0004FF4FA733A460BA9BB48FEF709FCBBA0C9
:103BC0000068059002233A4605A90BA8FDF774F991
:103BD000401C38B99DF82C00C82806D19DF82D004E
:103BE0003D2802D1B248FDF7FAFB05233A46B1A1C0
:103BF0000BA8FDF761F90446601CE0B1E01D0BA9BC
:103C0000085C303858B1ADA103C9CDE903014FF4C8
:103C1000FA73082203A9AB48FEF7DAFB0BE0AAA16E
:103C200003C9CDE903014FF4FA73082203A9A5489B
:103C3000FEF7CEFB00BF07233A46A5A10BA8FDF770
:103C40003BF90446601CE0B108300BA9085C303831
:103C500058B1A1A103C9CDE903014FF4FA730822B9
:103C600003A99848FEF7B4FB0BE09DA103C9CDE979
:103C700003014FF4FA73082203A99248FEF7A8FB48
:103C800000BF08233A4698A10BA8FDF715F9044692
:103C9000601CE0B109300BA9085C303858B195A11F
:103CA00003C9CDE903014FF4FA73082203A985483B
:103CB000FEF78EFB0BE091A103C9CDE903014FF4A0
:103CC000FA73082203A97F48FEF782FB00BF07238F
:103CD0003A468CA10BA8FDF7EFF80446601CE0B152
:103CE00008300BA9085C303858B188A103C9CDE968
:103CF00003014FF4FA73082203A97248FEF768FB28
:103D00000BE084A103C9CDE903014FF4FA73082243
:103D100003A96C48FEF75CFB00BF09233A467FA16C
:103D20000BA8FDF7C9F80446601C002857D00A30DC
:103D30000BA9085C3038B0B97BA103C9CDE90301F8
:103D40004FF4FA73082203A95E48FEF741FB78A1FD
:103D500003C9CDE901014FF4FA73082201A95948BA
:103D6000FEF736FB3BE004F10B000BA9085C303892
:103D7000012816D170A103C9CDE903014FF4FA73EC
:103D8000082203A94F48FEF723FB69A103C9CDE927
:103D900001014FF4FA73082201A94A48FEF718FB03
:103DA0001DE004F10B000BA9085C3038022816D185
:103DB00063A103C9CDE903014FF4FA73082203A9F3
:103DC0004048FEF705FB5CA103C9CDE901014FF4B2
:103DD000FA73082201A93B48FEF7FAFA00BF06234E
:103DE0003A4659A10BA8FDF767F80446601CE0B1FC
:103DF000C01D0BA9085C303858B155A103C9CDE9E5
:103E000003014FF4FA73082203A92E48FEF7E0FAE3
:103E10000BE051A103C9CDE903014FF4FA73082265
:103E200003A92848FEF7D4FA00BF05233A464CA15F
:103E30000BA8FDF741F80446601CE0B1E01D0BA99A
:103E4000085C303858B148A103C9CDE903014FF4EB
:103E5000FA73082203A91B48FEF7BAFA0BE044A143
:103E600003C9CDE903014FF4FA73082203A91548E9
:103E7000FEF7AEFA00BF4FF400713F48FCF77DF942
:103E800000203E4908700DF50B7DF0BD4D51545496
:103E9000CAD5B5BDCFFBCFA22CCAFDBEDDB3A4B63B
:103EA000C83D2564200A00007C010020D0000000ED
:103EB000A00000206D5F7265640000000105001025
:103EC000FF008DFF38010020010500100000CC0F1D
:103ED0006D5F677265656E0001050011FF00DC3FD4
:103EE0000105001100009DCF6D5F79656C6C6F77E7
:103EF0000000000001050012FF002C3F0105001228
:103F000000006DCF6D5F616C61726D000105001383
:103F1000FF007DFF0105001300003C0F6D5F707511
:103F20007368726F6400000001050014FF00CC3E4E
:103F3000010500150000DC0E0105001400008DCE07
:103F400001050015FF009DFE6D5F6C616D70000046
:103F500001050017FF003C3E0105001700007DCE63
:103F60006D5F66616E00000001050016FF006DFECA
:103F70000105001600002C0EC002002041000020A8
:103F80002DE9F04F8BB00020444908701E214448B1
:103F9000FCF7F3F84FF4FA73082242494248FEF75F
:103FA00017FA3220FDF732F83C480078002872D02A
:103FB0003220FDF72BF8002464E0042000EB4400DD
:103FC0003749085C032101EB4401354A515C40EA62
:103FD000012B072C28D2DFE804F004090E13181D6A
:103FE00022006FF009094FF03C0A1DE04FF0000974
:103FF0004FF0640A18E04FF0000941F2883A13E0EC
:104000004FF01E094FF0780A0EE04FF0000944F619
:10401000206A09E04FF000094FF01E0A04E04FF05B
:1040200000094FF01E0A00BF00BF4846FCF75FFAC8
:10403000CDE906015846FCF75AFA05460E46AAEBAA
:104040000900FCF754FA0022184BCDE90001FCF7F7
:104050006DF907460022164BFCF7DAF92A4633467B
:10406000CDE90201FCF762F9CDE90401DDE906239F
:10407000FCF7B5F8CDE90801FCF75DFA0D4941F808
:104080002400641C072C98DB0020044908701E21C2
:104090000348FCF772F80BB0BDE8F08F1800002061
:1040A0004400002000000020380100200000F03F04
:1040B000E0FFEF406400002010B500204149087087
:1040C0001E214148FCF759F84FF4FA7308223F4982
:1040D0003F48FEF77DF93220FCF798FF3948007819
:1040E000D8B13220FCF792FF00200DE03649C978A4
:1040F000012282401140374A11541146095C0029BF
:1041000001DD01211154401C0728EFDB00202D495F
:1041100008701E212C48FCF730F83220FCF776FF9F
:104120000020284908701E212748FCF726F84FF484
:10413000FA73082228492648FEF74AF93220FCF78C
:1041400065FF2048007800283AD03220FCF75EFF57
:1041500000200DE01C4949790122824011401F4A8C
:1041600011541146095C002901DD01211154401C44
:104170000828EFDB19480079002806DD1748407948
:1041800018B900201549087113E01448007938B9AE
:1041900012484079002803DD02201049087108E028
:1041A0000E48007928B90D48407910B901200B4913
:1041B00008710020034908701E210348FBF7DDFF4A
:1041C00010BD00001800002044000020080000205E
:1041D0003801002022000020100000201A000020DA
:1041E000FDF710F9FEF7BBFDFEF7C2FBFEF780FC02
:1041F000FEF79AFCFEF744FCFEF7B2FCFEF72CFC3F
:10420000012229492948FEF781F801222849294835
:10421000FEF77CF8FCF7EEFAFEF7F6FA002208212A
:104220002548FDF7A1F84FF49670FCF7EFFE012248
:1042300008212148FDF798F800BF0026002400253A
:1042400031E03046711C8EB2A62807DD4FF4FA73B8
:1042500011221AA11E48FEF7BBF800262046611C59
:104260008CB2A62802DD0024FEF7CEFA2846691C8F
:104270008DB2A62809DD0025FFF782FE3220FCF76B
:10428000C5FEFFF719FFFEF7AFFC1248007838B102
:104290003220FCF7BBFE0F4801780F48FFF76EFC99
:1042A0001E20FCF7B3FECCE740000020F400002005
:1042B0001900002038010020000C0140B3CCD0F2DE
:1042C000D5FDD4DAD4CBD0D0A3A10D0A00000000D4
:1042D0007C01002041000020C002002000000000FE
:1042E00000000000010203040607080900000000A6
:1042F0000102030420020000E000C000C00090039F
:104300007B226964223A22313233222C2276657272
:1043100073696F6E223A22312E30222C092270618D
:1043200072616D73223A7B226D5F626F6479223A0B
:1043300025642C226D5F736D6F6B65223A25642CAA
:10434000226D5F6D6963726F737769746368223A77
:1043500025642C226D5F74726176656C223A256447
:104360002C226D5F73776974636831223A25640982
:104370007D2C226D6574686F64223A227468696EC0
:10438000672E6576656E742E70726F7065727479C3
:104390002E706F7374227D007B226964223A223171
:1043A0003233222C2276657273696F6E223A223183
:1043B0002E30222C0922706172616D73223A7B22A9
:1043C0006D5F776569676874223A25322E32662CF4
:1043D000226D5F73776974636832223A25642C22F8
:1043E0006D5F696E667261726564223A2564097D4B
:1043F0002C226D6574686F64223A227468696E6756
:104400002E6576656E742E70726F70657274792E7B
:10441000706F7374227D00007B226964223A22311E
:104420003233222C2276657273696F6E223A223102
:104430002E30222C0922706172616D73223A7B2228
:104440006D5F726564223A25642C226D5F67726528
:10445000656E223A25642C226D5F79656C6C6F77EE
:10446000223A25642C226D5F616C61726D223A25BF
:10447000642C226D5F70757368726F64223A2564D4
:10448000097D2C226D6574686F64223A2274686914
:104490006E672E6576656E742E70726F70657274BD
:1044A000792E706F7374227D000000007B22696496
:1044B000223A22313233222C2276657273696F6E72
:1044C000223A22312E30222C0922706172616D73E2
:1044D000223A7B226D5F6C616D70223A25642C223A
:1044E0006D5F66616E223A2564097D2C226D6574CC
:1044F000686F64223A227468696E672E6576656E0D
:10450000742E70726F70657274792E706F7374226E
:104510007D0000007B226964223A22313233222C52
:104520002276657273696F6E223A22312E30222C08
:104530000922706172616D73223A7B226D5F74652E
:104540006D70223A25322E32662C226D5F68756DB1
:10455000223A25322E32662C09226D5F636F322299
:104560003A25322E32662C226D5F6E6F697365229A
:104570003A25322E32662C226D5F6C696768742290
:104580003A25332E32662C226D5F77696E64223AAB
:1045900025322E3266097D2C226D6574686F642287
:1045A0003A227468696E672E6576656E742E707235
:1045B0006F70657274792E706F7374227D000000C5
:1045C000E04500080000002044000000C832000858
:1045D00024460008440000207C080000D83200086F
:1045E000020300000008443F0101000000077DC8ED
:1045F0000101000000183C00000000000000000065
:1046000000000000000000000000000000000000AA
:1046100010000000010000000024F4000000000071
:044620000000000096
:04000005080000ED02
:00000001FF
